{
	"contracts/Crowdfunding.sol": {
		"CrowdFunding": {
			"abi": [
				{
					"inputs": [
						{
							"internalType": "uint256",
							"name": "",
							"type": "uint256"
						}
					],
					"name": "Campaigns",
					"outputs": [
						{
							"internalType": "address",
							"name": "owner",
							"type": "address"
						},
						{
							"internalType": "string",
							"name": "title",
							"type": "string"
						},
						{
							"internalType": "string",
							"name": "description",
							"type": "string"
						},
						{
							"internalType": "uint256",
							"name": "target",
							"type": "uint256"
						},
						{
							"internalType": "uint256",
							"name": "deadline",
							"type": "uint256"
						},
						{
							"internalType": "uint256",
							"name": "amountCollected",
							"type": "uint256"
						},
						{
							"internalType": "string",
							"name": "image",
							"type": "string"
						}
					],
					"stateMutability": "view",
					"type": "function"
				},
				{
					"inputs": [
						{
							"internalType": "uint256",
							"name": "_id",
							"type": "uint256"
						}
					],
					"name": "claimRefund",
					"outputs": [],
					"stateMutability": "nonpayable",
					"type": "function"
				},
				{
					"inputs": [
						{
							"internalType": "address",
							"name": "_owner",
							"type": "address"
						},
						{
							"internalType": "string",
							"name": "_title",
							"type": "string"
						},
						{
							"internalType": "string",
							"name": "_description",
							"type": "string"
						},
						{
							"internalType": "uint256",
							"name": "_target",
							"type": "uint256"
						},
						{
							"internalType": "uint256",
							"name": "_deadline",
							"type": "uint256"
						},
						{
							"internalType": "string",
							"name": "_image",
							"type": "string"
						}
					],
					"name": "createCampaign",
					"outputs": [
						{
							"internalType": "uint256",
							"name": "",
							"type": "uint256"
						}
					],
					"stateMutability": "nonpayable",
					"type": "function"
				},
				{
					"inputs": [
						{
							"internalType": "uint256",
							"name": "_id",
							"type": "uint256"
						}
					],
					"name": "donateToCampaign",
					"outputs": [],
					"stateMutability": "payable",
					"type": "function"
				},
				{
					"inputs": [
						{
							"internalType": "uint256",
							"name": "_id",
							"type": "uint256"
						}
					],
					"name": "getCampaign",
					"outputs": [
						{
							"internalType": "address",
							"name": "",
							"type": "address"
						},
						{
							"internalType": "string",
							"name": "",
							"type": "string"
						},
						{
							"internalType": "string",
							"name": "",
							"type": "string"
						},
						{
							"internalType": "uint256",
							"name": "",
							"type": "uint256"
						},
						{
							"internalType": "uint256",
							"name": "",
							"type": "uint256"
						},
						{
							"internalType": "uint256",
							"name": "",
							"type": "uint256"
						},
						{
							"internalType": "string",
							"name": "",
							"type": "string"
						},
						{
							"internalType": "address[]",
							"name": "",
							"type": "address[]"
						},
						{
							"internalType": "uint256[]",
							"name": "",
							"type": "uint256[]"
						}
					],
					"stateMutability": "view",
					"type": "function"
				},
				{
					"inputs": [],
					"name": "getNumberOfCampaigns",
					"outputs": [
						{
							"internalType": "uint256",
							"name": "",
							"type": "uint256"
						}
					],
					"stateMutability": "view",
					"type": "function"
				},
				{
					"inputs": [],
					"name": "numberOfCampaigns",
					"outputs": [
						{
							"internalType": "uint256",
							"name": "",
							"type": "uint256"
						}
					],
					"stateMutability": "view",
					"type": "function"
				},
				{
					"inputs": [
						{
							"internalType": "uint256",
							"name": "_id",
							"type": "uint256"
						}
					],
					"name": "withdrawFunds",
					"outputs": [],
					"stateMutability": "nonpayable",
					"type": "function"
				}
			],
			"devdoc": {
				"kind": "dev",
				"methods": {},
				"version": 1
			},
			"evm": {
				"assembly": "    /* \"contracts/Crowdfunding.sol\":63:3523  contract CrowdFunding {... */\n  mstore(0x40, 0x80)\n    /* \"contracts/Crowdfunding.sol\":576:577  0 */\n  0x00\n    /* \"contracts/Crowdfunding.sol\":541:577  uint256 public numberOfCampaigns = 0 */\n  0x01\n  sstore\n    /* \"contracts/Crowdfunding.sol\":63:3523  contract CrowdFunding {... */\n  callvalue\n  dup1\n  iszero\n  tag_1\n  jumpi\n  0x00\n  dup1\n  revert\ntag_1:\n  pop\n  dataSize(sub_0)\n  dup1\n  dataOffset(sub_0)\n  0x00\n  codecopy\n  0x00\n  return\nstop\n\nsub_0: assembly {\n        /* \"contracts/Crowdfunding.sol\":63:3523  contract CrowdFunding {... */\n      mstore(0x40, 0x80)\n      jumpi(tag_1, lt(calldatasize, 0x04))\n      shr(0xe0, calldataload(0x00))\n      dup1\n      0x5598f8cc\n      gt\n      tag_10\n      jumpi\n      dup1\n      0x5598f8cc\n      eq\n      tag_6\n      jumpi\n      dup1\n      0x5b7baf64\n      eq\n      tag_7\n      jumpi\n      dup1\n      0x9943e3a1\n      eq\n      tag_8\n      jumpi\n      dup1\n      0xe4aafc2c\n      eq\n      tag_9\n      jumpi\n      jump(tag_1)\n    tag_10:\n      dup1\n      0x07ca140d\n      eq\n      tag_2\n      jumpi\n      dup1\n      0x155dd5ee\n      eq\n      tag_3\n      jumpi\n      dup1\n      0x4013be10\n      eq\n      tag_4\n      jumpi\n      dup1\n      0x42a4fda8\n      eq\n      tag_5\n      jumpi\n    tag_1:\n      0x00\n      dup1\n      revert\n        /* \"contracts/Crowdfunding.sol\":541:577  uint256 public numberOfCampaigns = 0 */\n    tag_2:\n      callvalue\n      dup1\n      iszero\n      tag_11\n      jumpi\n      0x00\n      dup1\n      revert\n    tag_11:\n      pop\n      tag_12\n      tag_13\n      jump\t// in\n    tag_12:\n      mload(0x40)\n      tag_14\n      swap2\n      swap1\n      tag_15\n      jump\t// in\n    tag_14:\n      mload(0x40)\n      dup1\n      swap2\n      sub\n      swap1\n      return\n        /* \"contracts/Crowdfunding.sol\":1673:2235  function withdrawFunds(uint256 _id) public {... */\n    tag_3:\n      callvalue\n      dup1\n      iszero\n      tag_16\n      jumpi\n      0x00\n      dup1\n      revert\n    tag_16:\n      pop\n      tag_17\n      0x04\n      dup1\n      calldatasize\n      sub\n      dup2\n      add\n      swap1\n      tag_18\n      swap2\n      swap1\n      tag_19\n      jump\t// in\n    tag_18:\n      tag_20\n      jump\t// in\n    tag_17:\n      stop\n        /* \"contracts/Crowdfunding.sol\":489:534  mapping(uint256 => Campaign) public Campaigns */\n    tag_4:\n      callvalue\n      dup1\n      iszero\n      tag_21\n      jumpi\n      0x00\n      dup1\n      revert\n    tag_21:\n      pop\n      tag_22\n      0x04\n      dup1\n      calldatasize\n      sub\n      dup2\n      add\n      swap1\n      tag_23\n      swap2\n      swap1\n      tag_19\n      jump\t// in\n    tag_23:\n      tag_24\n      jump\t// in\n    tag_22:\n      mload(0x40)\n      tag_25\n      swap8\n      swap7\n      swap6\n      swap5\n      swap4\n      swap3\n      swap2\n      swap1\n      tag_26\n      jump\t// in\n    tag_25:\n      mload(0x40)\n      dup1\n      swap2\n      sub\n      swap1\n      return\n        /* \"contracts/Crowdfunding.sol\":1273:1665  function donateToCampaign(uint256 _id) public payable {... */\n    tag_5:\n      tag_27\n      0x04\n      dup1\n      calldatasize\n      sub\n      dup2\n      add\n      swap1\n      tag_28\n      swap2\n      swap1\n      tag_19\n      jump\t// in\n    tag_28:\n      tag_29\n      jump\t// in\n    tag_27:\n      stop\n        /* \"contracts/Crowdfunding.sol\":2985:3407  function getCampaign(uint256 _id) public view returns (address, string memory, string memory, uint256, uint256, uint256, string memory, address[] memory, uint256[] memory) {... */\n    tag_6:\n      callvalue\n      dup1\n      iszero\n      tag_30\n      jumpi\n      0x00\n      dup1\n      revert\n    tag_30:\n      pop\n      tag_31\n      0x04\n      dup1\n      calldatasize\n      sub\n      dup2\n      add\n      swap1\n      tag_32\n      swap2\n      swap1\n      tag_19\n      jump\t// in\n    tag_32:\n      tag_33\n      jump\t// in\n    tag_31:\n      mload(0x40)\n      tag_34\n      swap10\n      swap9\n      swap8\n      swap7\n      swap6\n      swap5\n      swap4\n      swap3\n      swap2\n      swap1\n      tag_35\n      jump\t// in\n    tag_34:\n      mload(0x40)\n      dup1\n      swap2\n      sub\n      swap1\n      return\n        /* \"contracts/Crowdfunding.sol\":2243:2977  function claimRefund(uint256 _id) public {... */\n    tag_7:\n      callvalue\n      dup1\n      iszero\n      tag_36\n      jumpi\n      0x00\n      dup1\n      revert\n    tag_36:\n      pop\n      tag_37\n      0x04\n      dup1\n      calldatasize\n      sub\n      dup2\n      add\n      swap1\n      tag_38\n      swap2\n      swap1\n      tag_19\n      jump\t// in\n    tag_38:\n      tag_39\n      jump\t// in\n    tag_37:\n      stop\n        /* \"contracts/Crowdfunding.sol\":586:1265  function createCampaign(address _owner, string memory _title, string memory _description, uint256 _target, uint256 _deadline, string memory _image) public returns (uint256) {... */\n    tag_8:\n      callvalue\n      dup1\n      iszero\n      tag_40\n      jumpi\n      0x00\n      dup1\n      revert\n    tag_40:\n      pop\n      tag_41\n      0x04\n      dup1\n      calldatasize\n      sub\n      dup2\n      add\n      swap1\n      tag_42\n      swap2\n      swap1\n      tag_43\n      jump\t// in\n    tag_42:\n      tag_44\n      jump\t// in\n    tag_41:\n      mload(0x40)\n      tag_45\n      swap2\n      swap1\n      tag_15\n      jump\t// in\n    tag_45:\n      mload(0x40)\n      dup1\n      swap2\n      sub\n      swap1\n      return\n        /* \"contracts/Crowdfunding.sol\":3415:3520  function getNumberOfCampaigns() public view returns (uint256) {... */\n    tag_9:\n      callvalue\n      dup1\n      iszero\n      tag_46\n      jumpi\n      0x00\n      dup1\n      revert\n    tag_46:\n      pop\n      tag_47\n      tag_48\n      jump\t// in\n    tag_47:\n      mload(0x40)\n      tag_49\n      swap2\n      swap1\n      tag_15\n      jump\t// in\n    tag_49:\n      mload(0x40)\n      dup1\n      swap2\n      sub\n      swap1\n      return\n        /* \"contracts/Crowdfunding.sol\":541:577  uint256 public numberOfCampaigns = 0 */\n    tag_13:\n      sload(0x01)\n      dup2\n      jump\t// out\n        /* \"contracts/Crowdfunding.sol\":1673:2235  function withdrawFunds(uint256 _id) public {... */\n    tag_20:\n        /* \"contracts/Crowdfunding.sol\":1727:1752  Campaign storage campaign */\n      0x00\n        /* \"contracts/Crowdfunding.sol\":1755:1764  Campaigns */\n      dup1\n        /* \"contracts/Crowdfunding.sol\":1755:1769  Campaigns[_id] */\n      0x00\n        /* \"contracts/Crowdfunding.sol\":1765:1768  _id */\n      dup4\n        /* \"contracts/Crowdfunding.sol\":1755:1769  Campaigns[_id] */\n      dup2\n      mstore\n      0x20\n      add\n      swap1\n      dup2\n      mstore\n      0x20\n      add\n      0x00\n      keccak256\n        /* \"contracts/Crowdfunding.sol\":1727:1769  Campaign storage campaign = Campaigns[_id] */\n      swap1\n      pop\n        /* \"contracts/Crowdfunding.sol\":1806:1816  msg.sender */\n      caller\n        /* \"contracts/Crowdfunding.sol\":1788:1816  campaign.owner == msg.sender */\n      0xffffffffffffffffffffffffffffffffffffffff\n      and\n        /* \"contracts/Crowdfunding.sol\":1788:1796  campaign */\n      dup2\n        /* \"contracts/Crowdfunding.sol\":1788:1802  campaign.owner */\n      0x00\n      add\n      0x00\n      swap1\n      sload\n      swap1\n      0x0100\n      exp\n      swap1\n      div\n      0xffffffffffffffffffffffffffffffffffffffff\n      and\n        /* \"contracts/Crowdfunding.sol\":1788:1816  campaign.owner == msg.sender */\n      0xffffffffffffffffffffffffffffffffffffffff\n      and\n      eq\n        /* \"contracts/Crowdfunding.sol\":1780:1864  require(campaign.owner == msg.sender, \"Only the campaign owner can withdraw funds.\") */\n      tag_51\n      jumpi\n      mload(0x40)\n      0x08c379a000000000000000000000000000000000000000000000000000000000\n      dup2\n      mstore\n      0x04\n      add\n      tag_52\n      swap1\n      tag_53\n      jump\t// in\n    tag_52:\n      mload(0x40)\n      dup1\n      swap2\n      sub\n      swap1\n      revert\n    tag_51:\n        /* \"contracts/Crowdfunding.sol\":1911:1919  campaign */\n      dup1\n        /* \"contracts/Crowdfunding.sol\":1911:1926  campaign.target */\n      0x03\n      add\n      sload\n        /* \"contracts/Crowdfunding.sol\":1883:1891  campaign */\n      dup2\n        /* \"contracts/Crowdfunding.sol\":1883:1907  campaign.amountCollected */\n      0x05\n      add\n      sload\n        /* \"contracts/Crowdfunding.sol\":1883:1926  campaign.amountCollected >= campaign.target */\n      lt\n      iszero\n        /* \"contracts/Crowdfunding.sol\":1875:1985  require(campaign.amountCollected >= campaign.target, \"Funds cannot be withdrawn until the target is reached.\") */\n      tag_54\n      jumpi\n      mload(0x40)\n      0x08c379a000000000000000000000000000000000000000000000000000000000\n      dup2\n      mstore\n      0x04\n      add\n      tag_55\n      swap1\n      tag_56\n      jump\t// in\n    tag_55:\n      mload(0x40)\n      dup1\n      swap2\n      sub\n      swap1\n      revert\n    tag_54:\n        /* \"contracts/Crowdfunding.sol\":1998:2022  uint256 amountToWithdraw */\n      0x00\n        /* \"contracts/Crowdfunding.sol\":2025:2033  campaign */\n      dup2\n        /* \"contracts/Crowdfunding.sol\":2025:2049  campaign.amountCollected */\n      0x05\n      add\n      sload\n        /* \"contracts/Crowdfunding.sol\":1998:2049  uint256 amountToWithdraw = campaign.amountCollected */\n      swap1\n      pop\n        /* \"contracts/Crowdfunding.sol\":2087:2088  0 */\n      0x00\n        /* \"contracts/Crowdfunding.sol\":2060:2068  campaign */\n      dup3\n        /* \"contracts/Crowdfunding.sol\":2060:2084  campaign.amountCollected */\n      0x05\n      add\n        /* \"contracts/Crowdfunding.sol\":2060:2088  campaign.amountCollected = 0 */\n      dup2\n      swap1\n      sstore\n      pop\n        /* \"contracts/Crowdfunding.sol\":2145:2153  campaign */\n      dup2\n        /* \"contracts/Crowdfunding.sol\":2145:2159  campaign.owner */\n      0x00\n      add\n      0x00\n      swap1\n      sload\n      swap1\n      0x0100\n      exp\n      swap1\n      div\n      0xffffffffffffffffffffffffffffffffffffffff\n      and\n        /* \"contracts/Crowdfunding.sol\":2137:2169  payable(campaign.owner).transfer */\n      0xffffffffffffffffffffffffffffffffffffffff\n      and\n        /* \"contracts/Crowdfunding.sol\":2137:2187  payable(campaign.owner).transfer(amountToWithdraw) */\n      0x08fc\n        /* \"contracts/Crowdfunding.sol\":2170:2186  amountToWithdraw */\n      dup3\n        /* \"contracts/Crowdfunding.sol\":2137:2187  payable(campaign.owner).transfer(amountToWithdraw) */\n      swap1\n      dup2\n      iszero\n      mul\n      swap1\n      mload(0x40)\n      0x00\n      mload(0x40)\n      dup1\n      dup4\n      sub\n      dup2\n      dup6\n      dup9\n      dup9\n      call\n      swap4\n      pop\n      pop\n      pop\n      pop\n      iszero\n      dup1\n      iszero\n      tag_58\n      jumpi\n      returndatasize\n      0x00\n      dup1\n      returndatacopy\n      revert(0x00, returndatasize)\n    tag_58:\n      pop\n        /* \"contracts/Crowdfunding.sol\":1716:2235  {... */\n      pop\n      pop\n        /* \"contracts/Crowdfunding.sol\":1673:2235  function withdrawFunds(uint256 _id) public {... */\n      pop\n      jump\t// out\n        /* \"contracts/Crowdfunding.sol\":489:534  mapping(uint256 => Campaign) public Campaigns */\n    tag_24:\n      mstore(0x20, 0x00)\n      dup1\n      0x00\n      mstore\n      keccak256(0x00, 0x40)\n      0x00\n      swap2\n      pop\n      swap1\n      pop\n      dup1\n      0x00\n      add\n      0x00\n      swap1\n      sload\n      swap1\n      0x0100\n      exp\n      swap1\n      div\n      0xffffffffffffffffffffffffffffffffffffffff\n      and\n      swap1\n      dup1\n      0x01\n      add\n      dup1\n      sload\n      tag_59\n      swap1\n      tag_60\n      jump\t// in\n    tag_59:\n      dup1\n      0x1f\n      add\n      0x20\n      dup1\n      swap2\n      div\n      mul\n      0x20\n      add\n      mload(0x40)\n      swap1\n      dup2\n      add\n      0x40\n      mstore\n      dup1\n      swap3\n      swap2\n      swap1\n      dup2\n      dup2\n      mstore\n      0x20\n      add\n      dup3\n      dup1\n      sload\n      tag_61\n      swap1\n      tag_60\n      jump\t// in\n    tag_61:\n      dup1\n      iszero\n      tag_62\n      jumpi\n      dup1\n      0x1f\n      lt\n      tag_63\n      jumpi\n      0x0100\n      dup1\n      dup4\n      sload\n      div\n      mul\n      dup4\n      mstore\n      swap2\n      0x20\n      add\n      swap2\n      jump(tag_62)\n    tag_63:\n      dup3\n      add\n      swap2\n      swap1\n      0x00\n      mstore\n      keccak256(0x00, 0x20)\n      swap1\n    tag_64:\n      dup2\n      sload\n      dup2\n      mstore\n      swap1\n      0x01\n      add\n      swap1\n      0x20\n      add\n      dup1\n      dup4\n      gt\n      tag_64\n      jumpi\n      dup3\n      swap1\n      sub\n      0x1f\n      and\n      dup3\n      add\n      swap2\n    tag_62:\n      pop\n      pop\n      pop\n      pop\n      pop\n      swap1\n      dup1\n      0x02\n      add\n      dup1\n      sload\n      tag_65\n      swap1\n      tag_60\n      jump\t// in\n    tag_65:\n      dup1\n      0x1f\n      add\n      0x20\n      dup1\n      swap2\n      div\n      mul\n      0x20\n      add\n      mload(0x40)\n      swap1\n      dup2\n      add\n      0x40\n      mstore\n      dup1\n      swap3\n      swap2\n      swap1\n      dup2\n      dup2\n      mstore\n      0x20\n      add\n      dup3\n      dup1\n      sload\n      tag_66\n      swap1\n      tag_60\n      jump\t// in\n    tag_66:\n      dup1\n      iszero\n      tag_67\n      jumpi\n      dup1\n      0x1f\n      lt\n      tag_68\n      jumpi\n      0x0100\n      dup1\n      dup4\n      sload\n      div\n      mul\n      dup4\n      mstore\n      swap2\n      0x20\n      add\n      swap2\n      jump(tag_67)\n    tag_68:\n      dup3\n      add\n      swap2\n      swap1\n      0x00\n      mstore\n      keccak256(0x00, 0x20)\n      swap1\n    tag_69:\n      dup2\n      sload\n      dup2\n      mstore\n      swap1\n      0x01\n      add\n      swap1\n      0x20\n      add\n      dup1\n      dup4\n      gt\n      tag_69\n      jumpi\n      dup3\n      swap1\n      sub\n      0x1f\n      and\n      dup3\n      add\n      swap2\n    tag_67:\n      pop\n      pop\n      pop\n      pop\n      pop\n      swap1\n      dup1\n      0x03\n      add\n      sload\n      swap1\n      dup1\n      0x04\n      add\n      sload\n      swap1\n      dup1\n      0x05\n      add\n      sload\n      swap1\n      dup1\n      0x06\n      add\n      dup1\n      sload\n      tag_70\n      swap1\n      tag_60\n      jump\t// in\n    tag_70:\n      dup1\n      0x1f\n      add\n      0x20\n      dup1\n      swap2\n      div\n      mul\n      0x20\n      add\n      mload(0x40)\n      swap1\n      dup2\n      add\n      0x40\n      mstore\n      dup1\n      swap3\n      swap2\n      swap1\n      dup2\n      dup2\n      mstore\n      0x20\n      add\n      dup3\n      dup1\n      sload\n      tag_71\n      swap1\n      tag_60\n      jump\t// in\n    tag_71:\n      dup1\n      iszero\n      tag_72\n      jumpi\n      dup1\n      0x1f\n      lt\n      tag_73\n      jumpi\n      0x0100\n      dup1\n      dup4\n      sload\n      div\n      mul\n      dup4\n      mstore\n      swap2\n      0x20\n      add\n      swap2\n      jump(tag_72)\n    tag_73:\n      dup3\n      add\n      swap2\n      swap1\n      0x00\n      mstore\n      keccak256(0x00, 0x20)\n      swap1\n    tag_74:\n      dup2\n      sload\n      dup2\n      mstore\n      swap1\n      0x01\n      add\n      swap1\n      0x20\n      add\n      dup1\n      dup4\n      gt\n      tag_74\n      jumpi\n      dup3\n      swap1\n      sub\n      0x1f\n      and\n      dup3\n      add\n      swap2\n    tag_72:\n      pop\n      pop\n      pop\n      pop\n      pop\n      swap1\n      pop\n      dup8\n      jump\t// out\n        /* \"contracts/Crowdfunding.sol\":1273:1665  function donateToCampaign(uint256 _id) public payable {... */\n    tag_29:\n        /* \"contracts/Crowdfunding.sol\":1338:1352  uint256 amount */\n      0x00\n        /* \"contracts/Crowdfunding.sol\":1355:1364  msg.value */\n      callvalue\n        /* \"contracts/Crowdfunding.sol\":1338:1364  uint256 amount = msg.value */\n      swap1\n      pop\n        /* \"contracts/Crowdfunding.sol\":1377:1402  Campaign storage campaign */\n      0x00\n        /* \"contracts/Crowdfunding.sol\":1405:1414  Campaigns */\n      dup1\n        /* \"contracts/Crowdfunding.sol\":1405:1419  Campaigns[_id] */\n      0x00\n        /* \"contracts/Crowdfunding.sol\":1415:1418  _id */\n      dup5\n        /* \"contracts/Crowdfunding.sol\":1405:1419  Campaigns[_id] */\n      dup2\n      mstore\n      0x20\n      add\n      swap1\n      dup2\n      mstore\n      0x20\n      add\n      0x00\n      keccak256\n        /* \"contracts/Crowdfunding.sol\":1377:1419  Campaign storage campaign = Campaigns[_id] */\n      swap1\n      pop\n        /* \"contracts/Crowdfunding.sol\":1432:1440  campaign */\n      dup1\n        /* \"contracts/Crowdfunding.sol\":1432:1449  campaign.donators */\n      0x07\n      add\n        /* \"contracts/Crowdfunding.sol\":1455:1465  msg.sender */\n      caller\n        /* \"contracts/Crowdfunding.sol\":1432:1466  campaign.donators.push(msg.sender) */\n      swap1\n      dup1\n      0x01\n      dup2\n      sload\n      add\n      dup1\n      dup3\n      sstore\n      dup1\n      swap2\n      pop\n      pop\n      0x01\n      swap1\n      sub\n      swap1\n      0x00\n      mstore\n      keccak256(0x00, 0x20)\n      add\n      0x00\n      swap1\n      swap2\n      swap1\n      swap2\n      swap1\n      swap2\n      0x0100\n      exp\n      dup2\n      sload\n      dup2\n      0xffffffffffffffffffffffffffffffffffffffff\n      mul\n      not\n      and\n      swap1\n      dup4\n      0xffffffffffffffffffffffffffffffffffffffff\n      and\n      mul\n      or\n      swap1\n      sstore\n      pop\n        /* \"contracts/Crowdfunding.sol\":1477:1485  campaign */\n      dup1\n        /* \"contracts/Crowdfunding.sol\":1477:1495  campaign.donations */\n      0x08\n      add\n        /* \"contracts/Crowdfunding.sol\":1501:1507  amount */\n      dup3\n        /* \"contracts/Crowdfunding.sol\":1477:1508  campaign.donations.push(amount) */\n      swap1\n      dup1\n      0x01\n      dup2\n      sload\n      add\n      dup1\n      dup3\n      sstore\n      dup1\n      swap2\n      pop\n      pop\n      0x01\n      swap1\n      sub\n      swap1\n      0x00\n      mstore\n      keccak256(0x00, 0x20)\n      add\n      0x00\n      swap1\n      swap2\n      swap1\n      swap2\n      swap1\n      swap2\n      pop\n      sstore\n        /* \"contracts/Crowdfunding.sol\":1557:1563  amount */\n      dup2\n        /* \"contracts/Crowdfunding.sol\":1519:1527  campaign */\n      dup2\n        /* \"contracts/Crowdfunding.sol\":1519:1541  campaign.donatedAmount */\n      0x09\n      add\n        /* \"contracts/Crowdfunding.sol\":1519:1553  campaign.donatedAmount[msg.sender] */\n      0x00\n        /* \"contracts/Crowdfunding.sol\":1542:1552  msg.sender */\n      caller\n        /* \"contracts/Crowdfunding.sol\":1519:1553  campaign.donatedAmount[msg.sender] */\n      0xffffffffffffffffffffffffffffffffffffffff\n      and\n      0xffffffffffffffffffffffffffffffffffffffff\n      and\n      dup2\n      mstore\n      0x20\n      add\n      swap1\n      dup2\n      mstore\n      0x20\n      add\n      0x00\n      keccak256\n      0x00\n        /* \"contracts/Crowdfunding.sol\":1519:1563  campaign.donatedAmount[msg.sender] += amount */\n      dup3\n      dup3\n      sload\n      tag_78\n      swap2\n      swap1\n      tag_79\n      jump\t// in\n    tag_78:\n      swap3\n      pop\n      pop\n      dup2\n      swap1\n      sstore\n      pop\n        /* \"contracts/Crowdfunding.sol\":1651:1657  amount */\n      dup2\n        /* \"contracts/Crowdfunding.sol\":1623:1631  campaign */\n      dup2\n        /* \"contracts/Crowdfunding.sol\":1623:1647  campaign.amountCollected */\n      0x05\n      add\n      0x00\n        /* \"contracts/Crowdfunding.sol\":1623:1657  campaign.amountCollected += amount */\n      dup3\n      dup3\n      sload\n      tag_80\n      swap2\n      swap1\n      tag_79\n      jump\t// in\n    tag_80:\n      swap3\n      pop\n      pop\n      dup2\n      swap1\n      sstore\n      pop\n        /* \"contracts/Crowdfunding.sol\":1327:1665  {... */\n      pop\n      pop\n        /* \"contracts/Crowdfunding.sol\":1273:1665  function donateToCampaign(uint256 _id) public payable {... */\n      pop\n      jump\t// out\n        /* \"contracts/Crowdfunding.sol\":2985:3407  function getCampaign(uint256 _id) public view returns (address, string memory, string memory, uint256, uint256, uint256, string memory, address[] memory, uint256[] memory) {... */\n    tag_33:\n        /* \"contracts/Crowdfunding.sol\":3040:3047  address */\n      0x00\n        /* \"contracts/Crowdfunding.sol\":3049:3062  string memory */\n      0x60\n        /* \"contracts/Crowdfunding.sol\":3064:3077  string memory */\n      dup1\n        /* \"contracts/Crowdfunding.sol\":3079:3086  uint256 */\n      0x00\n        /* \"contracts/Crowdfunding.sol\":3088:3095  uint256 */\n      dup1\n        /* \"contracts/Crowdfunding.sol\":3097:3104  uint256 */\n      0x00\n        /* \"contracts/Crowdfunding.sol\":3106:3119  string memory */\n      0x60\n        /* \"contracts/Crowdfunding.sol\":3121:3137  address[] memory */\n      dup1\n        /* \"contracts/Crowdfunding.sol\":3139:3155  uint256[] memory */\n      0x60\n        /* \"contracts/Crowdfunding.sol\":3168:3193  Campaign storage campaign */\n      0x00\n        /* \"contracts/Crowdfunding.sol\":3196:3205  Campaigns */\n      dup1\n        /* \"contracts/Crowdfunding.sol\":3196:3210  Campaigns[_id] */\n      0x00\n        /* \"contracts/Crowdfunding.sol\":3206:3209  _id */\n      dup13\n        /* \"contracts/Crowdfunding.sol\":3196:3210  Campaigns[_id] */\n      dup2\n      mstore\n      0x20\n      add\n      swap1\n      dup2\n      mstore\n      0x20\n      add\n      0x00\n      keccak256\n        /* \"contracts/Crowdfunding.sol\":3168:3210  Campaign storage campaign = Campaigns[_id] */\n      swap1\n      pop\n        /* \"contracts/Crowdfunding.sol\":3229:3237  campaign */\n      dup1\n        /* \"contracts/Crowdfunding.sol\":3229:3243  campaign.owner */\n      0x00\n      add\n      0x00\n      swap1\n      sload\n      swap1\n      0x0100\n      exp\n      swap1\n      div\n      0xffffffffffffffffffffffffffffffffffffffff\n      and\n        /* \"contracts/Crowdfunding.sol\":3245:3253  campaign */\n      dup2\n        /* \"contracts/Crowdfunding.sol\":3245:3259  campaign.title */\n      0x01\n      add\n        /* \"contracts/Crowdfunding.sol\":3261:3269  campaign */\n      dup3\n        /* \"contracts/Crowdfunding.sol\":3261:3281  campaign.description */\n      0x02\n      add\n        /* \"contracts/Crowdfunding.sol\":3283:3291  campaign */\n      dup4\n        /* \"contracts/Crowdfunding.sol\":3283:3298  campaign.target */\n      0x03\n      add\n      sload\n        /* \"contracts/Crowdfunding.sol\":3300:3308  campaign */\n      dup5\n        /* \"contracts/Crowdfunding.sol\":3300:3317  campaign.deadline */\n      0x04\n      add\n      sload\n        /* \"contracts/Crowdfunding.sol\":3319:3327  campaign */\n      dup6\n        /* \"contracts/Crowdfunding.sol\":3319:3343  campaign.amountCollected */\n      0x05\n      add\n      sload\n        /* \"contracts/Crowdfunding.sol\":3345:3353  campaign */\n      dup7\n        /* \"contracts/Crowdfunding.sol\":3345:3359  campaign.image */\n      0x06\n      add\n        /* \"contracts/Crowdfunding.sol\":3361:3369  campaign */\n      dup8\n        /* \"contracts/Crowdfunding.sol\":3361:3378  campaign.donators */\n      0x07\n      add\n        /* \"contracts/Crowdfunding.sol\":3380:3388  campaign */\n      dup9\n        /* \"contracts/Crowdfunding.sol\":3380:3398  campaign.donations */\n      0x08\n      add\n        /* \"contracts/Crowdfunding.sol\":3221:3399  return (campaign.owner, campaign.title, campaign.description, campaign.target, campaign.deadline, campaign.amountCollected, campaign.image, campaign.donators, campaign.donations) */\n      dup8\n      dup1\n      sload\n      tag_82\n      swap1\n      tag_60\n      jump\t// in\n    tag_82:\n      dup1\n      0x1f\n      add\n      0x20\n      dup1\n      swap2\n      div\n      mul\n      0x20\n      add\n      mload(0x40)\n      swap1\n      dup2\n      add\n      0x40\n      mstore\n      dup1\n      swap3\n      swap2\n      swap1\n      dup2\n      dup2\n      mstore\n      0x20\n      add\n      dup3\n      dup1\n      sload\n      tag_83\n      swap1\n      tag_60\n      jump\t// in\n    tag_83:\n      dup1\n      iszero\n      tag_84\n      jumpi\n      dup1\n      0x1f\n      lt\n      tag_85\n      jumpi\n      0x0100\n      dup1\n      dup4\n      sload\n      div\n      mul\n      dup4\n      mstore\n      swap2\n      0x20\n      add\n      swap2\n      jump(tag_84)\n    tag_85:\n      dup3\n      add\n      swap2\n      swap1\n      0x00\n      mstore\n      keccak256(0x00, 0x20)\n      swap1\n    tag_86:\n      dup2\n      sload\n      dup2\n      mstore\n      swap1\n      0x01\n      add\n      swap1\n      0x20\n      add\n      dup1\n      dup4\n      gt\n      tag_86\n      jumpi\n      dup3\n      swap1\n      sub\n      0x1f\n      and\n      dup3\n      add\n      swap2\n    tag_84:\n      pop\n      pop\n      pop\n      pop\n      pop\n      swap8\n      pop\n      dup7\n      dup1\n      sload\n      tag_87\n      swap1\n      tag_60\n      jump\t// in\n    tag_87:\n      dup1\n      0x1f\n      add\n      0x20\n      dup1\n      swap2\n      div\n      mul\n      0x20\n      add\n      mload(0x40)\n      swap1\n      dup2\n      add\n      0x40\n      mstore\n      dup1\n      swap3\n      swap2\n      swap1\n      dup2\n      dup2\n      mstore\n      0x20\n      add\n      dup3\n      dup1\n      sload\n      tag_88\n      swap1\n      tag_60\n      jump\t// in\n    tag_88:\n      dup1\n      iszero\n      tag_89\n      jumpi\n      dup1\n      0x1f\n      lt\n      tag_90\n      jumpi\n      0x0100\n      dup1\n      dup4\n      sload\n      div\n      mul\n      dup4\n      mstore\n      swap2\n      0x20\n      add\n      swap2\n      jump(tag_89)\n    tag_90:\n      dup3\n      add\n      swap2\n      swap1\n      0x00\n      mstore\n      keccak256(0x00, 0x20)\n      swap1\n    tag_91:\n      dup2\n      sload\n      dup2\n      mstore\n      swap1\n      0x01\n      add\n      swap1\n      0x20\n      add\n      dup1\n      dup4\n      gt\n      tag_91\n      jumpi\n      dup3\n      swap1\n      sub\n      0x1f\n      and\n      dup3\n      add\n      swap2\n    tag_89:\n      pop\n      pop\n      pop\n      pop\n      pop\n      swap7\n      pop\n      dup3\n      dup1\n      sload\n      tag_92\n      swap1\n      tag_60\n      jump\t// in\n    tag_92:\n      dup1\n      0x1f\n      add\n      0x20\n      dup1\n      swap2\n      div\n      mul\n      0x20\n      add\n      mload(0x40)\n      swap1\n      dup2\n      add\n      0x40\n      mstore\n      dup1\n      swap3\n      swap2\n      swap1\n      dup2\n      dup2\n      mstore\n      0x20\n      add\n      dup3\n      dup1\n      sload\n      tag_93\n      swap1\n      tag_60\n      jump\t// in\n    tag_93:\n      dup1\n      iszero\n      tag_94\n      jumpi\n      dup1\n      0x1f\n      lt\n      tag_95\n      jumpi\n      0x0100\n      dup1\n      dup4\n      sload\n      div\n      mul\n      dup4\n      mstore\n      swap2\n      0x20\n      add\n      swap2\n      jump(tag_94)\n    tag_95:\n      dup3\n      add\n      swap2\n      swap1\n      0x00\n      mstore\n      keccak256(0x00, 0x20)\n      swap1\n    tag_96:\n      dup2\n      sload\n      dup2\n      mstore\n      swap1\n      0x01\n      add\n      swap1\n      0x20\n      add\n      dup1\n      dup4\n      gt\n      tag_96\n      jumpi\n      dup3\n      swap1\n      sub\n      0x1f\n      and\n      dup3\n      add\n      swap2\n    tag_94:\n      pop\n      pop\n      pop\n      pop\n      pop\n      swap3\n      pop\n      dup2\n      dup1\n      sload\n      dup1\n      0x20\n      mul\n      0x20\n      add\n      mload(0x40)\n      swap1\n      dup2\n      add\n      0x40\n      mstore\n      dup1\n      swap3\n      swap2\n      swap1\n      dup2\n      dup2\n      mstore\n      0x20\n      add\n      dup3\n      dup1\n      sload\n      dup1\n      iszero\n      tag_97\n      jumpi\n      0x20\n      mul\n      dup3\n      add\n      swap2\n      swap1\n      0x00\n      mstore\n      keccak256(0x00, 0x20)\n      swap1\n    tag_98:\n      dup2\n      0x00\n      swap1\n      sload\n      swap1\n      0x0100\n      exp\n      swap1\n      div\n      0xffffffffffffffffffffffffffffffffffffffff\n      and\n      0xffffffffffffffffffffffffffffffffffffffff\n      and\n      dup2\n      mstore\n      0x20\n      add\n      swap1\n      0x01\n      add\n      swap1\n      dup1\n      dup4\n      gt\n      tag_98\n      jumpi\n    tag_97:\n      pop\n      pop\n      pop\n      pop\n      pop\n      swap2\n      pop\n      dup1\n      dup1\n      sload\n      dup1\n      0x20\n      mul\n      0x20\n      add\n      mload(0x40)\n      swap1\n      dup2\n      add\n      0x40\n      mstore\n      dup1\n      swap3\n      swap2\n      swap1\n      dup2\n      dup2\n      mstore\n      0x20\n      add\n      dup3\n      dup1\n      sload\n      dup1\n      iszero\n      tag_99\n      jumpi\n      0x20\n      mul\n      dup3\n      add\n      swap2\n      swap1\n      0x00\n      mstore\n      keccak256(0x00, 0x20)\n      swap1\n    tag_100:\n      dup2\n      sload\n      dup2\n      mstore\n      0x20\n      add\n      swap1\n      0x01\n      add\n      swap1\n      dup1\n      dup4\n      gt\n      tag_100\n      jumpi\n    tag_99:\n      pop\n      pop\n      pop\n      pop\n      pop\n      swap1\n      pop\n      swap10\n      pop\n      swap10\n      pop\n      swap10\n      pop\n      swap10\n      pop\n      swap10\n      pop\n      swap10\n      pop\n      swap10\n      pop\n      swap10\n      pop\n      swap10\n      pop\n      pop\n        /* \"contracts/Crowdfunding.sol\":2985:3407  function getCampaign(uint256 _id) public view returns (address, string memory, string memory, uint256, uint256, uint256, string memory, address[] memory, uint256[] memory) {... */\n      swap2\n      swap4\n      swap6\n      swap8\n      swap10\n      swap1\n      swap3\n      swap5\n      swap7\n      swap9\n      pop\n      jump\t// out\n        /* \"contracts/Crowdfunding.sol\":2243:2977  function claimRefund(uint256 _id) public {... */\n    tag_39:\n        /* \"contracts/Crowdfunding.sol\":2295:2320  Campaign storage campaign */\n      0x00\n        /* \"contracts/Crowdfunding.sol\":2323:2332  Campaigns */\n      dup1\n        /* \"contracts/Crowdfunding.sol\":2323:2337  Campaigns[_id] */\n      0x00\n        /* \"contracts/Crowdfunding.sol\":2333:2336  _id */\n      dup4\n        /* \"contracts/Crowdfunding.sol\":2323:2337  Campaigns[_id] */\n      dup2\n      mstore\n      0x20\n      add\n      swap1\n      dup2\n      mstore\n      0x20\n      add\n      0x00\n      keccak256\n        /* \"contracts/Crowdfunding.sol\":2295:2337  Campaign storage campaign = Campaigns[_id] */\n      swap1\n      pop\n        /* \"contracts/Crowdfunding.sol\":2376:2391  block.timestamp */\n      timestamp\n        /* \"contracts/Crowdfunding.sol\":2356:2364  campaign */\n      dup2\n        /* \"contracts/Crowdfunding.sol\":2356:2373  campaign.deadline */\n      0x04\n      add\n      sload\n        /* \"contracts/Crowdfunding.sol\":2356:2391  campaign.deadline < block.timestamp */\n      lt\n        /* \"contracts/Crowdfunding.sol\":2348:2452  require(campaign.deadline < block.timestamp, \"Refunds can only be claimed after the campaign deadline.\") */\n      tag_102\n      jumpi\n      mload(0x40)\n      0x08c379a000000000000000000000000000000000000000000000000000000000\n      dup2\n      mstore\n      0x04\n      add\n      tag_103\n      swap1\n      tag_104\n      jump\t// in\n    tag_103:\n      mload(0x40)\n      dup1\n      swap2\n      sub\n      swap1\n      revert\n    tag_102:\n        /* \"contracts/Crowdfunding.sol\":2498:2506  campaign */\n      dup1\n        /* \"contracts/Crowdfunding.sol\":2498:2513  campaign.target */\n      0x03\n      add\n      sload\n        /* \"contracts/Crowdfunding.sol\":2471:2479  campaign */\n      dup2\n        /* \"contracts/Crowdfunding.sol\":2471:2495  campaign.amountCollected */\n      0x05\n      add\n      sload\n        /* \"contracts/Crowdfunding.sol\":2471:2513  campaign.amountCollected < campaign.target */\n      lt\n        /* \"contracts/Crowdfunding.sol\":2463:2574  require(campaign.amountCollected < campaign.target, \"Refunds are only available if the target is not reached.\") */\n      tag_105\n      jumpi\n      mload(0x40)\n      0x08c379a000000000000000000000000000000000000000000000000000000000\n      dup2\n      mstore\n      0x04\n      add\n      tag_106\n      swap1\n      tag_107\n      jump\t// in\n    tag_106:\n      mload(0x40)\n      dup1\n      swap2\n      sub\n      swap1\n      revert\n    tag_105:\n        /* \"contracts/Crowdfunding.sol\":2587:2609  uint256 amountToRefund */\n      0x00\n        /* \"contracts/Crowdfunding.sol\":2612:2620  campaign */\n      dup2\n        /* \"contracts/Crowdfunding.sol\":2612:2634  campaign.donatedAmount */\n      0x09\n      add\n        /* \"contracts/Crowdfunding.sol\":2612:2646  campaign.donatedAmount[msg.sender] */\n      0x00\n        /* \"contracts/Crowdfunding.sol\":2635:2645  msg.sender */\n      caller\n        /* \"contracts/Crowdfunding.sol\":2612:2646  campaign.donatedAmount[msg.sender] */\n      0xffffffffffffffffffffffffffffffffffffffff\n      and\n      0xffffffffffffffffffffffffffffffffffffffff\n      and\n      dup2\n      mstore\n      0x20\n      add\n      swap1\n      dup2\n      mstore\n      0x20\n      add\n      0x00\n      keccak256\n      sload\n        /* \"contracts/Crowdfunding.sol\":2587:2646  uint256 amountToRefund = campaign.donatedAmount[msg.sender] */\n      swap1\n      pop\n        /* \"contracts/Crowdfunding.sol\":2739:2740  0 */\n      0x00\n        /* \"contracts/Crowdfunding.sol\":2702:2710  campaign */\n      dup3\n        /* \"contracts/Crowdfunding.sol\":2702:2724  campaign.donatedAmount */\n      0x09\n      add\n        /* \"contracts/Crowdfunding.sol\":2702:2736  campaign.donatedAmount[msg.sender] */\n      0x00\n        /* \"contracts/Crowdfunding.sol\":2725:2735  msg.sender */\n      caller\n        /* \"contracts/Crowdfunding.sol\":2702:2736  campaign.donatedAmount[msg.sender] */\n      0xffffffffffffffffffffffffffffffffffffffff\n      and\n      0xffffffffffffffffffffffffffffffffffffffff\n      and\n      dup2\n      mstore\n      0x20\n      add\n      swap1\n      dup2\n      mstore\n      0x20\n      add\n      0x00\n      keccak256\n        /* \"contracts/Crowdfunding.sol\":2702:2740  campaign.donatedAmount[msg.sender] = 0 */\n      dup2\n      swap1\n      sstore\n      pop\n        /* \"contracts/Crowdfunding.sol\":2825:2839  amountToRefund */\n      dup1\n        /* \"contracts/Crowdfunding.sol\":2797:2805  campaign */\n      dup3\n        /* \"contracts/Crowdfunding.sol\":2797:2821  campaign.amountCollected */\n      0x05\n      add\n      0x00\n        /* \"contracts/Crowdfunding.sol\":2797:2839  campaign.amountCollected -= amountToRefund */\n      dup3\n      dup3\n      sload\n      tag_108\n      swap2\n      swap1\n      tag_109\n      jump\t// in\n    tag_108:\n      swap3\n      pop\n      pop\n      dup2\n      swap1\n      sstore\n      pop\n        /* \"contracts/Crowdfunding.sol\":2897:2907  msg.sender */\n      caller\n        /* \"contracts/Crowdfunding.sol\":2889:2917  payable(msg.sender).transfer */\n      0xffffffffffffffffffffffffffffffffffffffff\n      and\n        /* \"contracts/Crowdfunding.sol\":2889:2933  payable(msg.sender).transfer(amountToRefund) */\n      0x08fc\n        /* \"contracts/Crowdfunding.sol\":2918:2932  amountToRefund */\n      dup3\n        /* \"contracts/Crowdfunding.sol\":2889:2933  payable(msg.sender).transfer(amountToRefund) */\n      swap1\n      dup2\n      iszero\n      mul\n      swap1\n      mload(0x40)\n      0x00\n      mload(0x40)\n      dup1\n      dup4\n      sub\n      dup2\n      dup6\n      dup9\n      dup9\n      call\n      swap4\n      pop\n      pop\n      pop\n      pop\n      iszero\n      dup1\n      iszero\n      tag_111\n      jumpi\n      returndatasize\n      0x00\n      dup1\n      returndatacopy\n      revert(0x00, returndatasize)\n    tag_111:\n      pop\n        /* \"contracts/Crowdfunding.sol\":2284:2977  {... */\n      pop\n      pop\n        /* \"contracts/Crowdfunding.sol\":2243:2977  function claimRefund(uint256 _id) public {... */\n      pop\n      jump\t// out\n        /* \"contracts/Crowdfunding.sol\":586:1265  function createCampaign(address _owner, string memory _title, string memory _description, uint256 _target, uint256 _deadline, string memory _image) public returns (uint256) {... */\n    tag_44:\n        /* \"contracts/Crowdfunding.sol\":750:757  uint256 */\n      0x00\n        /* \"contracts/Crowdfunding.sol\":770:795  Campaign storage campaign */\n      dup1\n        /* \"contracts/Crowdfunding.sol\":798:807  Campaigns */\n      0x00\n        /* \"contracts/Crowdfunding.sol\":798:826  Campaigns[numberOfCampaigns] */\n      dup1\n        /* \"contracts/Crowdfunding.sol\":808:825  numberOfCampaigns */\n      sload(0x01)\n        /* \"contracts/Crowdfunding.sol\":798:826  Campaigns[numberOfCampaigns] */\n      dup2\n      mstore\n      0x20\n      add\n      swap1\n      dup2\n      mstore\n      0x20\n      add\n      0x00\n      keccak256\n        /* \"contracts/Crowdfunding.sol\":770:826  Campaign storage campaign = Campaigns[numberOfCampaigns] */\n      swap1\n      pop\n        /* \"contracts/Crowdfunding.sol\":857:872  block.timestamp */\n      timestamp\n        /* \"contracts/Crowdfunding.sol\":845:854  _deadline */\n      dup5\n        /* \"contracts/Crowdfunding.sol\":845:872  _deadline > block.timestamp */\n      gt\n        /* \"contracts/Crowdfunding.sol\":837:921  require(_deadline > block.timestamp, \"The deadline should be a date in the future.\") */\n      tag_113\n      jumpi\n      mload(0x40)\n      0x08c379a000000000000000000000000000000000000000000000000000000000\n      dup2\n      mstore\n      0x04\n      add\n      tag_114\n      swap1\n      tag_115\n      jump\t// in\n    tag_114:\n      mload(0x40)\n      dup1\n      swap2\n      sub\n      swap1\n      revert\n    tag_113:\n        /* \"contracts/Crowdfunding.sol\":949:955  _owner */\n      dup8\n        /* \"contracts/Crowdfunding.sol\":932:940  campaign */\n      dup2\n        /* \"contracts/Crowdfunding.sol\":932:946  campaign.owner */\n      0x00\n      add\n      0x00\n        /* \"contracts/Crowdfunding.sol\":932:955  campaign.owner = _owner */\n      0x0100\n      exp\n      dup2\n      sload\n      dup2\n      0xffffffffffffffffffffffffffffffffffffffff\n      mul\n      not\n      and\n      swap1\n      dup4\n      0xffffffffffffffffffffffffffffffffffffffff\n      and\n      mul\n      or\n      swap1\n      sstore\n      pop\n        /* \"contracts/Crowdfunding.sol\":983:989  _title */\n      dup7\n        /* \"contracts/Crowdfunding.sol\":966:974  campaign */\n      dup2\n        /* \"contracts/Crowdfunding.sol\":966:980  campaign.title */\n      0x01\n      add\n        /* \"contracts/Crowdfunding.sol\":966:989  campaign.title = _title */\n      swap1\n      dup2\n      tag_116\n      swap2\n      swap1\n      tag_117\n      jump\t// in\n    tag_116:\n      pop\n        /* \"contracts/Crowdfunding.sol\":1023:1035  _description */\n      dup6\n        /* \"contracts/Crowdfunding.sol\":1000:1008  campaign */\n      dup2\n        /* \"contracts/Crowdfunding.sol\":1000:1020  campaign.description */\n      0x02\n      add\n        /* \"contracts/Crowdfunding.sol\":1000:1035  campaign.description = _description */\n      swap1\n      dup2\n      tag_118\n      swap2\n      swap1\n      tag_117\n      jump\t// in\n    tag_118:\n      pop\n        /* \"contracts/Crowdfunding.sol\":1064:1071  _target */\n      dup5\n        /* \"contracts/Crowdfunding.sol\":1046:1054  campaign */\n      dup2\n        /* \"contracts/Crowdfunding.sol\":1046:1061  campaign.target */\n      0x03\n      add\n        /* \"contracts/Crowdfunding.sol\":1046:1071  campaign.target = _target */\n      dup2\n      swap1\n      sstore\n      pop\n        /* \"contracts/Crowdfunding.sol\":1102:1111  _deadline */\n      dup4\n        /* \"contracts/Crowdfunding.sol\":1082:1090  campaign */\n      dup2\n        /* \"contracts/Crowdfunding.sol\":1082:1099  campaign.deadline */\n      0x04\n      add\n        /* \"contracts/Crowdfunding.sol\":1082:1111  campaign.deadline = _deadline */\n      dup2\n      swap1\n      sstore\n      pop\n        /* \"contracts/Crowdfunding.sol\":1149:1150  0 */\n      0x00\n        /* \"contracts/Crowdfunding.sol\":1122:1130  campaign */\n      dup2\n        /* \"contracts/Crowdfunding.sol\":1122:1146  campaign.amountCollected */\n      0x05\n      add\n        /* \"contracts/Crowdfunding.sol\":1122:1150  campaign.amountCollected = 0 */\n      dup2\n      swap1\n      sstore\n      pop\n        /* \"contracts/Crowdfunding.sol\":1178:1184  _image */\n      dup3\n        /* \"contracts/Crowdfunding.sol\":1161:1169  campaign */\n      dup2\n        /* \"contracts/Crowdfunding.sol\":1161:1175  campaign.image */\n      0x06\n      add\n        /* \"contracts/Crowdfunding.sol\":1161:1184  campaign.image = _image */\n      swap1\n      dup2\n      tag_119\n      swap2\n      swap1\n      tag_117\n      jump\t// in\n    tag_119:\n      pop\n        /* \"contracts/Crowdfunding.sol\":1197:1214  numberOfCampaigns */\n      0x01\n      0x00\n        /* \"contracts/Crowdfunding.sol\":1197:1216  numberOfCampaigns++ */\n      dup2\n      sload\n      dup1\n      swap3\n      swap2\n      swap1\n      tag_120\n      swap1\n      tag_121\n      jump\t// in\n    tag_120:\n      swap2\n      swap1\n      pop\n      sstore\n      pop\n        /* \"contracts/Crowdfunding.sol\":1256:1257  1 */\n      0x01\n        /* \"contracts/Crowdfunding.sol\":1236:1253  numberOfCampaigns */\n      dup1\n      sload\n        /* \"contracts/Crowdfunding.sol\":1236:1257  numberOfCampaigns - 1 */\n      tag_122\n      swap2\n      swap1\n      tag_109\n      jump\t// in\n    tag_122:\n        /* \"contracts/Crowdfunding.sol\":1229:1257  return numberOfCampaigns - 1 */\n      swap2\n      pop\n      pop\n        /* \"contracts/Crowdfunding.sol\":586:1265  function createCampaign(address _owner, string memory _title, string memory _description, uint256 _target, uint256 _deadline, string memory _image) public returns (uint256) {... */\n      swap7\n      swap6\n      pop\n      pop\n      pop\n      pop\n      pop\n      pop\n      jump\t// out\n        /* \"contracts/Crowdfunding.sol\":3415:3520  function getNumberOfCampaigns() public view returns (uint256) {... */\n    tag_48:\n        /* \"contracts/Crowdfunding.sol\":3468:3475  uint256 */\n      0x00\n        /* \"contracts/Crowdfunding.sol\":3495:3512  numberOfCampaigns */\n      sload(0x01)\n        /* \"contracts/Crowdfunding.sol\":3488:3512  return numberOfCampaigns */\n      swap1\n      pop\n        /* \"contracts/Crowdfunding.sol\":3415:3520  function getNumberOfCampaigns() public view returns (uint256) {... */\n      swap1\n      jump\t// out\n        /* \"#utility.yul\":7:84   */\n    tag_124:\n        /* \"#utility.yul\":44:51   */\n      0x00\n        /* \"#utility.yul\":73:78   */\n      dup2\n        /* \"#utility.yul\":62:78   */\n      swap1\n      pop\n        /* \"#utility.yul\":7:84   */\n      swap2\n      swap1\n      pop\n      jump\t// out\n        /* \"#utility.yul\":90:208   */\n    tag_125:\n        /* \"#utility.yul\":177:201   */\n      tag_194\n        /* \"#utility.yul\":195:200   */\n      dup2\n        /* \"#utility.yul\":177:201   */\n      tag_124\n      jump\t// in\n    tag_194:\n        /* \"#utility.yul\":172:175   */\n      dup3\n        /* \"#utility.yul\":165:202   */\n      mstore\n        /* \"#utility.yul\":90:208   */\n      pop\n      pop\n      jump\t// out\n        /* \"#utility.yul\":214:436   */\n    tag_15:\n        /* \"#utility.yul\":307:311   */\n      0x00\n        /* \"#utility.yul\":345:347   */\n      0x20\n        /* \"#utility.yul\":334:343   */\n      dup3\n        /* \"#utility.yul\":330:348   */\n      add\n        /* \"#utility.yul\":322:348   */\n      swap1\n      pop\n        /* \"#utility.yul\":358:429   */\n      tag_196\n        /* \"#utility.yul\":426:427   */\n      0x00\n        /* \"#utility.yul\":415:424   */\n      dup4\n        /* \"#utility.yul\":411:428   */\n      add\n        /* \"#utility.yul\":402:408   */\n      dup5\n        /* \"#utility.yul\":358:429   */\n      tag_125\n      jump\t// in\n    tag_196:\n        /* \"#utility.yul\":214:436   */\n      swap3\n      swap2\n      pop\n      pop\n      jump\t// out\n        /* \"#utility.yul\":442:517   */\n    tag_126:\n        /* \"#utility.yul\":475:481   */\n      0x00\n        /* \"#utility.yul\":508:510   */\n      0x40\n        /* \"#utility.yul\":502:511   */\n      mload\n        /* \"#utility.yul\":492:511   */\n      swap1\n      pop\n        /* \"#utility.yul\":442:517   */\n      swap1\n      jump\t// out\n        /* \"#utility.yul\":523:640   */\n    tag_127:\n        /* \"#utility.yul\":632:633   */\n      0x00\n        /* \"#utility.yul\":629:630   */\n      dup1\n        /* \"#utility.yul\":622:634   */\n      revert\n        /* \"#utility.yul\":646:763   */\n    tag_128:\n        /* \"#utility.yul\":755:756   */\n      0x00\n        /* \"#utility.yul\":752:753   */\n      dup1\n        /* \"#utility.yul\":745:757   */\n      revert\n        /* \"#utility.yul\":769:891   */\n    tag_129:\n        /* \"#utility.yul\":842:866   */\n      tag_201\n        /* \"#utility.yul\":860:865   */\n      dup2\n        /* \"#utility.yul\":842:866   */\n      tag_124\n      jump\t// in\n    tag_201:\n        /* \"#utility.yul\":835:840   */\n      dup2\n        /* \"#utility.yul\":832:867   */\n      eq\n        /* \"#utility.yul\":822:885   */\n      tag_202\n      jumpi\n        /* \"#utility.yul\":881:882   */\n      0x00\n        /* \"#utility.yul\":878:879   */\n      dup1\n        /* \"#utility.yul\":871:883   */\n      revert\n        /* \"#utility.yul\":822:885   */\n    tag_202:\n        /* \"#utility.yul\":769:891   */\n      pop\n      jump\t// out\n        /* \"#utility.yul\":897:1036   */\n    tag_130:\n        /* \"#utility.yul\":943:948   */\n      0x00\n        /* \"#utility.yul\":981:987   */\n      dup2\n        /* \"#utility.yul\":968:988   */\n      calldataload\n        /* \"#utility.yul\":959:988   */\n      swap1\n      pop\n        /* \"#utility.yul\":997:1030   */\n      tag_204\n        /* \"#utility.yul\":1024:1029   */\n      dup2\n        /* \"#utility.yul\":997:1030   */\n      tag_129\n      jump\t// in\n    tag_204:\n        /* \"#utility.yul\":897:1036   */\n      swap3\n      swap2\n      pop\n      pop\n      jump\t// out\n        /* \"#utility.yul\":1042:1371   */\n    tag_19:\n        /* \"#utility.yul\":1101:1107   */\n      0x00\n        /* \"#utility.yul\":1150:1152   */\n      0x20\n        /* \"#utility.yul\":1138:1147   */\n      dup3\n        /* \"#utility.yul\":1129:1136   */\n      dup5\n        /* \"#utility.yul\":1125:1148   */\n      sub\n        /* \"#utility.yul\":1121:1153   */\n      slt\n        /* \"#utility.yul\":1118:1237   */\n      iszero\n      tag_206\n      jumpi\n        /* \"#utility.yul\":1156:1235   */\n      tag_207\n      tag_127\n      jump\t// in\n    tag_207:\n        /* \"#utility.yul\":1118:1237   */\n    tag_206:\n        /* \"#utility.yul\":1276:1277   */\n      0x00\n        /* \"#utility.yul\":1301:1354   */\n      tag_208\n        /* \"#utility.yul\":1346:1353   */\n      dup5\n        /* \"#utility.yul\":1337:1343   */\n      dup3\n        /* \"#utility.yul\":1326:1335   */\n      dup6\n        /* \"#utility.yul\":1322:1344   */\n      add\n        /* \"#utility.yul\":1301:1354   */\n      tag_130\n      jump\t// in\n    tag_208:\n        /* \"#utility.yul\":1291:1354   */\n      swap2\n      pop\n        /* \"#utility.yul\":1247:1364   */\n      pop\n        /* \"#utility.yul\":1042:1371   */\n      swap3\n      swap2\n      pop\n      pop\n      jump\t// out\n        /* \"#utility.yul\":1377:1503   */\n    tag_131:\n        /* \"#utility.yul\":1414:1421   */\n      0x00\n        /* \"#utility.yul\":1454:1496   */\n      0xffffffffffffffffffffffffffffffffffffffff\n        /* \"#utility.yul\":1447:1452   */\n      dup3\n        /* \"#utility.yul\":1443:1497   */\n      and\n        /* \"#utility.yul\":1432:1497   */\n      swap1\n      pop\n        /* \"#utility.yul\":1377:1503   */\n      swap2\n      swap1\n      pop\n      jump\t// out\n        /* \"#utility.yul\":1509:1605   */\n    tag_132:\n        /* \"#utility.yul\":1546:1553   */\n      0x00\n        /* \"#utility.yul\":1575:1599   */\n      tag_211\n        /* \"#utility.yul\":1593:1598   */\n      dup3\n        /* \"#utility.yul\":1575:1599   */\n      tag_131\n      jump\t// in\n    tag_211:\n        /* \"#utility.yul\":1564:1599   */\n      swap1\n      pop\n        /* \"#utility.yul\":1509:1605   */\n      swap2\n      swap1\n      pop\n      jump\t// out\n        /* \"#utility.yul\":1611:1729   */\n    tag_133:\n        /* \"#utility.yul\":1698:1722   */\n      tag_213\n        /* \"#utility.yul\":1716:1721   */\n      dup2\n        /* \"#utility.yul\":1698:1722   */\n      tag_132\n      jump\t// in\n    tag_213:\n        /* \"#utility.yul\":1693:1696   */\n      dup3\n        /* \"#utility.yul\":1686:1723   */\n      mstore\n        /* \"#utility.yul\":1611:1729   */\n      pop\n      pop\n      jump\t// out\n        /* \"#utility.yul\":1735:1834   */\n    tag_134:\n        /* \"#utility.yul\":1787:1793   */\n      0x00\n        /* \"#utility.yul\":1821:1826   */\n      dup2\n        /* \"#utility.yul\":1815:1827   */\n      mload\n        /* \"#utility.yul\":1805:1827   */\n      swap1\n      pop\n        /* \"#utility.yul\":1735:1834   */\n      swap2\n      swap1\n      pop\n      jump\t// out\n        /* \"#utility.yul\":1840:2009   */\n    tag_135:\n        /* \"#utility.yul\":1924:1935   */\n      0x00\n        /* \"#utility.yul\":1958:1964   */\n      dup3\n        /* \"#utility.yul\":1953:1956   */\n      dup3\n        /* \"#utility.yul\":1946:1965   */\n      mstore\n        /* \"#utility.yul\":1998:2002   */\n      0x20\n        /* \"#utility.yul\":1993:1996   */\n      dup3\n        /* \"#utility.yul\":1989:2003   */\n      add\n        /* \"#utility.yul\":1974:2003   */\n      swap1\n      pop\n        /* \"#utility.yul\":1840:2009   */\n      swap3\n      swap2\n      pop\n      pop\n      jump\t// out\n        /* \"#utility.yul\":2015:2261   */\n    tag_136:\n        /* \"#utility.yul\":2096:2097   */\n      0x00\n        /* \"#utility.yul\":2106:2219   */\n    tag_217:\n        /* \"#utility.yul\":2120:2126   */\n      dup4\n        /* \"#utility.yul\":2117:2118   */\n      dup2\n        /* \"#utility.yul\":2114:2127   */\n      lt\n        /* \"#utility.yul\":2106:2219   */\n      iszero\n      tag_219\n      jumpi\n        /* \"#utility.yul\":2205:2206   */\n      dup1\n        /* \"#utility.yul\":2200:2203   */\n      dup3\n        /* \"#utility.yul\":2196:2207   */\n      add\n        /* \"#utility.yul\":2190:2208   */\n      mload\n        /* \"#utility.yul\":2186:2187   */\n      dup2\n        /* \"#utility.yul\":2181:2184   */\n      dup5\n        /* \"#utility.yul\":2177:2188   */\n      add\n        /* \"#utility.yul\":2170:2209   */\n      mstore\n        /* \"#utility.yul\":2142:2144   */\n      0x20\n        /* \"#utility.yul\":2139:2140   */\n      dup2\n        /* \"#utility.yul\":2135:2145   */\n      add\n        /* \"#utility.yul\":2130:2145   */\n      swap1\n      pop\n        /* \"#utility.yul\":2106:2219   */\n      jump(tag_217)\n    tag_219:\n        /* \"#utility.yul\":2253:2254   */\n      0x00\n        /* \"#utility.yul\":2244:2250   */\n      dup5\n        /* \"#utility.yul\":2239:2242   */\n      dup5\n        /* \"#utility.yul\":2235:2251   */\n      add\n        /* \"#utility.yul\":2228:2255   */\n      mstore\n        /* \"#utility.yul\":2077:2261   */\n      pop\n        /* \"#utility.yul\":2015:2261   */\n      pop\n      pop\n      pop\n      jump\t// out\n        /* \"#utility.yul\":2267:2369   */\n    tag_137:\n        /* \"#utility.yul\":2308:2314   */\n      0x00\n        /* \"#utility.yul\":2359:2361   */\n      0x1f\n        /* \"#utility.yul\":2355:2362   */\n      not\n        /* \"#utility.yul\":2350:2352   */\n      0x1f\n        /* \"#utility.yul\":2343:2348   */\n      dup4\n        /* \"#utility.yul\":2339:2353   */\n      add\n        /* \"#utility.yul\":2335:2363   */\n      and\n        /* \"#utility.yul\":2325:2363   */\n      swap1\n      pop\n        /* \"#utility.yul\":2267:2369   */\n      swap2\n      swap1\n      pop\n      jump\t// out\n        /* \"#utility.yul\":2375:2752   */\n    tag_138:\n        /* \"#utility.yul\":2463:2466   */\n      0x00\n        /* \"#utility.yul\":2491:2530   */\n      tag_222\n        /* \"#utility.yul\":2524:2529   */\n      dup3\n        /* \"#utility.yul\":2491:2530   */\n      tag_134\n      jump\t// in\n    tag_222:\n        /* \"#utility.yul\":2546:2617   */\n      tag_223\n        /* \"#utility.yul\":2610:2616   */\n      dup2\n        /* \"#utility.yul\":2605:2608   */\n      dup6\n        /* \"#utility.yul\":2546:2617   */\n      tag_135\n      jump\t// in\n    tag_223:\n        /* \"#utility.yul\":2539:2617   */\n      swap4\n      pop\n        /* \"#utility.yul\":2626:2691   */\n      tag_224\n        /* \"#utility.yul\":2684:2690   */\n      dup2\n        /* \"#utility.yul\":2679:2682   */\n      dup6\n        /* \"#utility.yul\":2672:2676   */\n      0x20\n        /* \"#utility.yul\":2665:2670   */\n      dup7\n        /* \"#utility.yul\":2661:2677   */\n      add\n        /* \"#utility.yul\":2626:2691   */\n      tag_136\n      jump\t// in\n    tag_224:\n        /* \"#utility.yul\":2716:2745   */\n      tag_225\n        /* \"#utility.yul\":2738:2744   */\n      dup2\n        /* \"#utility.yul\":2716:2745   */\n      tag_137\n      jump\t// in\n    tag_225:\n        /* \"#utility.yul\":2711:2714   */\n      dup5\n        /* \"#utility.yul\":2707:2746   */\n      add\n        /* \"#utility.yul\":2700:2746   */\n      swap2\n      pop\n        /* \"#utility.yul\":2467:2752   */\n      pop\n        /* \"#utility.yul\":2375:2752   */\n      swap3\n      swap2\n      pop\n      pop\n      jump\t// out\n        /* \"#utility.yul\":2758:3917   */\n    tag_26:\n        /* \"#utility.yul\":3079:3083   */\n      0x00\n        /* \"#utility.yul\":3117:3120   */\n      0xe0\n        /* \"#utility.yul\":3106:3115   */\n      dup3\n        /* \"#utility.yul\":3102:3121   */\n      add\n        /* \"#utility.yul\":3094:3121   */\n      swap1\n      pop\n        /* \"#utility.yul\":3131:3202   */\n      tag_227\n        /* \"#utility.yul\":3199:3200   */\n      0x00\n        /* \"#utility.yul\":3188:3197   */\n      dup4\n        /* \"#utility.yul\":3184:3201   */\n      add\n        /* \"#utility.yul\":3175:3181   */\n      dup11\n        /* \"#utility.yul\":3131:3202   */\n      tag_133\n      jump\t// in\n    tag_227:\n        /* \"#utility.yul\":3249:3258   */\n      dup2\n        /* \"#utility.yul\":3243:3247   */\n      dup2\n        /* \"#utility.yul\":3239:3259   */\n      sub\n        /* \"#utility.yul\":3234:3236   */\n      0x20\n        /* \"#utility.yul\":3223:3232   */\n      dup4\n        /* \"#utility.yul\":3219:3237   */\n      add\n        /* \"#utility.yul\":3212:3260   */\n      mstore\n        /* \"#utility.yul\":3277:3355   */\n      tag_228\n        /* \"#utility.yul\":3350:3354   */\n      dup2\n        /* \"#utility.yul\":3341:3347   */\n      dup10\n        /* \"#utility.yul\":3277:3355   */\n      tag_138\n      jump\t// in\n    tag_228:\n        /* \"#utility.yul\":3269:3355   */\n      swap1\n      pop\n        /* \"#utility.yul\":3402:3411   */\n      dup2\n        /* \"#utility.yul\":3396:3400   */\n      dup2\n        /* \"#utility.yul\":3392:3412   */\n      sub\n        /* \"#utility.yul\":3387:3389   */\n      0x40\n        /* \"#utility.yul\":3376:3385   */\n      dup4\n        /* \"#utility.yul\":3372:3390   */\n      add\n        /* \"#utility.yul\":3365:3413   */\n      mstore\n        /* \"#utility.yul\":3430:3508   */\n      tag_229\n        /* \"#utility.yul\":3503:3507   */\n      dup2\n        /* \"#utility.yul\":3494:3500   */\n      dup9\n        /* \"#utility.yul\":3430:3508   */\n      tag_138\n      jump\t// in\n    tag_229:\n        /* \"#utility.yul\":3422:3508   */\n      swap1\n      pop\n        /* \"#utility.yul\":3518:3590   */\n      tag_230\n        /* \"#utility.yul\":3586:3588   */\n      0x60\n        /* \"#utility.yul\":3575:3584   */\n      dup4\n        /* \"#utility.yul\":3571:3589   */\n      add\n        /* \"#utility.yul\":3562:3568   */\n      dup8\n        /* \"#utility.yul\":3518:3590   */\n      tag_125\n      jump\t// in\n    tag_230:\n        /* \"#utility.yul\":3600:3673   */\n      tag_231\n        /* \"#utility.yul\":3668:3671   */\n      0x80\n        /* \"#utility.yul\":3657:3666   */\n      dup4\n        /* \"#utility.yul\":3653:3672   */\n      add\n        /* \"#utility.yul\":3644:3650   */\n      dup7\n        /* \"#utility.yul\":3600:3673   */\n      tag_125\n      jump\t// in\n    tag_231:\n        /* \"#utility.yul\":3683:3756   */\n      tag_232\n        /* \"#utility.yul\":3751:3754   */\n      0xa0\n        /* \"#utility.yul\":3740:3749   */\n      dup4\n        /* \"#utility.yul\":3736:3755   */\n      add\n        /* \"#utility.yul\":3727:3733   */\n      dup6\n        /* \"#utility.yul\":3683:3756   */\n      tag_125\n      jump\t// in\n    tag_232:\n        /* \"#utility.yul\":3804:3813   */\n      dup2\n        /* \"#utility.yul\":3798:3802   */\n      dup2\n        /* \"#utility.yul\":3794:3814   */\n      sub\n        /* \"#utility.yul\":3788:3791   */\n      0xc0\n        /* \"#utility.yul\":3777:3786   */\n      dup4\n        /* \"#utility.yul\":3773:3792   */\n      add\n        /* \"#utility.yul\":3766:3815   */\n      mstore\n        /* \"#utility.yul\":3832:3910   */\n      tag_233\n        /* \"#utility.yul\":3905:3909   */\n      dup2\n        /* \"#utility.yul\":3896:3902   */\n      dup5\n        /* \"#utility.yul\":3832:3910   */\n      tag_138\n      jump\t// in\n    tag_233:\n        /* \"#utility.yul\":3824:3910   */\n      swap1\n      pop\n        /* \"#utility.yul\":2758:3917   */\n      swap9\n      swap8\n      pop\n      pop\n      pop\n      pop\n      pop\n      pop\n      pop\n      pop\n      jump\t// out\n        /* \"#utility.yul\":3923:4037   */\n    tag_139:\n        /* \"#utility.yul\":3990:3996   */\n      0x00\n        /* \"#utility.yul\":4024:4029   */\n      dup2\n        /* \"#utility.yul\":4018:4030   */\n      mload\n        /* \"#utility.yul\":4008:4030   */\n      swap1\n      pop\n        /* \"#utility.yul\":3923:4037   */\n      swap2\n      swap1\n      pop\n      jump\t// out\n        /* \"#utility.yul\":4043:4227   */\n    tag_140:\n        /* \"#utility.yul\":4142:4153   */\n      0x00\n        /* \"#utility.yul\":4176:4182   */\n      dup3\n        /* \"#utility.yul\":4171:4174   */\n      dup3\n        /* \"#utility.yul\":4164:4183   */\n      mstore\n        /* \"#utility.yul\":4216:4220   */\n      0x20\n        /* \"#utility.yul\":4211:4214   */\n      dup3\n        /* \"#utility.yul\":4207:4221   */\n      add\n        /* \"#utility.yul\":4192:4221   */\n      swap1\n      pop\n        /* \"#utility.yul\":4043:4227   */\n      swap3\n      swap2\n      pop\n      pop\n      jump\t// out\n        /* \"#utility.yul\":4233:4365   */\n    tag_141:\n        /* \"#utility.yul\":4300:4304   */\n      0x00\n        /* \"#utility.yul\":4323:4326   */\n      dup2\n        /* \"#utility.yul\":4315:4326   */\n      swap1\n      pop\n        /* \"#utility.yul\":4353:4357   */\n      0x20\n        /* \"#utility.yul\":4348:4351   */\n      dup3\n        /* \"#utility.yul\":4344:4358   */\n      add\n        /* \"#utility.yul\":4336:4358   */\n      swap1\n      pop\n        /* \"#utility.yul\":4233:4365   */\n      swap2\n      swap1\n      pop\n      jump\t// out\n        /* \"#utility.yul\":4371:4479   */\n    tag_142:\n        /* \"#utility.yul\":4448:4472   */\n      tag_238\n        /* \"#utility.yul\":4466:4471   */\n      dup2\n        /* \"#utility.yul\":4448:4472   */\n      tag_132\n      jump\t// in\n    tag_238:\n        /* \"#utility.yul\":4443:4446   */\n      dup3\n        /* \"#utility.yul\":4436:4473   */\n      mstore\n        /* \"#utility.yul\":4371:4479   */\n      pop\n      pop\n      jump\t// out\n        /* \"#utility.yul\":4485:4664   */\n    tag_143:\n        /* \"#utility.yul\":4554:4564   */\n      0x00\n        /* \"#utility.yul\":4575:4621   */\n      tag_240\n        /* \"#utility.yul\":4617:4620   */\n      dup4\n        /* \"#utility.yul\":4609:4615   */\n      dup4\n        /* \"#utility.yul\":4575:4621   */\n      tag_142\n      jump\t// in\n    tag_240:\n        /* \"#utility.yul\":4653:4657   */\n      0x20\n        /* \"#utility.yul\":4648:4651   */\n      dup4\n        /* \"#utility.yul\":4644:4658   */\n      add\n        /* \"#utility.yul\":4630:4658   */\n      swap1\n      pop\n        /* \"#utility.yul\":4485:4664   */\n      swap3\n      swap2\n      pop\n      pop\n      jump\t// out\n        /* \"#utility.yul\":4670:4783   */\n    tag_144:\n        /* \"#utility.yul\":4740:4744   */\n      0x00\n        /* \"#utility.yul\":4772:4776   */\n      0x20\n        /* \"#utility.yul\":4767:4770   */\n      dup3\n        /* \"#utility.yul\":4763:4777   */\n      add\n        /* \"#utility.yul\":4755:4777   */\n      swap1\n      pop\n        /* \"#utility.yul\":4670:4783   */\n      swap2\n      swap1\n      pop\n      jump\t// out\n        /* \"#utility.yul\":4819:5551   */\n    tag_145:\n        /* \"#utility.yul\":4938:4941   */\n      0x00\n        /* \"#utility.yul\":4967:5021   */\n      tag_243\n        /* \"#utility.yul\":5015:5020   */\n      dup3\n        /* \"#utility.yul\":4967:5021   */\n      tag_139\n      jump\t// in\n    tag_243:\n        /* \"#utility.yul\":5037:5123   */\n      tag_244\n        /* \"#utility.yul\":5116:5122   */\n      dup2\n        /* \"#utility.yul\":5111:5114   */\n      dup6\n        /* \"#utility.yul\":5037:5123   */\n      tag_140\n      jump\t// in\n    tag_244:\n        /* \"#utility.yul\":5030:5123   */\n      swap4\n      pop\n        /* \"#utility.yul\":5147:5203   */\n      tag_245\n        /* \"#utility.yul\":5197:5202   */\n      dup4\n        /* \"#utility.yul\":5147:5203   */\n      tag_141\n      jump\t// in\n    tag_245:\n        /* \"#utility.yul\":5226:5233   */\n      dup1\n        /* \"#utility.yul\":5257:5258   */\n      0x00\n        /* \"#utility.yul\":5242:5526   */\n    tag_246:\n        /* \"#utility.yul\":5267:5273   */\n      dup4\n        /* \"#utility.yul\":5264:5265   */\n      dup2\n        /* \"#utility.yul\":5261:5274   */\n      lt\n        /* \"#utility.yul\":5242:5526   */\n      iszero\n      tag_248\n      jumpi\n        /* \"#utility.yul\":5343:5349   */\n      dup2\n        /* \"#utility.yul\":5337:5350   */\n      mload\n        /* \"#utility.yul\":5370:5433   */\n      tag_249\n        /* \"#utility.yul\":5429:5432   */\n      dup9\n        /* \"#utility.yul\":5414:5427   */\n      dup3\n        /* \"#utility.yul\":5370:5433   */\n      tag_143\n      jump\t// in\n    tag_249:\n        /* \"#utility.yul\":5363:5433   */\n      swap8\n      pop\n        /* \"#utility.yul\":5456:5516   */\n      tag_250\n        /* \"#utility.yul\":5509:5515   */\n      dup4\n        /* \"#utility.yul\":5456:5516   */\n      tag_144\n      jump\t// in\n    tag_250:\n        /* \"#utility.yul\":5446:5516   */\n      swap3\n      pop\n        /* \"#utility.yul\":5302:5526   */\n      pop\n        /* \"#utility.yul\":5289:5290   */\n      0x01\n        /* \"#utility.yul\":5286:5287   */\n      dup2\n        /* \"#utility.yul\":5282:5291   */\n      add\n        /* \"#utility.yul\":5277:5291   */\n      swap1\n      pop\n        /* \"#utility.yul\":5242:5526   */\n      jump(tag_246)\n    tag_248:\n        /* \"#utility.yul\":5246:5260   */\n      pop\n        /* \"#utility.yul\":5542:5545   */\n      dup6\n        /* \"#utility.yul\":5535:5545   */\n      swap4\n      pop\n        /* \"#utility.yul\":4943:5551   */\n      pop\n      pop\n      pop\n        /* \"#utility.yul\":4819:5551   */\n      swap3\n      swap2\n      pop\n      pop\n      jump\t// out\n        /* \"#utility.yul\":5557:5671   */\n    tag_146:\n        /* \"#utility.yul\":5624:5630   */\n      0x00\n        /* \"#utility.yul\":5658:5663   */\n      dup2\n        /* \"#utility.yul\":5652:5664   */\n      mload\n        /* \"#utility.yul\":5642:5664   */\n      swap1\n      pop\n        /* \"#utility.yul\":5557:5671   */\n      swap2\n      swap1\n      pop\n      jump\t// out\n        /* \"#utility.yul\":5677:5861   */\n    tag_147:\n        /* \"#utility.yul\":5776:5787   */\n      0x00\n        /* \"#utility.yul\":5810:5816   */\n      dup3\n        /* \"#utility.yul\":5805:5808   */\n      dup3\n        /* \"#utility.yul\":5798:5817   */\n      mstore\n        /* \"#utility.yul\":5850:5854   */\n      0x20\n        /* \"#utility.yul\":5845:5848   */\n      dup3\n        /* \"#utility.yul\":5841:5855   */\n      add\n        /* \"#utility.yul\":5826:5855   */\n      swap1\n      pop\n        /* \"#utility.yul\":5677:5861   */\n      swap3\n      swap2\n      pop\n      pop\n      jump\t// out\n        /* \"#utility.yul\":5867:5999   */\n    tag_148:\n        /* \"#utility.yul\":5934:5938   */\n      0x00\n        /* \"#utility.yul\":5957:5960   */\n      dup2\n        /* \"#utility.yul\":5949:5960   */\n      swap1\n      pop\n        /* \"#utility.yul\":5987:5991   */\n      0x20\n        /* \"#utility.yul\":5982:5985   */\n      dup3\n        /* \"#utility.yul\":5978:5992   */\n      add\n        /* \"#utility.yul\":5970:5992   */\n      swap1\n      pop\n        /* \"#utility.yul\":5867:5999   */\n      swap2\n      swap1\n      pop\n      jump\t// out\n        /* \"#utility.yul\":6005:6113   */\n    tag_149:\n        /* \"#utility.yul\":6082:6106   */\n      tag_255\n        /* \"#utility.yul\":6100:6105   */\n      dup2\n        /* \"#utility.yul\":6082:6106   */\n      tag_124\n      jump\t// in\n    tag_255:\n        /* \"#utility.yul\":6077:6080   */\n      dup3\n        /* \"#utility.yul\":6070:6107   */\n      mstore\n        /* \"#utility.yul\":6005:6113   */\n      pop\n      pop\n      jump\t// out\n        /* \"#utility.yul\":6119:6298   */\n    tag_150:\n        /* \"#utility.yul\":6188:6198   */\n      0x00\n        /* \"#utility.yul\":6209:6255   */\n      tag_257\n        /* \"#utility.yul\":6251:6254   */\n      dup4\n        /* \"#utility.yul\":6243:6249   */\n      dup4\n        /* \"#utility.yul\":6209:6255   */\n      tag_149\n      jump\t// in\n    tag_257:\n        /* \"#utility.yul\":6287:6291   */\n      0x20\n        /* \"#utility.yul\":6282:6285   */\n      dup4\n        /* \"#utility.yul\":6278:6292   */\n      add\n        /* \"#utility.yul\":6264:6292   */\n      swap1\n      pop\n        /* \"#utility.yul\":6119:6298   */\n      swap3\n      swap2\n      pop\n      pop\n      jump\t// out\n        /* \"#utility.yul\":6304:6417   */\n    tag_151:\n        /* \"#utility.yul\":6374:6378   */\n      0x00\n        /* \"#utility.yul\":6406:6410   */\n      0x20\n        /* \"#utility.yul\":6401:6404   */\n      dup3\n        /* \"#utility.yul\":6397:6411   */\n      add\n        /* \"#utility.yul\":6389:6411   */\n      swap1\n      pop\n        /* \"#utility.yul\":6304:6417   */\n      swap2\n      swap1\n      pop\n      jump\t// out\n        /* \"#utility.yul\":6453:7185   */\n    tag_152:\n        /* \"#utility.yul\":6572:6575   */\n      0x00\n        /* \"#utility.yul\":6601:6655   */\n      tag_260\n        /* \"#utility.yul\":6649:6654   */\n      dup3\n        /* \"#utility.yul\":6601:6655   */\n      tag_146\n      jump\t// in\n    tag_260:\n        /* \"#utility.yul\":6671:6757   */\n      tag_261\n        /* \"#utility.yul\":6750:6756   */\n      dup2\n        /* \"#utility.yul\":6745:6748   */\n      dup6\n        /* \"#utility.yul\":6671:6757   */\n      tag_147\n      jump\t// in\n    tag_261:\n        /* \"#utility.yul\":6664:6757   */\n      swap4\n      pop\n        /* \"#utility.yul\":6781:6837   */\n      tag_262\n        /* \"#utility.yul\":6831:6836   */\n      dup4\n        /* \"#utility.yul\":6781:6837   */\n      tag_148\n      jump\t// in\n    tag_262:\n        /* \"#utility.yul\":6860:6867   */\n      dup1\n        /* \"#utility.yul\":6891:6892   */\n      0x00\n        /* \"#utility.yul\":6876:7160   */\n    tag_263:\n        /* \"#utility.yul\":6901:6907   */\n      dup4\n        /* \"#utility.yul\":6898:6899   */\n      dup2\n        /* \"#utility.yul\":6895:6908   */\n      lt\n        /* \"#utility.yul\":6876:7160   */\n      iszero\n      tag_265\n      jumpi\n        /* \"#utility.yul\":6977:6983   */\n      dup2\n        /* \"#utility.yul\":6971:6984   */\n      mload\n        /* \"#utility.yul\":7004:7067   */\n      tag_266\n        /* \"#utility.yul\":7063:7066   */\n      dup9\n        /* \"#utility.yul\":7048:7061   */\n      dup3\n        /* \"#utility.yul\":7004:7067   */\n      tag_150\n      jump\t// in\n    tag_266:\n        /* \"#utility.yul\":6997:7067   */\n      swap8\n      pop\n        /* \"#utility.yul\":7090:7150   */\n      tag_267\n        /* \"#utility.yul\":7143:7149   */\n      dup4\n        /* \"#utility.yul\":7090:7150   */\n      tag_151\n      jump\t// in\n    tag_267:\n        /* \"#utility.yul\":7080:7150   */\n      swap3\n      pop\n        /* \"#utility.yul\":6936:7160   */\n      pop\n        /* \"#utility.yul\":6923:6924   */\n      0x01\n        /* \"#utility.yul\":6920:6921   */\n      dup2\n        /* \"#utility.yul\":6916:6925   */\n      add\n        /* \"#utility.yul\":6911:6925   */\n      swap1\n      pop\n        /* \"#utility.yul\":6876:7160   */\n      jump(tag_263)\n    tag_265:\n        /* \"#utility.yul\":6880:6894   */\n      pop\n        /* \"#utility.yul\":7176:7179   */\n      dup6\n        /* \"#utility.yul\":7169:7179   */\n      swap4\n      pop\n        /* \"#utility.yul\":6577:7185   */\n      pop\n      pop\n      pop\n        /* \"#utility.yul\":6453:7185   */\n      swap3\n      swap2\n      pop\n      pop\n      jump\t// out\n        /* \"#utility.yul\":7191:8874   */\n    tag_35:\n        /* \"#utility.yul\":7668:7672   */\n      0x00\n        /* \"#utility.yul\":7706:7709   */\n      0x0120\n        /* \"#utility.yul\":7695:7704   */\n      dup3\n        /* \"#utility.yul\":7691:7710   */\n      add\n        /* \"#utility.yul\":7683:7710   */\n      swap1\n      pop\n        /* \"#utility.yul\":7720:7791   */\n      tag_269\n        /* \"#utility.yul\":7788:7789   */\n      0x00\n        /* \"#utility.yul\":7777:7786   */\n      dup4\n        /* \"#utility.yul\":7773:7790   */\n      add\n        /* \"#utility.yul\":7764:7770   */\n      dup13\n        /* \"#utility.yul\":7720:7791   */\n      tag_133\n      jump\t// in\n    tag_269:\n        /* \"#utility.yul\":7838:7847   */\n      dup2\n        /* \"#utility.yul\":7832:7836   */\n      dup2\n        /* \"#utility.yul\":7828:7848   */\n      sub\n        /* \"#utility.yul\":7823:7825   */\n      0x20\n        /* \"#utility.yul\":7812:7821   */\n      dup4\n        /* \"#utility.yul\":7808:7826   */\n      add\n        /* \"#utility.yul\":7801:7849   */\n      mstore\n        /* \"#utility.yul\":7866:7944   */\n      tag_270\n        /* \"#utility.yul\":7939:7943   */\n      dup2\n        /* \"#utility.yul\":7930:7936   */\n      dup12\n        /* \"#utility.yul\":7866:7944   */\n      tag_138\n      jump\t// in\n    tag_270:\n        /* \"#utility.yul\":7858:7944   */\n      swap1\n      pop\n        /* \"#utility.yul\":7991:8000   */\n      dup2\n        /* \"#utility.yul\":7985:7989   */\n      dup2\n        /* \"#utility.yul\":7981:8001   */\n      sub\n        /* \"#utility.yul\":7976:7978   */\n      0x40\n        /* \"#utility.yul\":7965:7974   */\n      dup4\n        /* \"#utility.yul\":7961:7979   */\n      add\n        /* \"#utility.yul\":7954:8002   */\n      mstore\n        /* \"#utility.yul\":8019:8097   */\n      tag_271\n        /* \"#utility.yul\":8092:8096   */\n      dup2\n        /* \"#utility.yul\":8083:8089   */\n      dup11\n        /* \"#utility.yul\":8019:8097   */\n      tag_138\n      jump\t// in\n    tag_271:\n        /* \"#utility.yul\":8011:8097   */\n      swap1\n      pop\n        /* \"#utility.yul\":8107:8179   */\n      tag_272\n        /* \"#utility.yul\":8175:8177   */\n      0x60\n        /* \"#utility.yul\":8164:8173   */\n      dup4\n        /* \"#utility.yul\":8160:8178   */\n      add\n        /* \"#utility.yul\":8151:8157   */\n      dup10\n        /* \"#utility.yul\":8107:8179   */\n      tag_125\n      jump\t// in\n    tag_272:\n        /* \"#utility.yul\":8189:8262   */\n      tag_273\n        /* \"#utility.yul\":8257:8260   */\n      0x80\n        /* \"#utility.yul\":8246:8255   */\n      dup4\n        /* \"#utility.yul\":8242:8261   */\n      add\n        /* \"#utility.yul\":8233:8239   */\n      dup9\n        /* \"#utility.yul\":8189:8262   */\n      tag_125\n      jump\t// in\n    tag_273:\n        /* \"#utility.yul\":8272:8345   */\n      tag_274\n        /* \"#utility.yul\":8340:8343   */\n      0xa0\n        /* \"#utility.yul\":8329:8338   */\n      dup4\n        /* \"#utility.yul\":8325:8344   */\n      add\n        /* \"#utility.yul\":8316:8322   */\n      dup8\n        /* \"#utility.yul\":8272:8345   */\n      tag_125\n      jump\t// in\n    tag_274:\n        /* \"#utility.yul\":8393:8402   */\n      dup2\n        /* \"#utility.yul\":8387:8391   */\n      dup2\n        /* \"#utility.yul\":8383:8403   */\n      sub\n        /* \"#utility.yul\":8377:8380   */\n      0xc0\n        /* \"#utility.yul\":8366:8375   */\n      dup4\n        /* \"#utility.yul\":8362:8381   */\n      add\n        /* \"#utility.yul\":8355:8404   */\n      mstore\n        /* \"#utility.yul\":8421:8499   */\n      tag_275\n        /* \"#utility.yul\":8494:8498   */\n      dup2\n        /* \"#utility.yul\":8485:8491   */\n      dup7\n        /* \"#utility.yul\":8421:8499   */\n      tag_138\n      jump\t// in\n    tag_275:\n        /* \"#utility.yul\":8413:8499   */\n      swap1\n      pop\n        /* \"#utility.yul\":8547:8556   */\n      dup2\n        /* \"#utility.yul\":8541:8545   */\n      dup2\n        /* \"#utility.yul\":8537:8557   */\n      sub\n        /* \"#utility.yul\":8531:8534   */\n      0xe0\n        /* \"#utility.yul\":8520:8529   */\n      dup4\n        /* \"#utility.yul\":8516:8535   */\n      add\n        /* \"#utility.yul\":8509:8558   */\n      mstore\n        /* \"#utility.yul\":8575:8683   */\n      tag_276\n        /* \"#utility.yul\":8678:8682   */\n      dup2\n        /* \"#utility.yul\":8669:8675   */\n      dup6\n        /* \"#utility.yul\":8575:8683   */\n      tag_145\n      jump\t// in\n    tag_276:\n        /* \"#utility.yul\":8567:8683   */\n      swap1\n      pop\n        /* \"#utility.yul\":8731:8740   */\n      dup2\n        /* \"#utility.yul\":8725:8729   */\n      dup2\n        /* \"#utility.yul\":8721:8741   */\n      sub\n        /* \"#utility.yul\":8715:8718   */\n      0x0100\n        /* \"#utility.yul\":8704:8713   */\n      dup4\n        /* \"#utility.yul\":8700:8719   */\n      add\n        /* \"#utility.yul\":8693:8742   */\n      mstore\n        /* \"#utility.yul\":8759:8867   */\n      tag_277\n        /* \"#utility.yul\":8862:8866   */\n      dup2\n        /* \"#utility.yul\":8853:8859   */\n      dup5\n        /* \"#utility.yul\":8759:8867   */\n      tag_152\n      jump\t// in\n    tag_277:\n        /* \"#utility.yul\":8751:8867   */\n      swap1\n      pop\n        /* \"#utility.yul\":7191:8874   */\n      swap11\n      swap10\n      pop\n      pop\n      pop\n      pop\n      pop\n      pop\n      pop\n      pop\n      pop\n      pop\n      jump\t// out\n        /* \"#utility.yul\":8880:9002   */\n    tag_153:\n        /* \"#utility.yul\":8953:8977   */\n      tag_279\n        /* \"#utility.yul\":8971:8976   */\n      dup2\n        /* \"#utility.yul\":8953:8977   */\n      tag_132\n      jump\t// in\n    tag_279:\n        /* \"#utility.yul\":8946:8951   */\n      dup2\n        /* \"#utility.yul\":8943:8978   */\n      eq\n        /* \"#utility.yul\":8933:8996   */\n      tag_280\n      jumpi\n        /* \"#utility.yul\":8992:8993   */\n      0x00\n        /* \"#utility.yul\":8989:8990   */\n      dup1\n        /* \"#utility.yul\":8982:8994   */\n      revert\n        /* \"#utility.yul\":8933:8996   */\n    tag_280:\n        /* \"#utility.yul\":8880:9002   */\n      pop\n      jump\t// out\n        /* \"#utility.yul\":9008:9147   */\n    tag_154:\n        /* \"#utility.yul\":9054:9059   */\n      0x00\n        /* \"#utility.yul\":9092:9098   */\n      dup2\n        /* \"#utility.yul\":9079:9099   */\n      calldataload\n        /* \"#utility.yul\":9070:9099   */\n      swap1\n      pop\n        /* \"#utility.yul\":9108:9141   */\n      tag_282\n        /* \"#utility.yul\":9135:9140   */\n      dup2\n        /* \"#utility.yul\":9108:9141   */\n      tag_153\n      jump\t// in\n    tag_282:\n        /* \"#utility.yul\":9008:9147   */\n      swap3\n      swap2\n      pop\n      pop\n      jump\t// out\n        /* \"#utility.yul\":9153:9270   */\n    tag_155:\n        /* \"#utility.yul\":9262:9263   */\n      0x00\n        /* \"#utility.yul\":9259:9260   */\n      dup1\n        /* \"#utility.yul\":9252:9264   */\n      revert\n        /* \"#utility.yul\":9276:9393   */\n    tag_156:\n        /* \"#utility.yul\":9385:9386   */\n      0x00\n        /* \"#utility.yul\":9382:9383   */\n      dup1\n        /* \"#utility.yul\":9375:9387   */\n      revert\n        /* \"#utility.yul\":9399:9579   */\n    tag_157:\n        /* \"#utility.yul\":9447:9524   */\n      0x4e487b7100000000000000000000000000000000000000000000000000000000\n        /* \"#utility.yul\":9444:9445   */\n      0x00\n        /* \"#utility.yul\":9437:9525   */\n      mstore\n        /* \"#utility.yul\":9544:9548   */\n      0x41\n        /* \"#utility.yul\":9541:9542   */\n      0x04\n        /* \"#utility.yul\":9534:9549   */\n      mstore\n        /* \"#utility.yul\":9568:9572   */\n      0x24\n        /* \"#utility.yul\":9565:9566   */\n      0x00\n        /* \"#utility.yul\":9558:9573   */\n      revert\n        /* \"#utility.yul\":9585:9866   */\n    tag_158:\n        /* \"#utility.yul\":9668:9695   */\n      tag_287\n        /* \"#utility.yul\":9690:9694   */\n      dup3\n        /* \"#utility.yul\":9668:9695   */\n      tag_137\n      jump\t// in\n    tag_287:\n        /* \"#utility.yul\":9660:9666   */\n      dup2\n        /* \"#utility.yul\":9656:9696   */\n      add\n        /* \"#utility.yul\":9798:9804   */\n      dup2\n        /* \"#utility.yul\":9786:9796   */\n      dup2\n        /* \"#utility.yul\":9783:9805   */\n      lt\n        /* \"#utility.yul\":9762:9780   */\n      0xffffffffffffffff\n        /* \"#utility.yul\":9750:9760   */\n      dup3\n        /* \"#utility.yul\":9747:9781   */\n      gt\n        /* \"#utility.yul\":9744:9806   */\n      or\n        /* \"#utility.yul\":9741:9829   */\n      iszero\n      tag_288\n      jumpi\n        /* \"#utility.yul\":9809:9827   */\n      tag_289\n      tag_157\n      jump\t// in\n    tag_289:\n        /* \"#utility.yul\":9741:9829   */\n    tag_288:\n        /* \"#utility.yul\":9849:9859   */\n      dup1\n        /* \"#utility.yul\":9845:9847   */\n      0x40\n        /* \"#utility.yul\":9838:9860   */\n      mstore\n        /* \"#utility.yul\":9628:9866   */\n      pop\n        /* \"#utility.yul\":9585:9866   */\n      pop\n      pop\n      jump\t// out\n        /* \"#utility.yul\":9872:10001   */\n    tag_159:\n        /* \"#utility.yul\":9906:9912   */\n      0x00\n        /* \"#utility.yul\":9933:9953   */\n      tag_291\n      tag_126\n      jump\t// in\n    tag_291:\n        /* \"#utility.yul\":9923:9953   */\n      swap1\n      pop\n        /* \"#utility.yul\":9962:9995   */\n      tag_292\n        /* \"#utility.yul\":9990:9994   */\n      dup3\n        /* \"#utility.yul\":9982:9988   */\n      dup3\n        /* \"#utility.yul\":9962:9995   */\n      tag_158\n      jump\t// in\n    tag_292:\n        /* \"#utility.yul\":9872:10001   */\n      swap2\n      swap1\n      pop\n      jump\t// out\n        /* \"#utility.yul\":10007:10315   */\n    tag_160:\n        /* \"#utility.yul\":10069:10073   */\n      0x00\n        /* \"#utility.yul\":10159:10177   */\n      0xffffffffffffffff\n        /* \"#utility.yul\":10151:10157   */\n      dup3\n        /* \"#utility.yul\":10148:10178   */\n      gt\n        /* \"#utility.yul\":10145:10201   */\n      iszero\n      tag_294\n      jumpi\n        /* \"#utility.yul\":10181:10199   */\n      tag_295\n      tag_157\n      jump\t// in\n    tag_295:\n        /* \"#utility.yul\":10145:10201   */\n    tag_294:\n        /* \"#utility.yul\":10219:10248   */\n      tag_296\n        /* \"#utility.yul\":10241:10247   */\n      dup3\n        /* \"#utility.yul\":10219:10248   */\n      tag_137\n      jump\t// in\n    tag_296:\n        /* \"#utility.yul\":10211:10248   */\n      swap1\n      pop\n        /* \"#utility.yul\":10303:10307   */\n      0x20\n        /* \"#utility.yul\":10297:10301   */\n      dup2\n        /* \"#utility.yul\":10293:10308   */\n      add\n        /* \"#utility.yul\":10285:10308   */\n      swap1\n      pop\n        /* \"#utility.yul\":10007:10315   */\n      swap2\n      swap1\n      pop\n      jump\t// out\n        /* \"#utility.yul\":10321:10467   */\n    tag_161:\n        /* \"#utility.yul\":10418:10424   */\n      dup3\n        /* \"#utility.yul\":10413:10416   */\n      dup2\n        /* \"#utility.yul\":10408:10411   */\n      dup4\n        /* \"#utility.yul\":10395:10425   */\n      calldatacopy\n        /* \"#utility.yul\":10459:10460   */\n      0x00\n        /* \"#utility.yul\":10450:10456   */\n      dup4\n        /* \"#utility.yul\":10445:10448   */\n      dup4\n        /* \"#utility.yul\":10441:10457   */\n      add\n        /* \"#utility.yul\":10434:10461   */\n      mstore\n        /* \"#utility.yul\":10321:10467   */\n      pop\n      pop\n      pop\n      jump\t// out\n        /* \"#utility.yul\":10473:10898   */\n    tag_162:\n        /* \"#utility.yul\":10551:10556   */\n      0x00\n        /* \"#utility.yul\":10576:10642   */\n      tag_299\n        /* \"#utility.yul\":10592:10641   */\n      tag_300\n        /* \"#utility.yul\":10634:10640   */\n      dup5\n        /* \"#utility.yul\":10592:10641   */\n      tag_160\n      jump\t// in\n    tag_300:\n        /* \"#utility.yul\":10576:10642   */\n      tag_159\n      jump\t// in\n    tag_299:\n        /* \"#utility.yul\":10567:10642   */\n      swap1\n      pop\n        /* \"#utility.yul\":10665:10671   */\n      dup3\n        /* \"#utility.yul\":10658:10663   */\n      dup2\n        /* \"#utility.yul\":10651:10672   */\n      mstore\n        /* \"#utility.yul\":10703:10707   */\n      0x20\n        /* \"#utility.yul\":10696:10701   */\n      dup2\n        /* \"#utility.yul\":10692:10708   */\n      add\n        /* \"#utility.yul\":10741:10744   */\n      dup5\n        /* \"#utility.yul\":10732:10738   */\n      dup5\n        /* \"#utility.yul\":10727:10730   */\n      dup5\n        /* \"#utility.yul\":10723:10739   */\n      add\n        /* \"#utility.yul\":10720:10745   */\n      gt\n        /* \"#utility.yul\":10717:10829   */\n      iszero\n      tag_301\n      jumpi\n        /* \"#utility.yul\":10748:10827   */\n      tag_302\n      tag_156\n      jump\t// in\n    tag_302:\n        /* \"#utility.yul\":10717:10829   */\n    tag_301:\n        /* \"#utility.yul\":10838:10892   */\n      tag_303\n        /* \"#utility.yul\":10885:10891   */\n      dup5\n        /* \"#utility.yul\":10880:10883   */\n      dup3\n        /* \"#utility.yul\":10875:10878   */\n      dup6\n        /* \"#utility.yul\":10838:10892   */\n      tag_161\n      jump\t// in\n    tag_303:\n        /* \"#utility.yul\":10557:10898   */\n      pop\n        /* \"#utility.yul\":10473:10898   */\n      swap4\n      swap3\n      pop\n      pop\n      pop\n      jump\t// out\n        /* \"#utility.yul\":10918:11258   */\n    tag_163:\n        /* \"#utility.yul\":10974:10979   */\n      0x00\n        /* \"#utility.yul\":11023:11026   */\n      dup3\n        /* \"#utility.yul\":11016:11020   */\n      0x1f\n        /* \"#utility.yul\":11008:11014   */\n      dup4\n        /* \"#utility.yul\":11004:11021   */\n      add\n        /* \"#utility.yul\":11000:11027   */\n      slt\n        /* \"#utility.yul\":10990:11112   */\n      tag_305\n      jumpi\n        /* \"#utility.yul\":11031:11110   */\n      tag_306\n      tag_155\n      jump\t// in\n    tag_306:\n        /* \"#utility.yul\":10990:11112   */\n    tag_305:\n        /* \"#utility.yul\":11148:11154   */\n      dup2\n        /* \"#utility.yul\":11135:11155   */\n      calldataload\n        /* \"#utility.yul\":11173:11252   */\n      tag_307\n        /* \"#utility.yul\":11248:11251   */\n      dup5\n        /* \"#utility.yul\":11240:11246   */\n      dup3\n        /* \"#utility.yul\":11233:11237   */\n      0x20\n        /* \"#utility.yul\":11225:11231   */\n      dup7\n        /* \"#utility.yul\":11221:11238   */\n      add\n        /* \"#utility.yul\":11173:11252   */\n      tag_162\n      jump\t// in\n    tag_307:\n        /* \"#utility.yul\":11164:11252   */\n      swap2\n      pop\n        /* \"#utility.yul\":10980:11258   */\n      pop\n        /* \"#utility.yul\":10918:11258   */\n      swap3\n      swap2\n      pop\n      pop\n      jump\t// out\n        /* \"#utility.yul\":11264:12861   */\n    tag_43:\n        /* \"#utility.yul\":11398:11404   */\n      0x00\n        /* \"#utility.yul\":11406:11412   */\n      dup1\n        /* \"#utility.yul\":11414:11420   */\n      0x00\n        /* \"#utility.yul\":11422:11428   */\n      dup1\n        /* \"#utility.yul\":11430:11436   */\n      0x00\n        /* \"#utility.yul\":11438:11444   */\n      dup1\n        /* \"#utility.yul\":11487:11490   */\n      0xc0\n        /* \"#utility.yul\":11475:11484   */\n      dup8\n        /* \"#utility.yul\":11466:11473   */\n      dup10\n        /* \"#utility.yul\":11462:11485   */\n      sub\n        /* \"#utility.yul\":11458:11491   */\n      slt\n        /* \"#utility.yul\":11455:11575   */\n      iszero\n      tag_309\n      jumpi\n        /* \"#utility.yul\":11494:11573   */\n      tag_310\n      tag_127\n      jump\t// in\n    tag_310:\n        /* \"#utility.yul\":11455:11575   */\n    tag_309:\n        /* \"#utility.yul\":11614:11615   */\n      0x00\n        /* \"#utility.yul\":11639:11692   */\n      tag_311\n        /* \"#utility.yul\":11684:11691   */\n      dup10\n        /* \"#utility.yul\":11675:11681   */\n      dup3\n        /* \"#utility.yul\":11664:11673   */\n      dup11\n        /* \"#utility.yul\":11660:11682   */\n      add\n        /* \"#utility.yul\":11639:11692   */\n      tag_154\n      jump\t// in\n    tag_311:\n        /* \"#utility.yul\":11629:11692   */\n      swap7\n      pop\n        /* \"#utility.yul\":11585:11702   */\n      pop\n        /* \"#utility.yul\":11769:11771   */\n      0x20\n        /* \"#utility.yul\":11758:11767   */\n      dup8\n        /* \"#utility.yul\":11754:11772   */\n      add\n        /* \"#utility.yul\":11741:11773   */\n      calldataload\n        /* \"#utility.yul\":11800:11818   */\n      0xffffffffffffffff\n        /* \"#utility.yul\":11792:11798   */\n      dup2\n        /* \"#utility.yul\":11789:11819   */\n      gt\n        /* \"#utility.yul\":11786:11903   */\n      iszero\n      tag_312\n      jumpi\n        /* \"#utility.yul\":11822:11901   */\n      tag_313\n      tag_128\n      jump\t// in\n    tag_313:\n        /* \"#utility.yul\":11786:11903   */\n    tag_312:\n        /* \"#utility.yul\":11927:11990   */\n      tag_314\n        /* \"#utility.yul\":11982:11989   */\n      dup10\n        /* \"#utility.yul\":11973:11979   */\n      dup3\n        /* \"#utility.yul\":11962:11971   */\n      dup11\n        /* \"#utility.yul\":11958:11980   */\n      add\n        /* \"#utility.yul\":11927:11990   */\n      tag_163\n      jump\t// in\n    tag_314:\n        /* \"#utility.yul\":11917:11990   */\n      swap6\n      pop\n        /* \"#utility.yul\":11712:12000   */\n      pop\n        /* \"#utility.yul\":12067:12069   */\n      0x40\n        /* \"#utility.yul\":12056:12065   */\n      dup8\n        /* \"#utility.yul\":12052:12070   */\n      add\n        /* \"#utility.yul\":12039:12071   */\n      calldataload\n        /* \"#utility.yul\":12098:12116   */\n      0xffffffffffffffff\n        /* \"#utility.yul\":12090:12096   */\n      dup2\n        /* \"#utility.yul\":12087:12117   */\n      gt\n        /* \"#utility.yul\":12084:12201   */\n      iszero\n      tag_315\n      jumpi\n        /* \"#utility.yul\":12120:12199   */\n      tag_316\n      tag_128\n      jump\t// in\n    tag_316:\n        /* \"#utility.yul\":12084:12201   */\n    tag_315:\n        /* \"#utility.yul\":12225:12288   */\n      tag_317\n        /* \"#utility.yul\":12280:12287   */\n      dup10\n        /* \"#utility.yul\":12271:12277   */\n      dup3\n        /* \"#utility.yul\":12260:12269   */\n      dup11\n        /* \"#utility.yul\":12256:12278   */\n      add\n        /* \"#utility.yul\":12225:12288   */\n      tag_163\n      jump\t// in\n    tag_317:\n        /* \"#utility.yul\":12215:12288   */\n      swap5\n      pop\n        /* \"#utility.yul\":12010:12298   */\n      pop\n        /* \"#utility.yul\":12337:12339   */\n      0x60\n        /* \"#utility.yul\":12363:12416   */\n      tag_318\n        /* \"#utility.yul\":12408:12415   */\n      dup10\n        /* \"#utility.yul\":12399:12405   */\n      dup3\n        /* \"#utility.yul\":12388:12397   */\n      dup11\n        /* \"#utility.yul\":12384:12406   */\n      add\n        /* \"#utility.yul\":12363:12416   */\n      tag_130\n      jump\t// in\n    tag_318:\n        /* \"#utility.yul\":12353:12416   */\n      swap4\n      pop\n        /* \"#utility.yul\":12308:12426   */\n      pop\n        /* \"#utility.yul\":12465:12468   */\n      0x80\n        /* \"#utility.yul\":12492:12545   */\n      tag_319\n        /* \"#utility.yul\":12537:12544   */\n      dup10\n        /* \"#utility.yul\":12528:12534   */\n      dup3\n        /* \"#utility.yul\":12517:12526   */\n      dup11\n        /* \"#utility.yul\":12513:12535   */\n      add\n        /* \"#utility.yul\":12492:12545   */\n      tag_130\n      jump\t// in\n    tag_319:\n        /* \"#utility.yul\":12482:12545   */\n      swap3\n      pop\n        /* \"#utility.yul\":12436:12555   */\n      pop\n        /* \"#utility.yul\":12622:12625   */\n      0xa0\n        /* \"#utility.yul\":12611:12620   */\n      dup8\n        /* \"#utility.yul\":12607:12626   */\n      add\n        /* \"#utility.yul\":12594:12627   */\n      calldataload\n        /* \"#utility.yul\":12654:12672   */\n      0xffffffffffffffff\n        /* \"#utility.yul\":12646:12652   */\n      dup2\n        /* \"#utility.yul\":12643:12673   */\n      gt\n        /* \"#utility.yul\":12640:12757   */\n      iszero\n      tag_320\n      jumpi\n        /* \"#utility.yul\":12676:12755   */\n      tag_321\n      tag_128\n      jump\t// in\n    tag_321:\n        /* \"#utility.yul\":12640:12757   */\n    tag_320:\n        /* \"#utility.yul\":12781:12844   */\n      tag_322\n        /* \"#utility.yul\":12836:12843   */\n      dup10\n        /* \"#utility.yul\":12827:12833   */\n      dup3\n        /* \"#utility.yul\":12816:12825   */\n      dup11\n        /* \"#utility.yul\":12812:12834   */\n      add\n        /* \"#utility.yul\":12781:12844   */\n      tag_163\n      jump\t// in\n    tag_322:\n        /* \"#utility.yul\":12771:12844   */\n      swap2\n      pop\n        /* \"#utility.yul\":12565:12854   */\n      pop\n        /* \"#utility.yul\":11264:12861   */\n      swap3\n      swap6\n      pop\n      swap3\n      swap6\n      pop\n      swap3\n      swap6\n      jump\t// out\n        /* \"#utility.yul\":12867:13097   */\n    tag_164:\n        /* \"#utility.yul\":13007:13041   */\n      0x4f6e6c79207468652063616d706169676e206f776e65722063616e2077697468\n        /* \"#utility.yul\":13003:13004   */\n      0x00\n        /* \"#utility.yul\":12995:13001   */\n      dup3\n        /* \"#utility.yul\":12991:13005   */\n      add\n        /* \"#utility.yul\":12984:13042   */\n      mstore\n        /* \"#utility.yul\":13076:13089   */\n      0x647261772066756e64732e000000000000000000000000000000000000000000\n        /* \"#utility.yul\":13071:13073   */\n      0x20\n        /* \"#utility.yul\":13063:13069   */\n      dup3\n        /* \"#utility.yul\":13059:13074   */\n      add\n        /* \"#utility.yul\":13052:13090   */\n      mstore\n        /* \"#utility.yul\":12867:13097   */\n      pop\n      jump\t// out\n        /* \"#utility.yul\":13103:13469   */\n    tag_165:\n        /* \"#utility.yul\":13245:13248   */\n      0x00\n        /* \"#utility.yul\":13266:13333   */\n      tag_325\n        /* \"#utility.yul\":13330:13332   */\n      0x2b\n        /* \"#utility.yul\":13325:13328   */\n      dup4\n        /* \"#utility.yul\":13266:13333   */\n      tag_135\n      jump\t// in\n    tag_325:\n        /* \"#utility.yul\":13259:13333   */\n      swap2\n      pop\n        /* \"#utility.yul\":13342:13435   */\n      tag_326\n        /* \"#utility.yul\":13431:13434   */\n      dup3\n        /* \"#utility.yul\":13342:13435   */\n      tag_164\n      jump\t// in\n    tag_326:\n        /* \"#utility.yul\":13460:13462   */\n      0x40\n        /* \"#utility.yul\":13455:13458   */\n      dup3\n        /* \"#utility.yul\":13451:13463   */\n      add\n        /* \"#utility.yul\":13444:13463   */\n      swap1\n      pop\n        /* \"#utility.yul\":13103:13469   */\n      swap2\n      swap1\n      pop\n      jump\t// out\n        /* \"#utility.yul\":13475:13894   */\n    tag_53:\n        /* \"#utility.yul\":13641:13645   */\n      0x00\n        /* \"#utility.yul\":13679:13681   */\n      0x20\n        /* \"#utility.yul\":13668:13677   */\n      dup3\n        /* \"#utility.yul\":13664:13682   */\n      add\n        /* \"#utility.yul\":13656:13682   */\n      swap1\n      pop\n        /* \"#utility.yul\":13728:13737   */\n      dup2\n        /* \"#utility.yul\":13722:13726   */\n      dup2\n        /* \"#utility.yul\":13718:13738   */\n      sub\n        /* \"#utility.yul\":13714:13715   */\n      0x00\n        /* \"#utility.yul\":13703:13712   */\n      dup4\n        /* \"#utility.yul\":13699:13716   */\n      add\n        /* \"#utility.yul\":13692:13739   */\n      mstore\n        /* \"#utility.yul\":13756:13887   */\n      tag_328\n        /* \"#utility.yul\":13882:13886   */\n      dup2\n        /* \"#utility.yul\":13756:13887   */\n      tag_165\n      jump\t// in\n    tag_328:\n        /* \"#utility.yul\":13748:13887   */\n      swap1\n      pop\n        /* \"#utility.yul\":13475:13894   */\n      swap2\n      swap1\n      pop\n      jump\t// out\n        /* \"#utility.yul\":13900:14141   */\n    tag_166:\n        /* \"#utility.yul\":14040:14074   */\n      0x46756e64732063616e6e6f742062652077697468647261776e20756e74696c20\n        /* \"#utility.yul\":14036:14037   */\n      0x00\n        /* \"#utility.yul\":14028:14034   */\n      dup3\n        /* \"#utility.yul\":14024:14038   */\n      add\n        /* \"#utility.yul\":14017:14075   */\n      mstore\n        /* \"#utility.yul\":14109:14133   */\n      0x7468652074617267657420697320726561636865642e00000000000000000000\n        /* \"#utility.yul\":14104:14106   */\n      0x20\n        /* \"#utility.yul\":14096:14102   */\n      dup3\n        /* \"#utility.yul\":14092:14107   */\n      add\n        /* \"#utility.yul\":14085:14134   */\n      mstore\n        /* \"#utility.yul\":13900:14141   */\n      pop\n      jump\t// out\n        /* \"#utility.yul\":14147:14513   */\n    tag_167:\n        /* \"#utility.yul\":14289:14292   */\n      0x00\n        /* \"#utility.yul\":14310:14377   */\n      tag_331\n        /* \"#utility.yul\":14374:14376   */\n      0x36\n        /* \"#utility.yul\":14369:14372   */\n      dup4\n        /* \"#utility.yul\":14310:14377   */\n      tag_135\n      jump\t// in\n    tag_331:\n        /* \"#utility.yul\":14303:14377   */\n      swap2\n      pop\n        /* \"#utility.yul\":14386:14479   */\n      tag_332\n        /* \"#utility.yul\":14475:14478   */\n      dup3\n        /* \"#utility.yul\":14386:14479   */\n      tag_166\n      jump\t// in\n    tag_332:\n        /* \"#utility.yul\":14504:14506   */\n      0x40\n        /* \"#utility.yul\":14499:14502   */\n      dup3\n        /* \"#utility.yul\":14495:14507   */\n      add\n        /* \"#utility.yul\":14488:14507   */\n      swap1\n      pop\n        /* \"#utility.yul\":14147:14513   */\n      swap2\n      swap1\n      pop\n      jump\t// out\n        /* \"#utility.yul\":14519:14938   */\n    tag_56:\n        /* \"#utility.yul\":14685:14689   */\n      0x00\n        /* \"#utility.yul\":14723:14725   */\n      0x20\n        /* \"#utility.yul\":14712:14721   */\n      dup3\n        /* \"#utility.yul\":14708:14726   */\n      add\n        /* \"#utility.yul\":14700:14726   */\n      swap1\n      pop\n        /* \"#utility.yul\":14772:14781   */\n      dup2\n        /* \"#utility.yul\":14766:14770   */\n      dup2\n        /* \"#utility.yul\":14762:14782   */\n      sub\n        /* \"#utility.yul\":14758:14759   */\n      0x00\n        /* \"#utility.yul\":14747:14756   */\n      dup4\n        /* \"#utility.yul\":14743:14760   */\n      add\n        /* \"#utility.yul\":14736:14783   */\n      mstore\n        /* \"#utility.yul\":14800:14931   */\n      tag_334\n        /* \"#utility.yul\":14926:14930   */\n      dup2\n        /* \"#utility.yul\":14800:14931   */\n      tag_167\n      jump\t// in\n    tag_334:\n        /* \"#utility.yul\":14792:14931   */\n      swap1\n      pop\n        /* \"#utility.yul\":14519:14938   */\n      swap2\n      swap1\n      pop\n      jump\t// out\n        /* \"#utility.yul\":14944:15124   */\n    tag_168:\n        /* \"#utility.yul\":14992:15069   */\n      0x4e487b7100000000000000000000000000000000000000000000000000000000\n        /* \"#utility.yul\":14989:14990   */\n      0x00\n        /* \"#utility.yul\":14982:15070   */\n      mstore\n        /* \"#utility.yul\":15089:15093   */\n      0x22\n        /* \"#utility.yul\":15086:15087   */\n      0x04\n        /* \"#utility.yul\":15079:15094   */\n      mstore\n        /* \"#utility.yul\":15113:15117   */\n      0x24\n        /* \"#utility.yul\":15110:15111   */\n      0x00\n        /* \"#utility.yul\":15103:15118   */\n      revert\n        /* \"#utility.yul\":15130:15450   */\n    tag_60:\n        /* \"#utility.yul\":15174:15180   */\n      0x00\n        /* \"#utility.yul\":15211:15212   */\n      0x02\n        /* \"#utility.yul\":15205:15209   */\n      dup3\n        /* \"#utility.yul\":15201:15213   */\n      div\n        /* \"#utility.yul\":15191:15213   */\n      swap1\n      pop\n        /* \"#utility.yul\":15258:15259   */\n      0x01\n        /* \"#utility.yul\":15252:15256   */\n      dup3\n        /* \"#utility.yul\":15248:15260   */\n      and\n        /* \"#utility.yul\":15279:15297   */\n      dup1\n        /* \"#utility.yul\":15269:15350   */\n      tag_337\n      jumpi\n        /* \"#utility.yul\":15335:15339   */\n      0x7f\n        /* \"#utility.yul\":15327:15333   */\n      dup3\n        /* \"#utility.yul\":15323:15340   */\n      and\n        /* \"#utility.yul\":15313:15340   */\n      swap2\n      pop\n        /* \"#utility.yul\":15269:15350   */\n    tag_337:\n        /* \"#utility.yul\":15397:15399   */\n      0x20\n        /* \"#utility.yul\":15389:15395   */\n      dup3\n        /* \"#utility.yul\":15386:15400   */\n      lt\n        /* \"#utility.yul\":15366:15384   */\n      dup2\n        /* \"#utility.yul\":15363:15401   */\n      sub\n        /* \"#utility.yul\":15360:15444   */\n      tag_338\n      jumpi\n        /* \"#utility.yul\":15416:15434   */\n      tag_339\n      tag_168\n      jump\t// in\n    tag_339:\n        /* \"#utility.yul\":15360:15444   */\n    tag_338:\n        /* \"#utility.yul\":15181:15450   */\n      pop\n        /* \"#utility.yul\":15130:15450   */\n      swap2\n      swap1\n      pop\n      jump\t// out\n        /* \"#utility.yul\":15456:15636   */\n    tag_169:\n        /* \"#utility.yul\":15504:15581   */\n      0x4e487b7100000000000000000000000000000000000000000000000000000000\n        /* \"#utility.yul\":15501:15502   */\n      0x00\n        /* \"#utility.yul\":15494:15582   */\n      mstore\n        /* \"#utility.yul\":15601:15605   */\n      0x11\n        /* \"#utility.yul\":15598:15599   */\n      0x04\n        /* \"#utility.yul\":15591:15606   */\n      mstore\n        /* \"#utility.yul\":15625:15629   */\n      0x24\n        /* \"#utility.yul\":15622:15623   */\n      0x00\n        /* \"#utility.yul\":15615:15630   */\n      revert\n        /* \"#utility.yul\":15642:15833   */\n    tag_79:\n        /* \"#utility.yul\":15682:15685   */\n      0x00\n        /* \"#utility.yul\":15701:15721   */\n      tag_342\n        /* \"#utility.yul\":15719:15720   */\n      dup3\n        /* \"#utility.yul\":15701:15721   */\n      tag_124\n      jump\t// in\n    tag_342:\n        /* \"#utility.yul\":15696:15721   */\n      swap2\n      pop\n        /* \"#utility.yul\":15735:15755   */\n      tag_343\n        /* \"#utility.yul\":15753:15754   */\n      dup4\n        /* \"#utility.yul\":15735:15755   */\n      tag_124\n      jump\t// in\n    tag_343:\n        /* \"#utility.yul\":15730:15755   */\n      swap3\n      pop\n        /* \"#utility.yul\":15778:15779   */\n      dup3\n        /* \"#utility.yul\":15775:15776   */\n      dup3\n        /* \"#utility.yul\":15771:15780   */\n      add\n        /* \"#utility.yul\":15764:15780   */\n      swap1\n      pop\n        /* \"#utility.yul\":15799:15802   */\n      dup1\n        /* \"#utility.yul\":15796:15797   */\n      dup3\n        /* \"#utility.yul\":15793:15803   */\n      gt\n        /* \"#utility.yul\":15790:15826   */\n      iszero\n      tag_344\n      jumpi\n        /* \"#utility.yul\":15806:15824   */\n      tag_345\n      tag_169\n      jump\t// in\n    tag_345:\n        /* \"#utility.yul\":15790:15826   */\n    tag_344:\n        /* \"#utility.yul\":15642:15833   */\n      swap3\n      swap2\n      pop\n      pop\n      jump\t// out\n        /* \"#utility.yul\":15839:16082   */\n    tag_170:\n        /* \"#utility.yul\":15979:16013   */\n      0x526566756e64732063616e206f6e6c7920626520636c61696d65642061667465\n        /* \"#utility.yul\":15975:15976   */\n      0x00\n        /* \"#utility.yul\":15967:15973   */\n      dup3\n        /* \"#utility.yul\":15963:15977   */\n      add\n        /* \"#utility.yul\":15956:16014   */\n      mstore\n        /* \"#utility.yul\":16048:16074   */\n      0x72207468652063616d706169676e20646561646c696e652e0000000000000000\n        /* \"#utility.yul\":16043:16045   */\n      0x20\n        /* \"#utility.yul\":16035:16041   */\n      dup3\n        /* \"#utility.yul\":16031:16046   */\n      add\n        /* \"#utility.yul\":16024:16075   */\n      mstore\n        /* \"#utility.yul\":15839:16082   */\n      pop\n      jump\t// out\n        /* \"#utility.yul\":16088:16454   */\n    tag_171:\n        /* \"#utility.yul\":16230:16233   */\n      0x00\n        /* \"#utility.yul\":16251:16318   */\n      tag_348\n        /* \"#utility.yul\":16315:16317   */\n      0x38\n        /* \"#utility.yul\":16310:16313   */\n      dup4\n        /* \"#utility.yul\":16251:16318   */\n      tag_135\n      jump\t// in\n    tag_348:\n        /* \"#utility.yul\":16244:16318   */\n      swap2\n      pop\n        /* \"#utility.yul\":16327:16420   */\n      tag_349\n        /* \"#utility.yul\":16416:16419   */\n      dup3\n        /* \"#utility.yul\":16327:16420   */\n      tag_170\n      jump\t// in\n    tag_349:\n        /* \"#utility.yul\":16445:16447   */\n      0x40\n        /* \"#utility.yul\":16440:16443   */\n      dup3\n        /* \"#utility.yul\":16436:16448   */\n      add\n        /* \"#utility.yul\":16429:16448   */\n      swap1\n      pop\n        /* \"#utility.yul\":16088:16454   */\n      swap2\n      swap1\n      pop\n      jump\t// out\n        /* \"#utility.yul\":16460:16879   */\n    tag_104:\n        /* \"#utility.yul\":16626:16630   */\n      0x00\n        /* \"#utility.yul\":16664:16666   */\n      0x20\n        /* \"#utility.yul\":16653:16662   */\n      dup3\n        /* \"#utility.yul\":16649:16667   */\n      add\n        /* \"#utility.yul\":16641:16667   */\n      swap1\n      pop\n        /* \"#utility.yul\":16713:16722   */\n      dup2\n        /* \"#utility.yul\":16707:16711   */\n      dup2\n        /* \"#utility.yul\":16703:16723   */\n      sub\n        /* \"#utility.yul\":16699:16700   */\n      0x00\n        /* \"#utility.yul\":16688:16697   */\n      dup4\n        /* \"#utility.yul\":16684:16701   */\n      add\n        /* \"#utility.yul\":16677:16724   */\n      mstore\n        /* \"#utility.yul\":16741:16872   */\n      tag_351\n        /* \"#utility.yul\":16867:16871   */\n      dup2\n        /* \"#utility.yul\":16741:16872   */\n      tag_171\n      jump\t// in\n    tag_351:\n        /* \"#utility.yul\":16733:16872   */\n      swap1\n      pop\n        /* \"#utility.yul\":16460:16879   */\n      swap2\n      swap1\n      pop\n      jump\t// out\n        /* \"#utility.yul\":16885:17128   */\n    tag_172:\n        /* \"#utility.yul\":17025:17059   */\n      0x526566756e647320617265206f6e6c7920617661696c61626c65206966207468\n        /* \"#utility.yul\":17021:17022   */\n      0x00\n        /* \"#utility.yul\":17013:17019   */\n      dup3\n        /* \"#utility.yul\":17009:17023   */\n      add\n        /* \"#utility.yul\":17002:17060   */\n      mstore\n        /* \"#utility.yul\":17094:17120   */\n      0x6520746172676574206973206e6f7420726561636865642e0000000000000000\n        /* \"#utility.yul\":17089:17091   */\n      0x20\n        /* \"#utility.yul\":17081:17087   */\n      dup3\n        /* \"#utility.yul\":17077:17092   */\n      add\n        /* \"#utility.yul\":17070:17121   */\n      mstore\n        /* \"#utility.yul\":16885:17128   */\n      pop\n      jump\t// out\n        /* \"#utility.yul\":17134:17500   */\n    tag_173:\n        /* \"#utility.yul\":17276:17279   */\n      0x00\n        /* \"#utility.yul\":17297:17364   */\n      tag_354\n        /* \"#utility.yul\":17361:17363   */\n      0x38\n        /* \"#utility.yul\":17356:17359   */\n      dup4\n        /* \"#utility.yul\":17297:17364   */\n      tag_135\n      jump\t// in\n    tag_354:\n        /* \"#utility.yul\":17290:17364   */\n      swap2\n      pop\n        /* \"#utility.yul\":17373:17466   */\n      tag_355\n        /* \"#utility.yul\":17462:17465   */\n      dup3\n        /* \"#utility.yul\":17373:17466   */\n      tag_172\n      jump\t// in\n    tag_355:\n        /* \"#utility.yul\":17491:17493   */\n      0x40\n        /* \"#utility.yul\":17486:17489   */\n      dup3\n        /* \"#utility.yul\":17482:17494   */\n      add\n        /* \"#utility.yul\":17475:17494   */\n      swap1\n      pop\n        /* \"#utility.yul\":17134:17500   */\n      swap2\n      swap1\n      pop\n      jump\t// out\n        /* \"#utility.yul\":17506:17925   */\n    tag_107:\n        /* \"#utility.yul\":17672:17676   */\n      0x00\n        /* \"#utility.yul\":17710:17712   */\n      0x20\n        /* \"#utility.yul\":17699:17708   */\n      dup3\n        /* \"#utility.yul\":17695:17713   */\n      add\n        /* \"#utility.yul\":17687:17713   */\n      swap1\n      pop\n        /* \"#utility.yul\":17759:17768   */\n      dup2\n        /* \"#utility.yul\":17753:17757   */\n      dup2\n        /* \"#utility.yul\":17749:17769   */\n      sub\n        /* \"#utility.yul\":17745:17746   */\n      0x00\n        /* \"#utility.yul\":17734:17743   */\n      dup4\n        /* \"#utility.yul\":17730:17747   */\n      add\n        /* \"#utility.yul\":17723:17770   */\n      mstore\n        /* \"#utility.yul\":17787:17918   */\n      tag_357\n        /* \"#utility.yul\":17913:17917   */\n      dup2\n        /* \"#utility.yul\":17787:17918   */\n      tag_173\n      jump\t// in\n    tag_357:\n        /* \"#utility.yul\":17779:17918   */\n      swap1\n      pop\n        /* \"#utility.yul\":17506:17925   */\n      swap2\n      swap1\n      pop\n      jump\t// out\n        /* \"#utility.yul\":17931:18125   */\n    tag_109:\n        /* \"#utility.yul\":17971:17975   */\n      0x00\n        /* \"#utility.yul\":17991:18011   */\n      tag_359\n        /* \"#utility.yul\":18009:18010   */\n      dup3\n        /* \"#utility.yul\":17991:18011   */\n      tag_124\n      jump\t// in\n    tag_359:\n        /* \"#utility.yul\":17986:18011   */\n      swap2\n      pop\n        /* \"#utility.yul\":18025:18045   */\n      tag_360\n        /* \"#utility.yul\":18043:18044   */\n      dup4\n        /* \"#utility.yul\":18025:18045   */\n      tag_124\n      jump\t// in\n    tag_360:\n        /* \"#utility.yul\":18020:18045   */\n      swap3\n      pop\n        /* \"#utility.yul\":18069:18070   */\n      dup3\n        /* \"#utility.yul\":18066:18067   */\n      dup3\n        /* \"#utility.yul\":18062:18071   */\n      sub\n        /* \"#utility.yul\":18054:18071   */\n      swap1\n      pop\n        /* \"#utility.yul\":18093:18094   */\n      dup2\n        /* \"#utility.yul\":18087:18091   */\n      dup2\n        /* \"#utility.yul\":18084:18095   */\n      gt\n        /* \"#utility.yul\":18081:18118   */\n      iszero\n      tag_361\n      jumpi\n        /* \"#utility.yul\":18098:18116   */\n      tag_362\n      tag_169\n      jump\t// in\n    tag_362:\n        /* \"#utility.yul\":18081:18118   */\n    tag_361:\n        /* \"#utility.yul\":17931:18125   */\n      swap3\n      swap2\n      pop\n      pop\n      jump\t// out\n        /* \"#utility.yul\":18131:18362   */\n    tag_174:\n        /* \"#utility.yul\":18271:18305   */\n      0x54686520646561646c696e652073686f756c642062652061206461746520696e\n        /* \"#utility.yul\":18267:18268   */\n      0x00\n        /* \"#utility.yul\":18259:18265   */\n      dup3\n        /* \"#utility.yul\":18255:18269   */\n      add\n        /* \"#utility.yul\":18248:18306   */\n      mstore\n        /* \"#utility.yul\":18340:18354   */\n      0x20746865206675747572652e0000000000000000000000000000000000000000\n        /* \"#utility.yul\":18335:18337   */\n      0x20\n        /* \"#utility.yul\":18327:18333   */\n      dup3\n        /* \"#utility.yul\":18323:18338   */\n      add\n        /* \"#utility.yul\":18316:18355   */\n      mstore\n        /* \"#utility.yul\":18131:18362   */\n      pop\n      jump\t// out\n        /* \"#utility.yul\":18368:18734   */\n    tag_175:\n        /* \"#utility.yul\":18510:18513   */\n      0x00\n        /* \"#utility.yul\":18531:18598   */\n      tag_365\n        /* \"#utility.yul\":18595:18597   */\n      0x2c\n        /* \"#utility.yul\":18590:18593   */\n      dup4\n        /* \"#utility.yul\":18531:18598   */\n      tag_135\n      jump\t// in\n    tag_365:\n        /* \"#utility.yul\":18524:18598   */\n      swap2\n      pop\n        /* \"#utility.yul\":18607:18700   */\n      tag_366\n        /* \"#utility.yul\":18696:18699   */\n      dup3\n        /* \"#utility.yul\":18607:18700   */\n      tag_174\n      jump\t// in\n    tag_366:\n        /* \"#utility.yul\":18725:18727   */\n      0x40\n        /* \"#utility.yul\":18720:18723   */\n      dup3\n        /* \"#utility.yul\":18716:18728   */\n      add\n        /* \"#utility.yul\":18709:18728   */\n      swap1\n      pop\n        /* \"#utility.yul\":18368:18734   */\n      swap2\n      swap1\n      pop\n      jump\t// out\n        /* \"#utility.yul\":18740:19159   */\n    tag_115:\n        /* \"#utility.yul\":18906:18910   */\n      0x00\n        /* \"#utility.yul\":18944:18946   */\n      0x20\n        /* \"#utility.yul\":18933:18942   */\n      dup3\n        /* \"#utility.yul\":18929:18947   */\n      add\n        /* \"#utility.yul\":18921:18947   */\n      swap1\n      pop\n        /* \"#utility.yul\":18993:19002   */\n      dup2\n        /* \"#utility.yul\":18987:18991   */\n      dup2\n        /* \"#utility.yul\":18983:19003   */\n      sub\n        /* \"#utility.yul\":18979:18980   */\n      0x00\n        /* \"#utility.yul\":18968:18977   */\n      dup4\n        /* \"#utility.yul\":18964:18981   */\n      add\n        /* \"#utility.yul\":18957:19004   */\n      mstore\n        /* \"#utility.yul\":19021:19152   */\n      tag_368\n        /* \"#utility.yul\":19147:19151   */\n      dup2\n        /* \"#utility.yul\":19021:19152   */\n      tag_175\n      jump\t// in\n    tag_368:\n        /* \"#utility.yul\":19013:19152   */\n      swap1\n      pop\n        /* \"#utility.yul\":18740:19159   */\n      swap2\n      swap1\n      pop\n      jump\t// out\n        /* \"#utility.yul\":19165:19306   */\n    tag_176:\n        /* \"#utility.yul\":19214:19218   */\n      0x00\n        /* \"#utility.yul\":19237:19240   */\n      dup2\n        /* \"#utility.yul\":19229:19240   */\n      swap1\n      pop\n        /* \"#utility.yul\":19260:19263   */\n      dup2\n        /* \"#utility.yul\":19257:19258   */\n      0x00\n        /* \"#utility.yul\":19250:19264   */\n      mstore\n        /* \"#utility.yul\":19294:19298   */\n      0x20\n        /* \"#utility.yul\":19291:19292   */\n      0x00\n        /* \"#utility.yul\":19281:19299   */\n      keccak256\n        /* \"#utility.yul\":19273:19299   */\n      swap1\n      pop\n        /* \"#utility.yul\":19165:19306   */\n      swap2\n      swap1\n      pop\n      jump\t// out\n        /* \"#utility.yul\":19312:19405   */\n    tag_177:\n        /* \"#utility.yul\":19349:19355   */\n      0x00\n        /* \"#utility.yul\":19396:19398   */\n      0x20\n        /* \"#utility.yul\":19391:19393   */\n      0x1f\n        /* \"#utility.yul\":19384:19389   */\n      dup4\n        /* \"#utility.yul\":19380:19394   */\n      add\n        /* \"#utility.yul\":19376:19399   */\n      div\n        /* \"#utility.yul\":19366:19399   */\n      swap1\n      pop\n        /* \"#utility.yul\":19312:19405   */\n      swap2\n      swap1\n      pop\n      jump\t// out\n        /* \"#utility.yul\":19411:19518   */\n    tag_178:\n        /* \"#utility.yul\":19455:19463   */\n      0x00\n        /* \"#utility.yul\":19505:19510   */\n      dup3\n        /* \"#utility.yul\":19499:19503   */\n      dup3\n        /* \"#utility.yul\":19495:19511   */\n      shl\n        /* \"#utility.yul\":19474:19511   */\n      swap1\n      pop\n        /* \"#utility.yul\":19411:19518   */\n      swap3\n      swap2\n      pop\n      pop\n      jump\t// out\n        /* \"#utility.yul\":19524:19917   */\n    tag_179:\n        /* \"#utility.yul\":19593:19599   */\n      0x00\n        /* \"#utility.yul\":19643:19644   */\n      0x08\n        /* \"#utility.yul\":19631:19641   */\n      dup4\n        /* \"#utility.yul\":19627:19645   */\n      mul\n        /* \"#utility.yul\":19666:19763   */\n      tag_373\n        /* \"#utility.yul\":19696:19762   */\n      0xffffffffffffffffffffffffffffffffffffffffffffffffffffffffffffffff\n        /* \"#utility.yul\":19685:19694   */\n      dup3\n        /* \"#utility.yul\":19666:19763   */\n      tag_178\n      jump\t// in\n    tag_373:\n        /* \"#utility.yul\":19784:19823   */\n      tag_374\n        /* \"#utility.yul\":19814:19822   */\n      dup7\n        /* \"#utility.yul\":19803:19812   */\n      dup4\n        /* \"#utility.yul\":19784:19823   */\n      tag_178\n      jump\t// in\n    tag_374:\n        /* \"#utility.yul\":19772:19823   */\n      swap6\n      pop\n        /* \"#utility.yul\":19856:19860   */\n      dup1\n        /* \"#utility.yul\":19852:19861   */\n      not\n        /* \"#utility.yul\":19845:19850   */\n      dup5\n        /* \"#utility.yul\":19841:19862   */\n      and\n        /* \"#utility.yul\":19832:19862   */\n      swap4\n      pop\n        /* \"#utility.yul\":19905:19909   */\n      dup1\n        /* \"#utility.yul\":19895:19903   */\n      dup7\n        /* \"#utility.yul\":19891:19910   */\n      and\n        /* \"#utility.yul\":19884:19889   */\n      dup5\n        /* \"#utility.yul\":19881:19911   */\n      or\n        /* \"#utility.yul\":19871:19911   */\n      swap3\n      pop\n        /* \"#utility.yul\":19600:19917   */\n      pop\n      pop\n        /* \"#utility.yul\":19524:19917   */\n      swap4\n      swap3\n      pop\n      pop\n      pop\n      jump\t// out\n        /* \"#utility.yul\":19923:19983   */\n    tag_180:\n        /* \"#utility.yul\":19951:19954   */\n      0x00\n        /* \"#utility.yul\":19972:19977   */\n      dup2\n        /* \"#utility.yul\":19965:19977   */\n      swap1\n      pop\n        /* \"#utility.yul\":19923:19983   */\n      swap2\n      swap1\n      pop\n      jump\t// out\n        /* \"#utility.yul\":19989:20131   */\n    tag_181:\n        /* \"#utility.yul\":20039:20048   */\n      0x00\n        /* \"#utility.yul\":20072:20125   */\n      tag_377\n        /* \"#utility.yul\":20090:20124   */\n      tag_378\n        /* \"#utility.yul\":20099:20123   */\n      tag_379\n        /* \"#utility.yul\":20117:20122   */\n      dup5\n        /* \"#utility.yul\":20099:20123   */\n      tag_124\n      jump\t// in\n    tag_379:\n        /* \"#utility.yul\":20090:20124   */\n      tag_180\n      jump\t// in\n    tag_378:\n        /* \"#utility.yul\":20072:20125   */\n      tag_124\n      jump\t// in\n    tag_377:\n        /* \"#utility.yul\":20059:20125   */\n      swap1\n      pop\n        /* \"#utility.yul\":19989:20131   */\n      swap2\n      swap1\n      pop\n      jump\t// out\n        /* \"#utility.yul\":20137:20212   */\n    tag_182:\n        /* \"#utility.yul\":20180:20183   */\n      0x00\n        /* \"#utility.yul\":20201:20206   */\n      dup2\n        /* \"#utility.yul\":20194:20206   */\n      swap1\n      pop\n        /* \"#utility.yul\":20137:20212   */\n      swap2\n      swap1\n      pop\n      jump\t// out\n        /* \"#utility.yul\":20218:20487   */\n    tag_183:\n        /* \"#utility.yul\":20328:20367   */\n      tag_382\n        /* \"#utility.yul\":20359:20366   */\n      dup4\n        /* \"#utility.yul\":20328:20367   */\n      tag_181\n      jump\t// in\n    tag_382:\n        /* \"#utility.yul\":20389:20480   */\n      tag_383\n        /* \"#utility.yul\":20438:20479   */\n      tag_384\n        /* \"#utility.yul\":20462:20478   */\n      dup3\n        /* \"#utility.yul\":20438:20479   */\n      tag_182\n      jump\t// in\n    tag_384:\n        /* \"#utility.yul\":20430:20436   */\n      dup5\n        /* \"#utility.yul\":20423:20427   */\n      dup5\n        /* \"#utility.yul\":20417:20428   */\n      sload\n        /* \"#utility.yul\":20389:20480   */\n      tag_179\n      jump\t// in\n    tag_383:\n        /* \"#utility.yul\":20383:20387   */\n      dup3\n        /* \"#utility.yul\":20376:20481   */\n      sstore\n        /* \"#utility.yul\":20294:20487   */\n      pop\n        /* \"#utility.yul\":20218:20487   */\n      pop\n      pop\n      pop\n      jump\t// out\n        /* \"#utility.yul\":20493:20566   */\n    tag_184:\n        /* \"#utility.yul\":20538:20541   */\n      0x00\n        /* \"#utility.yul\":20493:20566   */\n      swap1\n      jump\t// out\n        /* \"#utility.yul\":20572:20761   */\n    tag_185:\n        /* \"#utility.yul\":20649:20681   */\n      tag_387\n      tag_184\n      jump\t// in\n    tag_387:\n        /* \"#utility.yul\":20690:20755   */\n      tag_388\n        /* \"#utility.yul\":20748:20754   */\n      dup2\n        /* \"#utility.yul\":20740:20746   */\n      dup5\n        /* \"#utility.yul\":20734:20738   */\n      dup5\n        /* \"#utility.yul\":20690:20755   */\n      tag_183\n      jump\t// in\n    tag_388:\n        /* \"#utility.yul\":20625:20761   */\n      pop\n        /* \"#utility.yul\":20572:20761   */\n      pop\n      pop\n      jump\t// out\n        /* \"#utility.yul\":20767:20953   */\n    tag_186:\n        /* \"#utility.yul\":20827:20947   */\n    tag_390:\n        /* \"#utility.yul\":20844:20847   */\n      dup2\n        /* \"#utility.yul\":20837:20842   */\n      dup2\n        /* \"#utility.yul\":20834:20848   */\n      lt\n        /* \"#utility.yul\":20827:20947   */\n      iszero\n      tag_392\n      jumpi\n        /* \"#utility.yul\":20898:20937   */\n      tag_393\n        /* \"#utility.yul\":20935:20936   */\n      0x00\n        /* \"#utility.yul\":20928:20933   */\n      dup3\n        /* \"#utility.yul\":20898:20937   */\n      tag_185\n      jump\t// in\n    tag_393:\n        /* \"#utility.yul\":20871:20872   */\n      0x01\n        /* \"#utility.yul\":20864:20869   */\n      dup2\n        /* \"#utility.yul\":20860:20873   */\n      add\n        /* \"#utility.yul\":20851:20873   */\n      swap1\n      pop\n        /* \"#utility.yul\":20827:20947   */\n      jump(tag_390)\n    tag_392:\n        /* \"#utility.yul\":20767:20953   */\n      pop\n      pop\n      jump\t// out\n        /* \"#utility.yul\":20959:21502   */\n    tag_187:\n        /* \"#utility.yul\":21060:21062   */\n      0x1f\n        /* \"#utility.yul\":21055:21058   */\n      dup3\n        /* \"#utility.yul\":21052:21063   */\n      gt\n        /* \"#utility.yul\":21049:21495   */\n      iszero\n      tag_395\n      jumpi\n        /* \"#utility.yul\":21094:21132   */\n      tag_396\n        /* \"#utility.yul\":21126:21131   */\n      dup2\n        /* \"#utility.yul\":21094:21132   */\n      tag_176\n      jump\t// in\n    tag_396:\n        /* \"#utility.yul\":21178:21207   */\n      tag_397\n        /* \"#utility.yul\":21196:21206   */\n      dup5\n        /* \"#utility.yul\":21178:21207   */\n      tag_177\n      jump\t// in\n    tag_397:\n        /* \"#utility.yul\":21168:21176   */\n      dup2\n        /* \"#utility.yul\":21164:21208   */\n      add\n        /* \"#utility.yul\":21361:21363   */\n      0x20\n        /* \"#utility.yul\":21349:21359   */\n      dup6\n        /* \"#utility.yul\":21346:21364   */\n      lt\n        /* \"#utility.yul\":21343:21392   */\n      iszero\n      tag_398\n      jumpi\n        /* \"#utility.yul\":21382:21390   */\n      dup2\n        /* \"#utility.yul\":21367:21390   */\n      swap1\n      pop\n        /* \"#utility.yul\":21343:21392   */\n    tag_398:\n        /* \"#utility.yul\":21405:21485   */\n      tag_399\n        /* \"#utility.yul\":21461:21483   */\n      tag_400\n        /* \"#utility.yul\":21479:21482   */\n      dup6\n        /* \"#utility.yul\":21461:21483   */\n      tag_177\n      jump\t// in\n    tag_400:\n        /* \"#utility.yul\":21451:21459   */\n      dup4\n        /* \"#utility.yul\":21447:21484   */\n      add\n        /* \"#utility.yul\":21434:21445   */\n      dup3\n        /* \"#utility.yul\":21405:21485   */\n      tag_186\n      jump\t// in\n    tag_399:\n        /* \"#utility.yul\":21064:21495   */\n      pop\n      pop\n        /* \"#utility.yul\":21049:21495   */\n    tag_395:\n        /* \"#utility.yul\":20959:21502   */\n      pop\n      pop\n      pop\n      jump\t// out\n        /* \"#utility.yul\":21508:21625   */\n    tag_188:\n        /* \"#utility.yul\":21562:21570   */\n      0x00\n        /* \"#utility.yul\":21612:21617   */\n      dup3\n        /* \"#utility.yul\":21606:21610   */\n      dup3\n        /* \"#utility.yul\":21602:21618   */\n      shr\n        /* \"#utility.yul\":21581:21618   */\n      swap1\n      pop\n        /* \"#utility.yul\":21508:21625   */\n      swap3\n      swap2\n      pop\n      pop\n      jump\t// out\n        /* \"#utility.yul\":21631:21800   */\n    tag_189:\n        /* \"#utility.yul\":21675:21681   */\n      0x00\n        /* \"#utility.yul\":21708:21759   */\n      tag_403\n        /* \"#utility.yul\":21756:21757   */\n      0x00\n        /* \"#utility.yul\":21752:21758   */\n      not\n        /* \"#utility.yul\":21744:21749   */\n      dup5\n        /* \"#utility.yul\":21741:21742   */\n      0x08\n        /* \"#utility.yul\":21737:21750   */\n      mul\n        /* \"#utility.yul\":21708:21759   */\n      tag_188\n      jump\t// in\n    tag_403:\n        /* \"#utility.yul\":21704:21760   */\n      not\n        /* \"#utility.yul\":21789:21793   */\n      dup1\n        /* \"#utility.yul\":21783:21787   */\n      dup4\n        /* \"#utility.yul\":21779:21794   */\n      and\n        /* \"#utility.yul\":21769:21794   */\n      swap2\n      pop\n        /* \"#utility.yul\":21682:21800   */\n      pop\n        /* \"#utility.yul\":21631:21800   */\n      swap3\n      swap2\n      pop\n      pop\n      jump\t// out\n        /* \"#utility.yul\":21805:22100   */\n    tag_190:\n        /* \"#utility.yul\":21881:21885   */\n      0x00\n        /* \"#utility.yul\":22027:22056   */\n      tag_405\n        /* \"#utility.yul\":22052:22055   */\n      dup4\n        /* \"#utility.yul\":22046:22050   */\n      dup4\n        /* \"#utility.yul\":22027:22056   */\n      tag_189\n      jump\t// in\n    tag_405:\n        /* \"#utility.yul\":22019:22056   */\n      swap2\n      pop\n        /* \"#utility.yul\":22089:22092   */\n      dup3\n        /* \"#utility.yul\":22086:22087   */\n      0x02\n        /* \"#utility.yul\":22082:22093   */\n      mul\n        /* \"#utility.yul\":22076:22080   */\n      dup3\n        /* \"#utility.yul\":22073:22094   */\n      or\n        /* \"#utility.yul\":22065:22094   */\n      swap1\n      pop\n        /* \"#utility.yul\":21805:22100   */\n      swap3\n      swap2\n      pop\n      pop\n      jump\t// out\n        /* \"#utility.yul\":22105:23500   */\n    tag_117:\n        /* \"#utility.yul\":22222:22259   */\n      tag_407\n        /* \"#utility.yul\":22255:22258   */\n      dup3\n        /* \"#utility.yul\":22222:22259   */\n      tag_134\n      jump\t// in\n    tag_407:\n        /* \"#utility.yul\":22324:22342   */\n      0xffffffffffffffff\n        /* \"#utility.yul\":22316:22322   */\n      dup2\n        /* \"#utility.yul\":22313:22343   */\n      gt\n        /* \"#utility.yul\":22310:22366   */\n      iszero\n      tag_408\n      jumpi\n        /* \"#utility.yul\":22346:22364   */\n      tag_409\n      tag_157\n      jump\t// in\n    tag_409:\n        /* \"#utility.yul\":22310:22366   */\n    tag_408:\n        /* \"#utility.yul\":22390:22428   */\n      tag_410\n        /* \"#utility.yul\":22422:22426   */\n      dup3\n        /* \"#utility.yul\":22416:22427   */\n      sload\n        /* \"#utility.yul\":22390:22428   */\n      tag_60\n      jump\t// in\n    tag_410:\n        /* \"#utility.yul\":22475:22542   */\n      tag_411\n        /* \"#utility.yul\":22535:22541   */\n      dup3\n        /* \"#utility.yul\":22527:22533   */\n      dup3\n        /* \"#utility.yul\":22521:22525   */\n      dup6\n        /* \"#utility.yul\":22475:22542   */\n      tag_187\n      jump\t// in\n    tag_411:\n        /* \"#utility.yul\":22569:22570   */\n      0x00\n        /* \"#utility.yul\":22593:22597   */\n      0x20\n        /* \"#utility.yul\":22580:22597   */\n      swap1\n      pop\n        /* \"#utility.yul\":22625:22627   */\n      0x1f\n        /* \"#utility.yul\":22617:22623   */\n      dup4\n        /* \"#utility.yul\":22614:22628   */\n      gt\n        /* \"#utility.yul\":22642:22643   */\n      0x01\n        /* \"#utility.yul\":22637:23255   */\n      dup2\n      eq\n      tag_413\n      jumpi\n        /* \"#utility.yul\":23299:23300   */\n      0x00\n        /* \"#utility.yul\":23316:23322   */\n      dup5\n        /* \"#utility.yul\":23313:23390   */\n      iszero\n      tag_414\n      jumpi\n        /* \"#utility.yul\":23365:23374   */\n      dup3\n        /* \"#utility.yul\":23360:23363   */\n      dup8\n        /* \"#utility.yul\":23356:23375   */\n      add\n        /* \"#utility.yul\":23350:23376   */\n      mload\n        /* \"#utility.yul\":23341:23376   */\n      swap1\n      pop\n        /* \"#utility.yul\":23313:23390   */\n    tag_414:\n        /* \"#utility.yul\":23416:23483   */\n      tag_415\n        /* \"#utility.yul\":23476:23482   */\n      dup6\n        /* \"#utility.yul\":23469:23474   */\n      dup3\n        /* \"#utility.yul\":23416:23483   */\n      tag_190\n      jump\t// in\n    tag_415:\n        /* \"#utility.yul\":23410:23414   */\n      dup7\n        /* \"#utility.yul\":23403:23484   */\n      sstore\n        /* \"#utility.yul\":23272:23494   */\n      pop\n        /* \"#utility.yul\":22607:23494   */\n      jump(tag_412)\n        /* \"#utility.yul\":22637:23255   */\n    tag_413:\n        /* \"#utility.yul\":22689:22693   */\n      0x1f\n        /* \"#utility.yul\":22685:22694   */\n      not\n        /* \"#utility.yul\":22677:22683   */\n      dup5\n        /* \"#utility.yul\":22673:22695   */\n      and\n        /* \"#utility.yul\":22723:22760   */\n      tag_416\n        /* \"#utility.yul\":22755:22759   */\n      dup7\n        /* \"#utility.yul\":22723:22760   */\n      tag_176\n      jump\t// in\n    tag_416:\n        /* \"#utility.yul\":22782:22783   */\n      0x00\n        /* \"#utility.yul\":22796:23004   */\n    tag_417:\n        /* \"#utility.yul\":22810:22817   */\n      dup3\n        /* \"#utility.yul\":22807:22808   */\n      dup2\n        /* \"#utility.yul\":22804:22818   */\n      lt\n        /* \"#utility.yul\":22796:23004   */\n      iszero\n      tag_419\n      jumpi\n        /* \"#utility.yul\":22889:22898   */\n      dup5\n        /* \"#utility.yul\":22884:22887   */\n      dup10\n        /* \"#utility.yul\":22880:22899   */\n      add\n        /* \"#utility.yul\":22874:22900   */\n      mload\n        /* \"#utility.yul\":22866:22872   */\n      dup3\n        /* \"#utility.yul\":22859:22901   */\n      sstore\n        /* \"#utility.yul\":22940:22941   */\n      0x01\n        /* \"#utility.yul\":22932:22938   */\n      dup3\n        /* \"#utility.yul\":22928:22942   */\n      add\n        /* \"#utility.yul\":22918:22942   */\n      swap2\n      pop\n        /* \"#utility.yul\":22987:22989   */\n      0x20\n        /* \"#utility.yul\":22976:22985   */\n      dup6\n        /* \"#utility.yul\":22972:22990   */\n      add\n        /* \"#utility.yul\":22959:22990   */\n      swap5\n      pop\n        /* \"#utility.yul\":22833:22837   */\n      0x20\n        /* \"#utility.yul\":22830:22831   */\n      dup2\n        /* \"#utility.yul\":22826:22838   */\n      add\n        /* \"#utility.yul\":22821:22838   */\n      swap1\n      pop\n        /* \"#utility.yul\":22796:23004   */\n      jump(tag_417)\n    tag_419:\n        /* \"#utility.yul\":23032:23038   */\n      dup7\n        /* \"#utility.yul\":23023:23030   */\n      dup4\n        /* \"#utility.yul\":23020:23039   */\n      lt\n        /* \"#utility.yul\":23017:23196   */\n      iszero\n      tag_420\n      jumpi\n        /* \"#utility.yul\":23090:23099   */\n      dup5\n        /* \"#utility.yul\":23085:23088   */\n      dup10\n        /* \"#utility.yul\":23081:23100   */\n      add\n        /* \"#utility.yul\":23075:23101   */\n      mload\n        /* \"#utility.yul\":23133:23181   */\n      tag_421\n        /* \"#utility.yul\":23175:23179   */\n      0x1f\n        /* \"#utility.yul\":23167:23173   */\n      dup10\n        /* \"#utility.yul\":23163:23180   */\n      and\n        /* \"#utility.yul\":23152:23161   */\n      dup3\n        /* \"#utility.yul\":23133:23181   */\n      tag_189\n      jump\t// in\n    tag_421:\n        /* \"#utility.yul\":23125:23131   */\n      dup4\n        /* \"#utility.yul\":23118:23182   */\n      sstore\n        /* \"#utility.yul\":23040:23196   */\n      pop\n        /* \"#utility.yul\":23017:23196   */\n    tag_420:\n        /* \"#utility.yul\":23242:23243   */\n      0x01\n        /* \"#utility.yul\":23238:23239   */\n      0x02\n        /* \"#utility.yul\":23230:23236   */\n      dup9\n        /* \"#utility.yul\":23226:23240   */\n      mul\n        /* \"#utility.yul\":23222:23244   */\n      add\n        /* \"#utility.yul\":23216:23220   */\n      dup9\n        /* \"#utility.yul\":23209:23245   */\n      sstore\n        /* \"#utility.yul\":22644:23255   */\n      pop\n      pop\n      pop\n        /* \"#utility.yul\":22607:23494   */\n    tag_412:\n      pop\n        /* \"#utility.yul\":22197:23500   */\n      pop\n      pop\n      pop\n        /* \"#utility.yul\":22105:23500   */\n      pop\n      pop\n      jump\t// out\n        /* \"#utility.yul\":23506:23739   */\n    tag_121:\n        /* \"#utility.yul\":23545:23548   */\n      0x00\n        /* \"#utility.yul\":23568:23592   */\n      tag_423\n        /* \"#utility.yul\":23586:23591   */\n      dup3\n        /* \"#utility.yul\":23568:23592   */\n      tag_124\n      jump\t// in\n    tag_423:\n        /* \"#utility.yul\":23559:23592   */\n      swap2\n      pop\n        /* \"#utility.yul\":23614:23680   */\n      0xffffffffffffffffffffffffffffffffffffffffffffffffffffffffffffffff\n        /* \"#utility.yul\":23607:23612   */\n      dup3\n        /* \"#utility.yul\":23604:23681   */\n      sub\n        /* \"#utility.yul\":23601:23704   */\n      tag_424\n      jumpi\n        /* \"#utility.yul\":23684:23702   */\n      tag_425\n      tag_169\n      jump\t// in\n    tag_425:\n        /* \"#utility.yul\":23601:23704   */\n    tag_424:\n        /* \"#utility.yul\":23731:23732   */\n      0x01\n        /* \"#utility.yul\":23724:23729   */\n      dup3\n        /* \"#utility.yul\":23720:23733   */\n      add\n        /* \"#utility.yul\":23713:23733   */\n      swap1\n      pop\n        /* \"#utility.yul\":23506:23739   */\n      swap2\n      swap1\n      pop\n      jump\t// out\n\n    auxdata: 0xa26469706673582212200cca8f2014866b656bbd326b039276a41f42a112bd31d72d738fc65af86ca86864736f6c63430008130033\n}\n",
				"bytecode": {
					"linkReferences": {},
					"object": "6080604052600060015534801561001557600080fd5b506119a5806100256000396000f3fe60806040526004361061007b5760003560e01c80635598f8cc1161004e5780635598f8cc146101335780635b7baf64146101785780639943e3a1146101a1578063e4aafc2c146101de5761007b565b806307ca140d14610080578063155dd5ee146100ab5780634013be10146100d457806342a4fda814610117575b600080fd5b34801561008c57600080fd5b50610095610209565b6040516100a29190610c8d565b60405180910390f35b3480156100b757600080fd5b506100d260048036038101906100cd9190610ce8565b61020f565b005b3480156100e057600080fd5b506100fb60048036038101906100f69190610ce8565b610385565b60405161010e9796959493929190610de6565b60405180910390f35b610131600480360381019061012c9190610ce8565b61057f565b005b34801561013f57600080fd5b5061015a60048036038101906101559190610ce8565b6106a2565b60405161016f99989796959493929190610fe6565b60405180910390f35b34801561018457600080fd5b5061019f600480360381019061019a9190610ce8565b6109ad565b005b3480156101ad57600080fd5b506101c860048036038101906101c391906111f7565b610b47565b6040516101d59190610c8d565b60405180910390f35b3480156101ea57600080fd5b506101f3610c6a565b6040516102009190610c8d565b60405180910390f35b60015481565b600080600083815260200190815260200160002090503373ffffffffffffffffffffffffffffffffffffffff168160000160009054906101000a900473ffffffffffffffffffffffffffffffffffffffff1673ffffffffffffffffffffffffffffffffffffffff16146102b7576040517f08c379a00000000000000000000000000000000000000000000000000000000081526004016102ae9061134a565b60405180910390fd5b806003015481600501541015610302576040517f08c379a00000000000000000000000000000000000000000000000000000000081526004016102f9906113dc565b60405180910390fd5b600081600501549050600082600501819055508160000160009054906101000a900473ffffffffffffffffffffffffffffffffffffffff1673ffffffffffffffffffffffffffffffffffffffff166108fc829081150290604051600060405180830381858888f1935050505015801561037f573d6000803e3d6000fd5b50505050565b60006020528060005260406000206000915090508060000160009054906101000a900473ffffffffffffffffffffffffffffffffffffffff16908060010180546103ce9061142b565b80601f01602080910402602001604051908101604052809291908181526020018280546103fa9061142b565b80156104475780601f1061041c57610100808354040283529160200191610447565b820191906000526020600020905b81548152906001019060200180831161042a57829003601f168201915b50505050509080600201805461045c9061142b565b80601f01602080910402602001604051908101604052809291908181526020018280546104889061142b565b80156104d55780601f106104aa576101008083540402835291602001916104d5565b820191906000526020600020905b8154815290600101906020018083116104b857829003601f168201915b5050505050908060030154908060040154908060050154908060060180546104fc9061142b565b80601f01602080910402602001604051908101604052809291908181526020018280546105289061142b565b80156105755780601f1061054a57610100808354040283529160200191610575565b820191906000526020600020905b81548152906001019060200180831161055857829003601f168201915b5050505050905087565b60003490506000806000848152602001908152602001600020905080600701339080600181540180825580915050600190039060005260206000200160009091909190916101000a81548173ffffffffffffffffffffffffffffffffffffffff021916908373ffffffffffffffffffffffffffffffffffffffff16021790555080600801829080600181540180825580915050600190039060005260206000200160009091909190915055818160090160003373ffffffffffffffffffffffffffffffffffffffff1673ffffffffffffffffffffffffffffffffffffffff168152602001908152602001600020600082825461067b919061148b565b9250508190555081816005016000828254610696919061148b565b92505081905550505050565b60006060806000806000606080606060008060008c815260200190815260200160002090508060000160009054906101000a900473ffffffffffffffffffffffffffffffffffffffff16816001018260020183600301548460040154856005015486600601876007018860080187805461071b9061142b565b80601f01602080910402602001604051908101604052809291908181526020018280546107479061142b565b80156107945780601f1061076957610100808354040283529160200191610794565b820191906000526020600020905b81548152906001019060200180831161077757829003601f168201915b505050505097508680546107a79061142b565b80601f01602080910402602001604051908101604052809291908181526020018280546107d39061142b565b80156108205780601f106107f557610100808354040283529160200191610820565b820191906000526020600020905b81548152906001019060200180831161080357829003601f168201915b505050505096508280546108339061142b565b80601f016020809104026020016040519081016040528092919081815260200182805461085f9061142b565b80156108ac5780601f10610881576101008083540402835291602001916108ac565b820191906000526020600020905b81548152906001019060200180831161088f57829003601f168201915b505050505092508180548060200260200160405190810160405280929190818152602001828054801561093457602002820191906000526020600020905b8160009054906101000a900473ffffffffffffffffffffffffffffffffffffffff1673ffffffffffffffffffffffffffffffffffffffff16815260200190600101908083116108ea575b505050505091508080548060200260200160405190810160405280929190818152602001828054801561098657602002820191906000526020600020905b815481526020019060010190808311610972575b50505050509050995099509950995099509950995099509950509193959799909294969850565b6000806000838152602001908152602001600020905042816004015410610a09576040517f08c379a0000000000000000000000000000000000000000000000000000000008152600401610a0090611531565b60405180910390fd5b8060030154816005015410610a53576040517f08c379a0000000000000000000000000000000000000000000000000000000008152600401610a4a906115c3565b60405180910390fd5b60008160090160003373ffffffffffffffffffffffffffffffffffffffff1673ffffffffffffffffffffffffffffffffffffffff16815260200190815260200160002054905060008260090160003373ffffffffffffffffffffffffffffffffffffffff1673ffffffffffffffffffffffffffffffffffffffff1681526020019081526020016000208190555080826005016000828254610af491906115e3565b925050819055503373ffffffffffffffffffffffffffffffffffffffff166108fc829081150290604051600060405180830381858888f19350505050158015610b41573d6000803e3d6000fd5b50505050565b60008060008060015481526020019081526020016000209050428411610ba2576040517f08c379a0000000000000000000000000000000000000000000000000000000008152600401610b9990611689565b60405180910390fd5b878160000160006101000a81548173ffffffffffffffffffffffffffffffffffffffff021916908373ffffffffffffffffffffffffffffffffffffffff16021790555086816001019081610bf69190611855565b5085816002019081610c089190611855565b508481600301819055508381600401819055506000816005018190555082816006019081610c369190611855565b5060016000815480929190610c4a90611927565b919050555060018054610c5d91906115e3565b9150509695505050505050565b6000600154905090565b6000819050919050565b610c8781610c74565b82525050565b6000602082019050610ca26000830184610c7e565b92915050565b6000604051905090565b600080fd5b600080fd5b610cc581610c74565b8114610cd057600080fd5b50565b600081359050610ce281610cbc565b92915050565b600060208284031215610cfe57610cfd610cb2565b5b6000610d0c84828501610cd3565b91505092915050565b600073ffffffffffffffffffffffffffffffffffffffff82169050919050565b6000610d4082610d15565b9050919050565b610d5081610d35565b82525050565b600081519050919050565b600082825260208201905092915050565b60005b83811015610d90578082015181840152602081019050610d75565b60008484015250505050565b6000601f19601f8301169050919050565b6000610db882610d56565b610dc28185610d61565b9350610dd2818560208601610d72565b610ddb81610d9c565b840191505092915050565b600060e082019050610dfb600083018a610d47565b8181036020830152610e0d8189610dad565b90508181036040830152610e218188610dad565b9050610e306060830187610c7e565b610e3d6080830186610c7e565b610e4a60a0830185610c7e565b81810360c0830152610e5c8184610dad565b905098975050505050505050565b600081519050919050565b600082825260208201905092915050565b6000819050602082019050919050565b610e9f81610d35565b82525050565b6000610eb18383610e96565b60208301905092915050565b6000602082019050919050565b6000610ed582610e6a565b610edf8185610e75565b9350610eea83610e86565b8060005b83811015610f1b578151610f028882610ea5565b9750610f0d83610ebd565b925050600181019050610eee565b5085935050505092915050565b600081519050919050565b600082825260208201905092915050565b6000819050602082019050919050565b610f5d81610c74565b82525050565b6000610f6f8383610f54565b60208301905092915050565b6000602082019050919050565b6000610f9382610f28565b610f9d8185610f33565b9350610fa883610f44565b8060005b83811015610fd9578151610fc08882610f63565b9750610fcb83610f7b565b925050600181019050610fac565b5085935050505092915050565b600061012082019050610ffc600083018c610d47565b818103602083015261100e818b610dad565b90508181036040830152611022818a610dad565b90506110316060830189610c7e565b61103e6080830188610c7e565b61104b60a0830187610c7e565b81810360c083015261105d8186610dad565b905081810360e08301526110718185610eca565b90508181036101008301526110868184610f88565b90509a9950505050505050505050565b61109f81610d35565b81146110aa57600080fd5b50565b6000813590506110bc81611096565b92915050565b600080fd5b600080fd5b7f4e487b7100000000000000000000000000000000000000000000000000000000600052604160045260246000fd5b61110482610d9c565b810181811067ffffffffffffffff82111715611123576111226110cc565b5b80604052505050565b6000611136610ca8565b905061114282826110fb565b919050565b600067ffffffffffffffff821115611162576111616110cc565b5b61116b82610d9c565b9050602081019050919050565b82818337600083830152505050565b600061119a61119584611147565b61112c565b9050828152602081018484840111156111b6576111b56110c7565b5b6111c1848285611178565b509392505050565b600082601f8301126111de576111dd6110c2565b5b81356111ee848260208601611187565b91505092915050565b60008060008060008060c0878903121561121457611213610cb2565b5b600061122289828a016110ad565b965050602087013567ffffffffffffffff81111561124357611242610cb7565b5b61124f89828a016111c9565b955050604087013567ffffffffffffffff8111156112705761126f610cb7565b5b61127c89828a016111c9565b945050606061128d89828a01610cd3565b935050608061129e89828a01610cd3565b92505060a087013567ffffffffffffffff8111156112bf576112be610cb7565b5b6112cb89828a016111c9565b9150509295509295509295565b7f4f6e6c79207468652063616d706169676e206f776e65722063616e207769746860008201527f647261772066756e64732e000000000000000000000000000000000000000000602082015250565b6000611334602b83610d61565b915061133f826112d8565b604082019050919050565b6000602082019050818103600083015261136381611327565b9050919050565b7f46756e64732063616e6e6f742062652077697468647261776e20756e74696c2060008201527f7468652074617267657420697320726561636865642e00000000000000000000602082015250565b60006113c6603683610d61565b91506113d18261136a565b604082019050919050565b600060208201905081810360008301526113f5816113b9565b9050919050565b7f4e487b7100000000000000000000000000000000000000000000000000000000600052602260045260246000fd5b6000600282049050600182168061144357607f821691505b602082108103611456576114556113fc565b5b50919050565b7f4e487b7100000000000000000000000000000000000000000000000000000000600052601160045260246000fd5b600061149682610c74565b91506114a183610c74565b92508282019050808211156114b9576114b861145c565b5b92915050565b7f526566756e64732063616e206f6e6c7920626520636c61696d6564206166746560008201527f72207468652063616d706169676e20646561646c696e652e0000000000000000602082015250565b600061151b603883610d61565b9150611526826114bf565b604082019050919050565b6000602082019050818103600083015261154a8161150e565b9050919050565b7f526566756e647320617265206f6e6c7920617661696c61626c6520696620746860008201527f6520746172676574206973206e6f7420726561636865642e0000000000000000602082015250565b60006115ad603883610d61565b91506115b882611551565b604082019050919050565b600060208201905081810360008301526115dc816115a0565b9050919050565b60006115ee82610c74565b91506115f983610c74565b92508282039050818111156116115761161061145c565b5b92915050565b7f54686520646561646c696e652073686f756c642062652061206461746520696e60008201527f20746865206675747572652e0000000000000000000000000000000000000000602082015250565b6000611673602c83610d61565b915061167e82611617565b604082019050919050565b600060208201905081810360008301526116a281611666565b9050919050565b60008190508160005260206000209050919050565b60006020601f8301049050919050565b600082821b905092915050565b60006008830261170b7fffffffffffffffffffffffffffffffffffffffffffffffffffffffffffffffff826116ce565b61171586836116ce565b95508019841693508086168417925050509392505050565b6000819050919050565b600061175261174d61174884610c74565b61172d565b610c74565b9050919050565b6000819050919050565b61176c83611737565b61178061177882611759565b8484546116db565b825550505050565b600090565b611795611788565b6117a0818484611763565b505050565b5b818110156117c4576117b960008261178d565b6001810190506117a6565b5050565b601f821115611809576117da816116a9565b6117e3846116be565b810160208510156117f2578190505b6118066117fe856116be565b8301826117a5565b50505b505050565b600082821c905092915050565b600061182c6000198460080261180e565b1980831691505092915050565b6000611845838361181b565b9150826002028217905092915050565b61185e82610d56565b67ffffffffffffffff811115611877576118766110cc565b5b611881825461142b565b61188c8282856117c8565b600060209050601f8311600181146118bf57600084156118ad578287015190505b6118b78582611839565b86555061191f565b601f1984166118cd866116a9565b60005b828110156118f5578489015182556001820191506020850194506020810190506118d0565b86831015611912578489015161190e601f89168261181b565b8355505b6001600288020188555050505b505050505050565b600061193282610c74565b91507fffffffffffffffffffffffffffffffffffffffffffffffffffffffffffffffff82036119645761196361145c565b5b60018201905091905056fea26469706673582212200cca8f2014866b656bbd326b039276a41f42a112bd31d72d738fc65af86ca86864736f6c63430008130033",
					"opcodes": "PUSH1 0x80 PUSH1 0x40 MSTORE PUSH1 0x0 PUSH1 0x1 SSTORE CALLVALUE DUP1 ISZERO PUSH2 0x15 JUMPI PUSH1 0x0 DUP1 REVERT JUMPDEST POP PUSH2 0x19A5 DUP1 PUSH2 0x25 PUSH1 0x0 CODECOPY PUSH1 0x0 RETURN INVALID PUSH1 0x80 PUSH1 0x40 MSTORE PUSH1 0x4 CALLDATASIZE LT PUSH2 0x7B JUMPI PUSH1 0x0 CALLDATALOAD PUSH1 0xE0 SHR DUP1 PUSH4 0x5598F8CC GT PUSH2 0x4E JUMPI DUP1 PUSH4 0x5598F8CC EQ PUSH2 0x133 JUMPI DUP1 PUSH4 0x5B7BAF64 EQ PUSH2 0x178 JUMPI DUP1 PUSH4 0x9943E3A1 EQ PUSH2 0x1A1 JUMPI DUP1 PUSH4 0xE4AAFC2C EQ PUSH2 0x1DE JUMPI PUSH2 0x7B JUMP JUMPDEST DUP1 PUSH4 0x7CA140D EQ PUSH2 0x80 JUMPI DUP1 PUSH4 0x155DD5EE EQ PUSH2 0xAB JUMPI DUP1 PUSH4 0x4013BE10 EQ PUSH2 0xD4 JUMPI DUP1 PUSH4 0x42A4FDA8 EQ PUSH2 0x117 JUMPI JUMPDEST PUSH1 0x0 DUP1 REVERT JUMPDEST CALLVALUE DUP1 ISZERO PUSH2 0x8C JUMPI PUSH1 0x0 DUP1 REVERT JUMPDEST POP PUSH2 0x95 PUSH2 0x209 JUMP JUMPDEST PUSH1 0x40 MLOAD PUSH2 0xA2 SWAP2 SWAP1 PUSH2 0xC8D JUMP JUMPDEST PUSH1 0x40 MLOAD DUP1 SWAP2 SUB SWAP1 RETURN JUMPDEST CALLVALUE DUP1 ISZERO PUSH2 0xB7 JUMPI PUSH1 0x0 DUP1 REVERT JUMPDEST POP PUSH2 0xD2 PUSH1 0x4 DUP1 CALLDATASIZE SUB DUP2 ADD SWAP1 PUSH2 0xCD SWAP2 SWAP1 PUSH2 0xCE8 JUMP JUMPDEST PUSH2 0x20F JUMP JUMPDEST STOP JUMPDEST CALLVALUE DUP1 ISZERO PUSH2 0xE0 JUMPI PUSH1 0x0 DUP1 REVERT JUMPDEST POP PUSH2 0xFB PUSH1 0x4 DUP1 CALLDATASIZE SUB DUP2 ADD SWAP1 PUSH2 0xF6 SWAP2 SWAP1 PUSH2 0xCE8 JUMP JUMPDEST PUSH2 0x385 JUMP JUMPDEST PUSH1 0x40 MLOAD PUSH2 0x10E SWAP8 SWAP7 SWAP6 SWAP5 SWAP4 SWAP3 SWAP2 SWAP1 PUSH2 0xDE6 JUMP JUMPDEST PUSH1 0x40 MLOAD DUP1 SWAP2 SUB SWAP1 RETURN JUMPDEST PUSH2 0x131 PUSH1 0x4 DUP1 CALLDATASIZE SUB DUP2 ADD SWAP1 PUSH2 0x12C SWAP2 SWAP1 PUSH2 0xCE8 JUMP JUMPDEST PUSH2 0x57F JUMP JUMPDEST STOP JUMPDEST CALLVALUE DUP1 ISZERO PUSH2 0x13F JUMPI PUSH1 0x0 DUP1 REVERT JUMPDEST POP PUSH2 0x15A PUSH1 0x4 DUP1 CALLDATASIZE SUB DUP2 ADD SWAP1 PUSH2 0x155 SWAP2 SWAP1 PUSH2 0xCE8 JUMP JUMPDEST PUSH2 0x6A2 JUMP JUMPDEST PUSH1 0x40 MLOAD PUSH2 0x16F SWAP10 SWAP9 SWAP8 SWAP7 SWAP6 SWAP5 SWAP4 SWAP3 SWAP2 SWAP1 PUSH2 0xFE6 JUMP JUMPDEST PUSH1 0x40 MLOAD DUP1 SWAP2 SUB SWAP1 RETURN JUMPDEST CALLVALUE DUP1 ISZERO PUSH2 0x184 JUMPI PUSH1 0x0 DUP1 REVERT JUMPDEST POP PUSH2 0x19F PUSH1 0x4 DUP1 CALLDATASIZE SUB DUP2 ADD SWAP1 PUSH2 0x19A SWAP2 SWAP1 PUSH2 0xCE8 JUMP JUMPDEST PUSH2 0x9AD JUMP JUMPDEST STOP JUMPDEST CALLVALUE DUP1 ISZERO PUSH2 0x1AD JUMPI PUSH1 0x0 DUP1 REVERT JUMPDEST POP PUSH2 0x1C8 PUSH1 0x4 DUP1 CALLDATASIZE SUB DUP2 ADD SWAP1 PUSH2 0x1C3 SWAP2 SWAP1 PUSH2 0x11F7 JUMP JUMPDEST PUSH2 0xB47 JUMP JUMPDEST PUSH1 0x40 MLOAD PUSH2 0x1D5 SWAP2 SWAP1 PUSH2 0xC8D JUMP JUMPDEST PUSH1 0x40 MLOAD DUP1 SWAP2 SUB SWAP1 RETURN JUMPDEST CALLVALUE DUP1 ISZERO PUSH2 0x1EA JUMPI PUSH1 0x0 DUP1 REVERT JUMPDEST POP PUSH2 0x1F3 PUSH2 0xC6A JUMP JUMPDEST PUSH1 0x40 MLOAD PUSH2 0x200 SWAP2 SWAP1 PUSH2 0xC8D JUMP JUMPDEST PUSH1 0x40 MLOAD DUP1 SWAP2 SUB SWAP1 RETURN JUMPDEST PUSH1 0x1 SLOAD DUP2 JUMP JUMPDEST PUSH1 0x0 DUP1 PUSH1 0x0 DUP4 DUP2 MSTORE PUSH1 0x20 ADD SWAP1 DUP2 MSTORE PUSH1 0x20 ADD PUSH1 0x0 KECCAK256 SWAP1 POP CALLER PUSH20 0xFFFFFFFFFFFFFFFFFFFFFFFFFFFFFFFFFFFFFFFF AND DUP2 PUSH1 0x0 ADD PUSH1 0x0 SWAP1 SLOAD SWAP1 PUSH2 0x100 EXP SWAP1 DIV PUSH20 0xFFFFFFFFFFFFFFFFFFFFFFFFFFFFFFFFFFFFFFFF AND PUSH20 0xFFFFFFFFFFFFFFFFFFFFFFFFFFFFFFFFFFFFFFFF AND EQ PUSH2 0x2B7 JUMPI PUSH1 0x40 MLOAD PUSH32 0x8C379A000000000000000000000000000000000000000000000000000000000 DUP2 MSTORE PUSH1 0x4 ADD PUSH2 0x2AE SWAP1 PUSH2 0x134A JUMP JUMPDEST PUSH1 0x40 MLOAD DUP1 SWAP2 SUB SWAP1 REVERT JUMPDEST DUP1 PUSH1 0x3 ADD SLOAD DUP2 PUSH1 0x5 ADD SLOAD LT ISZERO PUSH2 0x302 JUMPI PUSH1 0x40 MLOAD PUSH32 0x8C379A000000000000000000000000000000000000000000000000000000000 DUP2 MSTORE PUSH1 0x4 ADD PUSH2 0x2F9 SWAP1 PUSH2 0x13DC JUMP JUMPDEST PUSH1 0x40 MLOAD DUP1 SWAP2 SUB SWAP1 REVERT JUMPDEST PUSH1 0x0 DUP2 PUSH1 0x5 ADD SLOAD SWAP1 POP PUSH1 0x0 DUP3 PUSH1 0x5 ADD DUP2 SWAP1 SSTORE POP DUP2 PUSH1 0x0 ADD PUSH1 0x0 SWAP1 SLOAD SWAP1 PUSH2 0x100 EXP SWAP1 DIV PUSH20 0xFFFFFFFFFFFFFFFFFFFFFFFFFFFFFFFFFFFFFFFF AND PUSH20 0xFFFFFFFFFFFFFFFFFFFFFFFFFFFFFFFFFFFFFFFF AND PUSH2 0x8FC DUP3 SWAP1 DUP2 ISZERO MUL SWAP1 PUSH1 0x40 MLOAD PUSH1 0x0 PUSH1 0x40 MLOAD DUP1 DUP4 SUB DUP2 DUP6 DUP9 DUP9 CALL SWAP4 POP POP POP POP ISZERO DUP1 ISZERO PUSH2 0x37F JUMPI RETURNDATASIZE PUSH1 0x0 DUP1 RETURNDATACOPY RETURNDATASIZE PUSH1 0x0 REVERT JUMPDEST POP POP POP POP JUMP JUMPDEST PUSH1 0x0 PUSH1 0x20 MSTORE DUP1 PUSH1 0x0 MSTORE PUSH1 0x40 PUSH1 0x0 KECCAK256 PUSH1 0x0 SWAP2 POP SWAP1 POP DUP1 PUSH1 0x0 ADD PUSH1 0x0 SWAP1 SLOAD SWAP1 PUSH2 0x100 EXP SWAP1 DIV PUSH20 0xFFFFFFFFFFFFFFFFFFFFFFFFFFFFFFFFFFFFFFFF AND SWAP1 DUP1 PUSH1 0x1 ADD DUP1 SLOAD PUSH2 0x3CE SWAP1 PUSH2 0x142B JUMP JUMPDEST DUP1 PUSH1 0x1F ADD PUSH1 0x20 DUP1 SWAP2 DIV MUL PUSH1 0x20 ADD PUSH1 0x40 MLOAD SWAP1 DUP2 ADD PUSH1 0x40 MSTORE DUP1 SWAP3 SWAP2 SWAP1 DUP2 DUP2 MSTORE PUSH1 0x20 ADD DUP3 DUP1 SLOAD PUSH2 0x3FA SWAP1 PUSH2 0x142B JUMP JUMPDEST DUP1 ISZERO PUSH2 0x447 JUMPI DUP1 PUSH1 0x1F LT PUSH2 0x41C JUMPI PUSH2 0x100 DUP1 DUP4 SLOAD DIV MUL DUP4 MSTORE SWAP2 PUSH1 0x20 ADD SWAP2 PUSH2 0x447 JUMP JUMPDEST DUP3 ADD SWAP2 SWAP1 PUSH1 0x0 MSTORE PUSH1 0x20 PUSH1 0x0 KECCAK256 SWAP1 JUMPDEST DUP2 SLOAD DUP2 MSTORE SWAP1 PUSH1 0x1 ADD SWAP1 PUSH1 0x20 ADD DUP1 DUP4 GT PUSH2 0x42A JUMPI DUP3 SWAP1 SUB PUSH1 0x1F AND DUP3 ADD SWAP2 JUMPDEST POP POP POP POP POP SWAP1 DUP1 PUSH1 0x2 ADD DUP1 SLOAD PUSH2 0x45C SWAP1 PUSH2 0x142B JUMP JUMPDEST DUP1 PUSH1 0x1F ADD PUSH1 0x20 DUP1 SWAP2 DIV MUL PUSH1 0x20 ADD PUSH1 0x40 MLOAD SWAP1 DUP2 ADD PUSH1 0x40 MSTORE DUP1 SWAP3 SWAP2 SWAP1 DUP2 DUP2 MSTORE PUSH1 0x20 ADD DUP3 DUP1 SLOAD PUSH2 0x488 SWAP1 PUSH2 0x142B JUMP JUMPDEST DUP1 ISZERO PUSH2 0x4D5 JUMPI DUP1 PUSH1 0x1F LT PUSH2 0x4AA JUMPI PUSH2 0x100 DUP1 DUP4 SLOAD DIV MUL DUP4 MSTORE SWAP2 PUSH1 0x20 ADD SWAP2 PUSH2 0x4D5 JUMP JUMPDEST DUP3 ADD SWAP2 SWAP1 PUSH1 0x0 MSTORE PUSH1 0x20 PUSH1 0x0 KECCAK256 SWAP1 JUMPDEST DUP2 SLOAD DUP2 MSTORE SWAP1 PUSH1 0x1 ADD SWAP1 PUSH1 0x20 ADD DUP1 DUP4 GT PUSH2 0x4B8 JUMPI DUP3 SWAP1 SUB PUSH1 0x1F AND DUP3 ADD SWAP2 JUMPDEST POP POP POP POP POP SWAP1 DUP1 PUSH1 0x3 ADD SLOAD SWAP1 DUP1 PUSH1 0x4 ADD SLOAD SWAP1 DUP1 PUSH1 0x5 ADD SLOAD SWAP1 DUP1 PUSH1 0x6 ADD DUP1 SLOAD PUSH2 0x4FC SWAP1 PUSH2 0x142B JUMP JUMPDEST DUP1 PUSH1 0x1F ADD PUSH1 0x20 DUP1 SWAP2 DIV MUL PUSH1 0x20 ADD PUSH1 0x40 MLOAD SWAP1 DUP2 ADD PUSH1 0x40 MSTORE DUP1 SWAP3 SWAP2 SWAP1 DUP2 DUP2 MSTORE PUSH1 0x20 ADD DUP3 DUP1 SLOAD PUSH2 0x528 SWAP1 PUSH2 0x142B JUMP JUMPDEST DUP1 ISZERO PUSH2 0x575 JUMPI DUP1 PUSH1 0x1F LT PUSH2 0x54A JUMPI PUSH2 0x100 DUP1 DUP4 SLOAD DIV MUL DUP4 MSTORE SWAP2 PUSH1 0x20 ADD SWAP2 PUSH2 0x575 JUMP JUMPDEST DUP3 ADD SWAP2 SWAP1 PUSH1 0x0 MSTORE PUSH1 0x20 PUSH1 0x0 KECCAK256 SWAP1 JUMPDEST DUP2 SLOAD DUP2 MSTORE SWAP1 PUSH1 0x1 ADD SWAP1 PUSH1 0x20 ADD DUP1 DUP4 GT PUSH2 0x558 JUMPI DUP3 SWAP1 SUB PUSH1 0x1F AND DUP3 ADD SWAP2 JUMPDEST POP POP POP POP POP SWAP1 POP DUP8 JUMP JUMPDEST PUSH1 0x0 CALLVALUE SWAP1 POP PUSH1 0x0 DUP1 PUSH1 0x0 DUP5 DUP2 MSTORE PUSH1 0x20 ADD SWAP1 DUP2 MSTORE PUSH1 0x20 ADD PUSH1 0x0 KECCAK256 SWAP1 POP DUP1 PUSH1 0x7 ADD CALLER SWAP1 DUP1 PUSH1 0x1 DUP2 SLOAD ADD DUP1 DUP3 SSTORE DUP1 SWAP2 POP POP PUSH1 0x1 SWAP1 SUB SWAP1 PUSH1 0x0 MSTORE PUSH1 0x20 PUSH1 0x0 KECCAK256 ADD PUSH1 0x0 SWAP1 SWAP2 SWAP1 SWAP2 SWAP1 SWAP2 PUSH2 0x100 EXP DUP2 SLOAD DUP2 PUSH20 0xFFFFFFFFFFFFFFFFFFFFFFFFFFFFFFFFFFFFFFFF MUL NOT AND SWAP1 DUP4 PUSH20 0xFFFFFFFFFFFFFFFFFFFFFFFFFFFFFFFFFFFFFFFF AND MUL OR SWAP1 SSTORE POP DUP1 PUSH1 0x8 ADD DUP3 SWAP1 DUP1 PUSH1 0x1 DUP2 SLOAD ADD DUP1 DUP3 SSTORE DUP1 SWAP2 POP POP PUSH1 0x1 SWAP1 SUB SWAP1 PUSH1 0x0 MSTORE PUSH1 0x20 PUSH1 0x0 KECCAK256 ADD PUSH1 0x0 SWAP1 SWAP2 SWAP1 SWAP2 SWAP1 SWAP2 POP SSTORE DUP2 DUP2 PUSH1 0x9 ADD PUSH1 0x0 CALLER PUSH20 0xFFFFFFFFFFFFFFFFFFFFFFFFFFFFFFFFFFFFFFFF AND PUSH20 0xFFFFFFFFFFFFFFFFFFFFFFFFFFFFFFFFFFFFFFFF AND DUP2 MSTORE PUSH1 0x20 ADD SWAP1 DUP2 MSTORE PUSH1 0x20 ADD PUSH1 0x0 KECCAK256 PUSH1 0x0 DUP3 DUP3 SLOAD PUSH2 0x67B SWAP2 SWAP1 PUSH2 0x148B JUMP JUMPDEST SWAP3 POP POP DUP2 SWAP1 SSTORE POP DUP2 DUP2 PUSH1 0x5 ADD PUSH1 0x0 DUP3 DUP3 SLOAD PUSH2 0x696 SWAP2 SWAP1 PUSH2 0x148B JUMP JUMPDEST SWAP3 POP POP DUP2 SWAP1 SSTORE POP POP POP POP JUMP JUMPDEST PUSH1 0x0 PUSH1 0x60 DUP1 PUSH1 0x0 DUP1 PUSH1 0x0 PUSH1 0x60 DUP1 PUSH1 0x60 PUSH1 0x0 DUP1 PUSH1 0x0 DUP13 DUP2 MSTORE PUSH1 0x20 ADD SWAP1 DUP2 MSTORE PUSH1 0x20 ADD PUSH1 0x0 KECCAK256 SWAP1 POP DUP1 PUSH1 0x0 ADD PUSH1 0x0 SWAP1 SLOAD SWAP1 PUSH2 0x100 EXP SWAP1 DIV PUSH20 0xFFFFFFFFFFFFFFFFFFFFFFFFFFFFFFFFFFFFFFFF AND DUP2 PUSH1 0x1 ADD DUP3 PUSH1 0x2 ADD DUP4 PUSH1 0x3 ADD SLOAD DUP5 PUSH1 0x4 ADD SLOAD DUP6 PUSH1 0x5 ADD SLOAD DUP7 PUSH1 0x6 ADD DUP8 PUSH1 0x7 ADD DUP9 PUSH1 0x8 ADD DUP8 DUP1 SLOAD PUSH2 0x71B SWAP1 PUSH2 0x142B JUMP JUMPDEST DUP1 PUSH1 0x1F ADD PUSH1 0x20 DUP1 SWAP2 DIV MUL PUSH1 0x20 ADD PUSH1 0x40 MLOAD SWAP1 DUP2 ADD PUSH1 0x40 MSTORE DUP1 SWAP3 SWAP2 SWAP1 DUP2 DUP2 MSTORE PUSH1 0x20 ADD DUP3 DUP1 SLOAD PUSH2 0x747 SWAP1 PUSH2 0x142B JUMP JUMPDEST DUP1 ISZERO PUSH2 0x794 JUMPI DUP1 PUSH1 0x1F LT PUSH2 0x769 JUMPI PUSH2 0x100 DUP1 DUP4 SLOAD DIV MUL DUP4 MSTORE SWAP2 PUSH1 0x20 ADD SWAP2 PUSH2 0x794 JUMP JUMPDEST DUP3 ADD SWAP2 SWAP1 PUSH1 0x0 MSTORE PUSH1 0x20 PUSH1 0x0 KECCAK256 SWAP1 JUMPDEST DUP2 SLOAD DUP2 MSTORE SWAP1 PUSH1 0x1 ADD SWAP1 PUSH1 0x20 ADD DUP1 DUP4 GT PUSH2 0x777 JUMPI DUP3 SWAP1 SUB PUSH1 0x1F AND DUP3 ADD SWAP2 JUMPDEST POP POP POP POP POP SWAP8 POP DUP7 DUP1 SLOAD PUSH2 0x7A7 SWAP1 PUSH2 0x142B JUMP JUMPDEST DUP1 PUSH1 0x1F ADD PUSH1 0x20 DUP1 SWAP2 DIV MUL PUSH1 0x20 ADD PUSH1 0x40 MLOAD SWAP1 DUP2 ADD PUSH1 0x40 MSTORE DUP1 SWAP3 SWAP2 SWAP1 DUP2 DUP2 MSTORE PUSH1 0x20 ADD DUP3 DUP1 SLOAD PUSH2 0x7D3 SWAP1 PUSH2 0x142B JUMP JUMPDEST DUP1 ISZERO PUSH2 0x820 JUMPI DUP1 PUSH1 0x1F LT PUSH2 0x7F5 JUMPI PUSH2 0x100 DUP1 DUP4 SLOAD DIV MUL DUP4 MSTORE SWAP2 PUSH1 0x20 ADD SWAP2 PUSH2 0x820 JUMP JUMPDEST DUP3 ADD SWAP2 SWAP1 PUSH1 0x0 MSTORE PUSH1 0x20 PUSH1 0x0 KECCAK256 SWAP1 JUMPDEST DUP2 SLOAD DUP2 MSTORE SWAP1 PUSH1 0x1 ADD SWAP1 PUSH1 0x20 ADD DUP1 DUP4 GT PUSH2 0x803 JUMPI DUP3 SWAP1 SUB PUSH1 0x1F AND DUP3 ADD SWAP2 JUMPDEST POP POP POP POP POP SWAP7 POP DUP3 DUP1 SLOAD PUSH2 0x833 SWAP1 PUSH2 0x142B JUMP JUMPDEST DUP1 PUSH1 0x1F ADD PUSH1 0x20 DUP1 SWAP2 DIV MUL PUSH1 0x20 ADD PUSH1 0x40 MLOAD SWAP1 DUP2 ADD PUSH1 0x40 MSTORE DUP1 SWAP3 SWAP2 SWAP1 DUP2 DUP2 MSTORE PUSH1 0x20 ADD DUP3 DUP1 SLOAD PUSH2 0x85F SWAP1 PUSH2 0x142B JUMP JUMPDEST DUP1 ISZERO PUSH2 0x8AC JUMPI DUP1 PUSH1 0x1F LT PUSH2 0x881 JUMPI PUSH2 0x100 DUP1 DUP4 SLOAD DIV MUL DUP4 MSTORE SWAP2 PUSH1 0x20 ADD SWAP2 PUSH2 0x8AC JUMP JUMPDEST DUP3 ADD SWAP2 SWAP1 PUSH1 0x0 MSTORE PUSH1 0x20 PUSH1 0x0 KECCAK256 SWAP1 JUMPDEST DUP2 SLOAD DUP2 MSTORE SWAP1 PUSH1 0x1 ADD SWAP1 PUSH1 0x20 ADD DUP1 DUP4 GT PUSH2 0x88F JUMPI DUP3 SWAP1 SUB PUSH1 0x1F AND DUP3 ADD SWAP2 JUMPDEST POP POP POP POP POP SWAP3 POP DUP2 DUP1 SLOAD DUP1 PUSH1 0x20 MUL PUSH1 0x20 ADD PUSH1 0x40 MLOAD SWAP1 DUP2 ADD PUSH1 0x40 MSTORE DUP1 SWAP3 SWAP2 SWAP1 DUP2 DUP2 MSTORE PUSH1 0x20 ADD DUP3 DUP1 SLOAD DUP1 ISZERO PUSH2 0x934 JUMPI PUSH1 0x20 MUL DUP3 ADD SWAP2 SWAP1 PUSH1 0x0 MSTORE PUSH1 0x20 PUSH1 0x0 KECCAK256 SWAP1 JUMPDEST DUP2 PUSH1 0x0 SWAP1 SLOAD SWAP1 PUSH2 0x100 EXP SWAP1 DIV PUSH20 0xFFFFFFFFFFFFFFFFFFFFFFFFFFFFFFFFFFFFFFFF AND PUSH20 0xFFFFFFFFFFFFFFFFFFFFFFFFFFFFFFFFFFFFFFFF AND DUP2 MSTORE PUSH1 0x20 ADD SWAP1 PUSH1 0x1 ADD SWAP1 DUP1 DUP4 GT PUSH2 0x8EA JUMPI JUMPDEST POP POP POP POP POP SWAP2 POP DUP1 DUP1 SLOAD DUP1 PUSH1 0x20 MUL PUSH1 0x20 ADD PUSH1 0x40 MLOAD SWAP1 DUP2 ADD PUSH1 0x40 MSTORE DUP1 SWAP3 SWAP2 SWAP1 DUP2 DUP2 MSTORE PUSH1 0x20 ADD DUP3 DUP1 SLOAD DUP1 ISZERO PUSH2 0x986 JUMPI PUSH1 0x20 MUL DUP3 ADD SWAP2 SWAP1 PUSH1 0x0 MSTORE PUSH1 0x20 PUSH1 0x0 KECCAK256 SWAP1 JUMPDEST DUP2 SLOAD DUP2 MSTORE PUSH1 0x20 ADD SWAP1 PUSH1 0x1 ADD SWAP1 DUP1 DUP4 GT PUSH2 0x972 JUMPI JUMPDEST POP POP POP POP POP SWAP1 POP SWAP10 POP SWAP10 POP SWAP10 POP SWAP10 POP SWAP10 POP SWAP10 POP SWAP10 POP SWAP10 POP SWAP10 POP POP SWAP2 SWAP4 SWAP6 SWAP8 SWAP10 SWAP1 SWAP3 SWAP5 SWAP7 SWAP9 POP JUMP JUMPDEST PUSH1 0x0 DUP1 PUSH1 0x0 DUP4 DUP2 MSTORE PUSH1 0x20 ADD SWAP1 DUP2 MSTORE PUSH1 0x20 ADD PUSH1 0x0 KECCAK256 SWAP1 POP TIMESTAMP DUP2 PUSH1 0x4 ADD SLOAD LT PUSH2 0xA09 JUMPI PUSH1 0x40 MLOAD PUSH32 0x8C379A000000000000000000000000000000000000000000000000000000000 DUP2 MSTORE PUSH1 0x4 ADD PUSH2 0xA00 SWAP1 PUSH2 0x1531 JUMP JUMPDEST PUSH1 0x40 MLOAD DUP1 SWAP2 SUB SWAP1 REVERT JUMPDEST DUP1 PUSH1 0x3 ADD SLOAD DUP2 PUSH1 0x5 ADD SLOAD LT PUSH2 0xA53 JUMPI PUSH1 0x40 MLOAD PUSH32 0x8C379A000000000000000000000000000000000000000000000000000000000 DUP2 MSTORE PUSH1 0x4 ADD PUSH2 0xA4A SWAP1 PUSH2 0x15C3 JUMP JUMPDEST PUSH1 0x40 MLOAD DUP1 SWAP2 SUB SWAP1 REVERT JUMPDEST PUSH1 0x0 DUP2 PUSH1 0x9 ADD PUSH1 0x0 CALLER PUSH20 0xFFFFFFFFFFFFFFFFFFFFFFFFFFFFFFFFFFFFFFFF AND PUSH20 0xFFFFFFFFFFFFFFFFFFFFFFFFFFFFFFFFFFFFFFFF AND DUP2 MSTORE PUSH1 0x20 ADD SWAP1 DUP2 MSTORE PUSH1 0x20 ADD PUSH1 0x0 KECCAK256 SLOAD SWAP1 POP PUSH1 0x0 DUP3 PUSH1 0x9 ADD PUSH1 0x0 CALLER PUSH20 0xFFFFFFFFFFFFFFFFFFFFFFFFFFFFFFFFFFFFFFFF AND PUSH20 0xFFFFFFFFFFFFFFFFFFFFFFFFFFFFFFFFFFFFFFFF AND DUP2 MSTORE PUSH1 0x20 ADD SWAP1 DUP2 MSTORE PUSH1 0x20 ADD PUSH1 0x0 KECCAK256 DUP2 SWAP1 SSTORE POP DUP1 DUP3 PUSH1 0x5 ADD PUSH1 0x0 DUP3 DUP3 SLOAD PUSH2 0xAF4 SWAP2 SWAP1 PUSH2 0x15E3 JUMP JUMPDEST SWAP3 POP POP DUP2 SWAP1 SSTORE POP CALLER PUSH20 0xFFFFFFFFFFFFFFFFFFFFFFFFFFFFFFFFFFFFFFFF AND PUSH2 0x8FC DUP3 SWAP1 DUP2 ISZERO MUL SWAP1 PUSH1 0x40 MLOAD PUSH1 0x0 PUSH1 0x40 MLOAD DUP1 DUP4 SUB DUP2 DUP6 DUP9 DUP9 CALL SWAP4 POP POP POP POP ISZERO DUP1 ISZERO PUSH2 0xB41 JUMPI RETURNDATASIZE PUSH1 0x0 DUP1 RETURNDATACOPY RETURNDATASIZE PUSH1 0x0 REVERT JUMPDEST POP POP POP POP JUMP JUMPDEST PUSH1 0x0 DUP1 PUSH1 0x0 DUP1 PUSH1 0x1 SLOAD DUP2 MSTORE PUSH1 0x20 ADD SWAP1 DUP2 MSTORE PUSH1 0x20 ADD PUSH1 0x0 KECCAK256 SWAP1 POP TIMESTAMP DUP5 GT PUSH2 0xBA2 JUMPI PUSH1 0x40 MLOAD PUSH32 0x8C379A000000000000000000000000000000000000000000000000000000000 DUP2 MSTORE PUSH1 0x4 ADD PUSH2 0xB99 SWAP1 PUSH2 0x1689 JUMP JUMPDEST PUSH1 0x40 MLOAD DUP1 SWAP2 SUB SWAP1 REVERT JUMPDEST DUP8 DUP2 PUSH1 0x0 ADD PUSH1 0x0 PUSH2 0x100 EXP DUP2 SLOAD DUP2 PUSH20 0xFFFFFFFFFFFFFFFFFFFFFFFFFFFFFFFFFFFFFFFF MUL NOT AND SWAP1 DUP4 PUSH20 0xFFFFFFFFFFFFFFFFFFFFFFFFFFFFFFFFFFFFFFFF AND MUL OR SWAP1 SSTORE POP DUP7 DUP2 PUSH1 0x1 ADD SWAP1 DUP2 PUSH2 0xBF6 SWAP2 SWAP1 PUSH2 0x1855 JUMP JUMPDEST POP DUP6 DUP2 PUSH1 0x2 ADD SWAP1 DUP2 PUSH2 0xC08 SWAP2 SWAP1 PUSH2 0x1855 JUMP JUMPDEST POP DUP5 DUP2 PUSH1 0x3 ADD DUP2 SWAP1 SSTORE POP DUP4 DUP2 PUSH1 0x4 ADD DUP2 SWAP1 SSTORE POP PUSH1 0x0 DUP2 PUSH1 0x5 ADD DUP2 SWAP1 SSTORE POP DUP3 DUP2 PUSH1 0x6 ADD SWAP1 DUP2 PUSH2 0xC36 SWAP2 SWAP1 PUSH2 0x1855 JUMP JUMPDEST POP PUSH1 0x1 PUSH1 0x0 DUP2 SLOAD DUP1 SWAP3 SWAP2 SWAP1 PUSH2 0xC4A SWAP1 PUSH2 0x1927 JUMP JUMPDEST SWAP2 SWAP1 POP SSTORE POP PUSH1 0x1 DUP1 SLOAD PUSH2 0xC5D SWAP2 SWAP1 PUSH2 0x15E3 JUMP JUMPDEST SWAP2 POP POP SWAP7 SWAP6 POP POP POP POP POP POP JUMP JUMPDEST PUSH1 0x0 PUSH1 0x1 SLOAD SWAP1 POP SWAP1 JUMP JUMPDEST PUSH1 0x0 DUP2 SWAP1 POP SWAP2 SWAP1 POP JUMP JUMPDEST PUSH2 0xC87 DUP2 PUSH2 0xC74 JUMP JUMPDEST DUP3 MSTORE POP POP JUMP JUMPDEST PUSH1 0x0 PUSH1 0x20 DUP3 ADD SWAP1 POP PUSH2 0xCA2 PUSH1 0x0 DUP4 ADD DUP5 PUSH2 0xC7E JUMP JUMPDEST SWAP3 SWAP2 POP POP JUMP JUMPDEST PUSH1 0x0 PUSH1 0x40 MLOAD SWAP1 POP SWAP1 JUMP JUMPDEST PUSH1 0x0 DUP1 REVERT JUMPDEST PUSH1 0x0 DUP1 REVERT JUMPDEST PUSH2 0xCC5 DUP2 PUSH2 0xC74 JUMP JUMPDEST DUP2 EQ PUSH2 0xCD0 JUMPI PUSH1 0x0 DUP1 REVERT JUMPDEST POP JUMP JUMPDEST PUSH1 0x0 DUP2 CALLDATALOAD SWAP1 POP PUSH2 0xCE2 DUP2 PUSH2 0xCBC JUMP JUMPDEST SWAP3 SWAP2 POP POP JUMP JUMPDEST PUSH1 0x0 PUSH1 0x20 DUP3 DUP5 SUB SLT ISZERO PUSH2 0xCFE JUMPI PUSH2 0xCFD PUSH2 0xCB2 JUMP JUMPDEST JUMPDEST PUSH1 0x0 PUSH2 0xD0C DUP5 DUP3 DUP6 ADD PUSH2 0xCD3 JUMP JUMPDEST SWAP2 POP POP SWAP3 SWAP2 POP POP JUMP JUMPDEST PUSH1 0x0 PUSH20 0xFFFFFFFFFFFFFFFFFFFFFFFFFFFFFFFFFFFFFFFF DUP3 AND SWAP1 POP SWAP2 SWAP1 POP JUMP JUMPDEST PUSH1 0x0 PUSH2 0xD40 DUP3 PUSH2 0xD15 JUMP JUMPDEST SWAP1 POP SWAP2 SWAP1 POP JUMP JUMPDEST PUSH2 0xD50 DUP2 PUSH2 0xD35 JUMP JUMPDEST DUP3 MSTORE POP POP JUMP JUMPDEST PUSH1 0x0 DUP2 MLOAD SWAP1 POP SWAP2 SWAP1 POP JUMP JUMPDEST PUSH1 0x0 DUP3 DUP3 MSTORE PUSH1 0x20 DUP3 ADD SWAP1 POP SWAP3 SWAP2 POP POP JUMP JUMPDEST PUSH1 0x0 JUMPDEST DUP4 DUP2 LT ISZERO PUSH2 0xD90 JUMPI DUP1 DUP3 ADD MLOAD DUP2 DUP5 ADD MSTORE PUSH1 0x20 DUP2 ADD SWAP1 POP PUSH2 0xD75 JUMP JUMPDEST PUSH1 0x0 DUP5 DUP5 ADD MSTORE POP POP POP POP JUMP JUMPDEST PUSH1 0x0 PUSH1 0x1F NOT PUSH1 0x1F DUP4 ADD AND SWAP1 POP SWAP2 SWAP1 POP JUMP JUMPDEST PUSH1 0x0 PUSH2 0xDB8 DUP3 PUSH2 0xD56 JUMP JUMPDEST PUSH2 0xDC2 DUP2 DUP6 PUSH2 0xD61 JUMP JUMPDEST SWAP4 POP PUSH2 0xDD2 DUP2 DUP6 PUSH1 0x20 DUP7 ADD PUSH2 0xD72 JUMP JUMPDEST PUSH2 0xDDB DUP2 PUSH2 0xD9C JUMP JUMPDEST DUP5 ADD SWAP2 POP POP SWAP3 SWAP2 POP POP JUMP JUMPDEST PUSH1 0x0 PUSH1 0xE0 DUP3 ADD SWAP1 POP PUSH2 0xDFB PUSH1 0x0 DUP4 ADD DUP11 PUSH2 0xD47 JUMP JUMPDEST DUP2 DUP2 SUB PUSH1 0x20 DUP4 ADD MSTORE PUSH2 0xE0D DUP2 DUP10 PUSH2 0xDAD JUMP JUMPDEST SWAP1 POP DUP2 DUP2 SUB PUSH1 0x40 DUP4 ADD MSTORE PUSH2 0xE21 DUP2 DUP9 PUSH2 0xDAD JUMP JUMPDEST SWAP1 POP PUSH2 0xE30 PUSH1 0x60 DUP4 ADD DUP8 PUSH2 0xC7E JUMP JUMPDEST PUSH2 0xE3D PUSH1 0x80 DUP4 ADD DUP7 PUSH2 0xC7E JUMP JUMPDEST PUSH2 0xE4A PUSH1 0xA0 DUP4 ADD DUP6 PUSH2 0xC7E JUMP JUMPDEST DUP2 DUP2 SUB PUSH1 0xC0 DUP4 ADD MSTORE PUSH2 0xE5C DUP2 DUP5 PUSH2 0xDAD JUMP JUMPDEST SWAP1 POP SWAP9 SWAP8 POP POP POP POP POP POP POP POP JUMP JUMPDEST PUSH1 0x0 DUP2 MLOAD SWAP1 POP SWAP2 SWAP1 POP JUMP JUMPDEST PUSH1 0x0 DUP3 DUP3 MSTORE PUSH1 0x20 DUP3 ADD SWAP1 POP SWAP3 SWAP2 POP POP JUMP JUMPDEST PUSH1 0x0 DUP2 SWAP1 POP PUSH1 0x20 DUP3 ADD SWAP1 POP SWAP2 SWAP1 POP JUMP JUMPDEST PUSH2 0xE9F DUP2 PUSH2 0xD35 JUMP JUMPDEST DUP3 MSTORE POP POP JUMP JUMPDEST PUSH1 0x0 PUSH2 0xEB1 DUP4 DUP4 PUSH2 0xE96 JUMP JUMPDEST PUSH1 0x20 DUP4 ADD SWAP1 POP SWAP3 SWAP2 POP POP JUMP JUMPDEST PUSH1 0x0 PUSH1 0x20 DUP3 ADD SWAP1 POP SWAP2 SWAP1 POP JUMP JUMPDEST PUSH1 0x0 PUSH2 0xED5 DUP3 PUSH2 0xE6A JUMP JUMPDEST PUSH2 0xEDF DUP2 DUP6 PUSH2 0xE75 JUMP JUMPDEST SWAP4 POP PUSH2 0xEEA DUP4 PUSH2 0xE86 JUMP JUMPDEST DUP1 PUSH1 0x0 JUMPDEST DUP4 DUP2 LT ISZERO PUSH2 0xF1B JUMPI DUP2 MLOAD PUSH2 0xF02 DUP9 DUP3 PUSH2 0xEA5 JUMP JUMPDEST SWAP8 POP PUSH2 0xF0D DUP4 PUSH2 0xEBD JUMP JUMPDEST SWAP3 POP POP PUSH1 0x1 DUP2 ADD SWAP1 POP PUSH2 0xEEE JUMP JUMPDEST POP DUP6 SWAP4 POP POP POP POP SWAP3 SWAP2 POP POP JUMP JUMPDEST PUSH1 0x0 DUP2 MLOAD SWAP1 POP SWAP2 SWAP1 POP JUMP JUMPDEST PUSH1 0x0 DUP3 DUP3 MSTORE PUSH1 0x20 DUP3 ADD SWAP1 POP SWAP3 SWAP2 POP POP JUMP JUMPDEST PUSH1 0x0 DUP2 SWAP1 POP PUSH1 0x20 DUP3 ADD SWAP1 POP SWAP2 SWAP1 POP JUMP JUMPDEST PUSH2 0xF5D DUP2 PUSH2 0xC74 JUMP JUMPDEST DUP3 MSTORE POP POP JUMP JUMPDEST PUSH1 0x0 PUSH2 0xF6F DUP4 DUP4 PUSH2 0xF54 JUMP JUMPDEST PUSH1 0x20 DUP4 ADD SWAP1 POP SWAP3 SWAP2 POP POP JUMP JUMPDEST PUSH1 0x0 PUSH1 0x20 DUP3 ADD SWAP1 POP SWAP2 SWAP1 POP JUMP JUMPDEST PUSH1 0x0 PUSH2 0xF93 DUP3 PUSH2 0xF28 JUMP JUMPDEST PUSH2 0xF9D DUP2 DUP6 PUSH2 0xF33 JUMP JUMPDEST SWAP4 POP PUSH2 0xFA8 DUP4 PUSH2 0xF44 JUMP JUMPDEST DUP1 PUSH1 0x0 JUMPDEST DUP4 DUP2 LT ISZERO PUSH2 0xFD9 JUMPI DUP2 MLOAD PUSH2 0xFC0 DUP9 DUP3 PUSH2 0xF63 JUMP JUMPDEST SWAP8 POP PUSH2 0xFCB DUP4 PUSH2 0xF7B JUMP JUMPDEST SWAP3 POP POP PUSH1 0x1 DUP2 ADD SWAP1 POP PUSH2 0xFAC JUMP JUMPDEST POP DUP6 SWAP4 POP POP POP POP SWAP3 SWAP2 POP POP JUMP JUMPDEST PUSH1 0x0 PUSH2 0x120 DUP3 ADD SWAP1 POP PUSH2 0xFFC PUSH1 0x0 DUP4 ADD DUP13 PUSH2 0xD47 JUMP JUMPDEST DUP2 DUP2 SUB PUSH1 0x20 DUP4 ADD MSTORE PUSH2 0x100E DUP2 DUP12 PUSH2 0xDAD JUMP JUMPDEST SWAP1 POP DUP2 DUP2 SUB PUSH1 0x40 DUP4 ADD MSTORE PUSH2 0x1022 DUP2 DUP11 PUSH2 0xDAD JUMP JUMPDEST SWAP1 POP PUSH2 0x1031 PUSH1 0x60 DUP4 ADD DUP10 PUSH2 0xC7E JUMP JUMPDEST PUSH2 0x103E PUSH1 0x80 DUP4 ADD DUP9 PUSH2 0xC7E JUMP JUMPDEST PUSH2 0x104B PUSH1 0xA0 DUP4 ADD DUP8 PUSH2 0xC7E JUMP JUMPDEST DUP2 DUP2 SUB PUSH1 0xC0 DUP4 ADD MSTORE PUSH2 0x105D DUP2 DUP7 PUSH2 0xDAD JUMP JUMPDEST SWAP1 POP DUP2 DUP2 SUB PUSH1 0xE0 DUP4 ADD MSTORE PUSH2 0x1071 DUP2 DUP6 PUSH2 0xECA JUMP JUMPDEST SWAP1 POP DUP2 DUP2 SUB PUSH2 0x100 DUP4 ADD MSTORE PUSH2 0x1086 DUP2 DUP5 PUSH2 0xF88 JUMP JUMPDEST SWAP1 POP SWAP11 SWAP10 POP POP POP POP POP POP POP POP POP POP JUMP JUMPDEST PUSH2 0x109F DUP2 PUSH2 0xD35 JUMP JUMPDEST DUP2 EQ PUSH2 0x10AA JUMPI PUSH1 0x0 DUP1 REVERT JUMPDEST POP JUMP JUMPDEST PUSH1 0x0 DUP2 CALLDATALOAD SWAP1 POP PUSH2 0x10BC DUP2 PUSH2 0x1096 JUMP JUMPDEST SWAP3 SWAP2 POP POP JUMP JUMPDEST PUSH1 0x0 DUP1 REVERT JUMPDEST PUSH1 0x0 DUP1 REVERT JUMPDEST PUSH32 0x4E487B7100000000000000000000000000000000000000000000000000000000 PUSH1 0x0 MSTORE PUSH1 0x41 PUSH1 0x4 MSTORE PUSH1 0x24 PUSH1 0x0 REVERT JUMPDEST PUSH2 0x1104 DUP3 PUSH2 0xD9C JUMP JUMPDEST DUP2 ADD DUP2 DUP2 LT PUSH8 0xFFFFFFFFFFFFFFFF DUP3 GT OR ISZERO PUSH2 0x1123 JUMPI PUSH2 0x1122 PUSH2 0x10CC JUMP JUMPDEST JUMPDEST DUP1 PUSH1 0x40 MSTORE POP POP POP JUMP JUMPDEST PUSH1 0x0 PUSH2 0x1136 PUSH2 0xCA8 JUMP JUMPDEST SWAP1 POP PUSH2 0x1142 DUP3 DUP3 PUSH2 0x10FB JUMP JUMPDEST SWAP2 SWAP1 POP JUMP JUMPDEST PUSH1 0x0 PUSH8 0xFFFFFFFFFFFFFFFF DUP3 GT ISZERO PUSH2 0x1162 JUMPI PUSH2 0x1161 PUSH2 0x10CC JUMP JUMPDEST JUMPDEST PUSH2 0x116B DUP3 PUSH2 0xD9C JUMP JUMPDEST SWAP1 POP PUSH1 0x20 DUP2 ADD SWAP1 POP SWAP2 SWAP1 POP JUMP JUMPDEST DUP3 DUP2 DUP4 CALLDATACOPY PUSH1 0x0 DUP4 DUP4 ADD MSTORE POP POP POP JUMP JUMPDEST PUSH1 0x0 PUSH2 0x119A PUSH2 0x1195 DUP5 PUSH2 0x1147 JUMP JUMPDEST PUSH2 0x112C JUMP JUMPDEST SWAP1 POP DUP3 DUP2 MSTORE PUSH1 0x20 DUP2 ADD DUP5 DUP5 DUP5 ADD GT ISZERO PUSH2 0x11B6 JUMPI PUSH2 0x11B5 PUSH2 0x10C7 JUMP JUMPDEST JUMPDEST PUSH2 0x11C1 DUP5 DUP3 DUP6 PUSH2 0x1178 JUMP JUMPDEST POP SWAP4 SWAP3 POP POP POP JUMP JUMPDEST PUSH1 0x0 DUP3 PUSH1 0x1F DUP4 ADD SLT PUSH2 0x11DE JUMPI PUSH2 0x11DD PUSH2 0x10C2 JUMP JUMPDEST JUMPDEST DUP2 CALLDATALOAD PUSH2 0x11EE DUP5 DUP3 PUSH1 0x20 DUP7 ADD PUSH2 0x1187 JUMP JUMPDEST SWAP2 POP POP SWAP3 SWAP2 POP POP JUMP JUMPDEST PUSH1 0x0 DUP1 PUSH1 0x0 DUP1 PUSH1 0x0 DUP1 PUSH1 0xC0 DUP8 DUP10 SUB SLT ISZERO PUSH2 0x1214 JUMPI PUSH2 0x1213 PUSH2 0xCB2 JUMP JUMPDEST JUMPDEST PUSH1 0x0 PUSH2 0x1222 DUP10 DUP3 DUP11 ADD PUSH2 0x10AD JUMP JUMPDEST SWAP7 POP POP PUSH1 0x20 DUP8 ADD CALLDATALOAD PUSH8 0xFFFFFFFFFFFFFFFF DUP2 GT ISZERO PUSH2 0x1243 JUMPI PUSH2 0x1242 PUSH2 0xCB7 JUMP JUMPDEST JUMPDEST PUSH2 0x124F DUP10 DUP3 DUP11 ADD PUSH2 0x11C9 JUMP JUMPDEST SWAP6 POP POP PUSH1 0x40 DUP8 ADD CALLDATALOAD PUSH8 0xFFFFFFFFFFFFFFFF DUP2 GT ISZERO PUSH2 0x1270 JUMPI PUSH2 0x126F PUSH2 0xCB7 JUMP JUMPDEST JUMPDEST PUSH2 0x127C DUP10 DUP3 DUP11 ADD PUSH2 0x11C9 JUMP JUMPDEST SWAP5 POP POP PUSH1 0x60 PUSH2 0x128D DUP10 DUP3 DUP11 ADD PUSH2 0xCD3 JUMP JUMPDEST SWAP4 POP POP PUSH1 0x80 PUSH2 0x129E DUP10 DUP3 DUP11 ADD PUSH2 0xCD3 JUMP JUMPDEST SWAP3 POP POP PUSH1 0xA0 DUP8 ADD CALLDATALOAD PUSH8 0xFFFFFFFFFFFFFFFF DUP2 GT ISZERO PUSH2 0x12BF JUMPI PUSH2 0x12BE PUSH2 0xCB7 JUMP JUMPDEST JUMPDEST PUSH2 0x12CB DUP10 DUP3 DUP11 ADD PUSH2 0x11C9 JUMP JUMPDEST SWAP2 POP POP SWAP3 SWAP6 POP SWAP3 SWAP6 POP SWAP3 SWAP6 JUMP JUMPDEST PUSH32 0x4F6E6C79207468652063616D706169676E206F776E65722063616E2077697468 PUSH1 0x0 DUP3 ADD MSTORE PUSH32 0x647261772066756E64732E000000000000000000000000000000000000000000 PUSH1 0x20 DUP3 ADD MSTORE POP JUMP JUMPDEST PUSH1 0x0 PUSH2 0x1334 PUSH1 0x2B DUP4 PUSH2 0xD61 JUMP JUMPDEST SWAP2 POP PUSH2 0x133F DUP3 PUSH2 0x12D8 JUMP JUMPDEST PUSH1 0x40 DUP3 ADD SWAP1 POP SWAP2 SWAP1 POP JUMP JUMPDEST PUSH1 0x0 PUSH1 0x20 DUP3 ADD SWAP1 POP DUP2 DUP2 SUB PUSH1 0x0 DUP4 ADD MSTORE PUSH2 0x1363 DUP2 PUSH2 0x1327 JUMP JUMPDEST SWAP1 POP SWAP2 SWAP1 POP JUMP JUMPDEST PUSH32 0x46756E64732063616E6E6F742062652077697468647261776E20756E74696C20 PUSH1 0x0 DUP3 ADD MSTORE PUSH32 0x7468652074617267657420697320726561636865642E00000000000000000000 PUSH1 0x20 DUP3 ADD MSTORE POP JUMP JUMPDEST PUSH1 0x0 PUSH2 0x13C6 PUSH1 0x36 DUP4 PUSH2 0xD61 JUMP JUMPDEST SWAP2 POP PUSH2 0x13D1 DUP3 PUSH2 0x136A JUMP JUMPDEST PUSH1 0x40 DUP3 ADD SWAP1 POP SWAP2 SWAP1 POP JUMP JUMPDEST PUSH1 0x0 PUSH1 0x20 DUP3 ADD SWAP1 POP DUP2 DUP2 SUB PUSH1 0x0 DUP4 ADD MSTORE PUSH2 0x13F5 DUP2 PUSH2 0x13B9 JUMP JUMPDEST SWAP1 POP SWAP2 SWAP1 POP JUMP JUMPDEST PUSH32 0x4E487B7100000000000000000000000000000000000000000000000000000000 PUSH1 0x0 MSTORE PUSH1 0x22 PUSH1 0x4 MSTORE PUSH1 0x24 PUSH1 0x0 REVERT JUMPDEST PUSH1 0x0 PUSH1 0x2 DUP3 DIV SWAP1 POP PUSH1 0x1 DUP3 AND DUP1 PUSH2 0x1443 JUMPI PUSH1 0x7F DUP3 AND SWAP2 POP JUMPDEST PUSH1 0x20 DUP3 LT DUP2 SUB PUSH2 0x1456 JUMPI PUSH2 0x1455 PUSH2 0x13FC JUMP JUMPDEST JUMPDEST POP SWAP2 SWAP1 POP JUMP JUMPDEST PUSH32 0x4E487B7100000000000000000000000000000000000000000000000000000000 PUSH1 0x0 MSTORE PUSH1 0x11 PUSH1 0x4 MSTORE PUSH1 0x24 PUSH1 0x0 REVERT JUMPDEST PUSH1 0x0 PUSH2 0x1496 DUP3 PUSH2 0xC74 JUMP JUMPDEST SWAP2 POP PUSH2 0x14A1 DUP4 PUSH2 0xC74 JUMP JUMPDEST SWAP3 POP DUP3 DUP3 ADD SWAP1 POP DUP1 DUP3 GT ISZERO PUSH2 0x14B9 JUMPI PUSH2 0x14B8 PUSH2 0x145C JUMP JUMPDEST JUMPDEST SWAP3 SWAP2 POP POP JUMP JUMPDEST PUSH32 0x526566756E64732063616E206F6E6C7920626520636C61696D65642061667465 PUSH1 0x0 DUP3 ADD MSTORE PUSH32 0x72207468652063616D706169676E20646561646C696E652E0000000000000000 PUSH1 0x20 DUP3 ADD MSTORE POP JUMP JUMPDEST PUSH1 0x0 PUSH2 0x151B PUSH1 0x38 DUP4 PUSH2 0xD61 JUMP JUMPDEST SWAP2 POP PUSH2 0x1526 DUP3 PUSH2 0x14BF JUMP JUMPDEST PUSH1 0x40 DUP3 ADD SWAP1 POP SWAP2 SWAP1 POP JUMP JUMPDEST PUSH1 0x0 PUSH1 0x20 DUP3 ADD SWAP1 POP DUP2 DUP2 SUB PUSH1 0x0 DUP4 ADD MSTORE PUSH2 0x154A DUP2 PUSH2 0x150E JUMP JUMPDEST SWAP1 POP SWAP2 SWAP1 POP JUMP JUMPDEST PUSH32 0x526566756E647320617265206F6E6C7920617661696C61626C65206966207468 PUSH1 0x0 DUP3 ADD MSTORE PUSH32 0x6520746172676574206973206E6F7420726561636865642E0000000000000000 PUSH1 0x20 DUP3 ADD MSTORE POP JUMP JUMPDEST PUSH1 0x0 PUSH2 0x15AD PUSH1 0x38 DUP4 PUSH2 0xD61 JUMP JUMPDEST SWAP2 POP PUSH2 0x15B8 DUP3 PUSH2 0x1551 JUMP JUMPDEST PUSH1 0x40 DUP3 ADD SWAP1 POP SWAP2 SWAP1 POP JUMP JUMPDEST PUSH1 0x0 PUSH1 0x20 DUP3 ADD SWAP1 POP DUP2 DUP2 SUB PUSH1 0x0 DUP4 ADD MSTORE PUSH2 0x15DC DUP2 PUSH2 0x15A0 JUMP JUMPDEST SWAP1 POP SWAP2 SWAP1 POP JUMP JUMPDEST PUSH1 0x0 PUSH2 0x15EE DUP3 PUSH2 0xC74 JUMP JUMPDEST SWAP2 POP PUSH2 0x15F9 DUP4 PUSH2 0xC74 JUMP JUMPDEST SWAP3 POP DUP3 DUP3 SUB SWAP1 POP DUP2 DUP2 GT ISZERO PUSH2 0x1611 JUMPI PUSH2 0x1610 PUSH2 0x145C JUMP JUMPDEST JUMPDEST SWAP3 SWAP2 POP POP JUMP JUMPDEST PUSH32 0x54686520646561646C696E652073686F756C642062652061206461746520696E PUSH1 0x0 DUP3 ADD MSTORE PUSH32 0x20746865206675747572652E0000000000000000000000000000000000000000 PUSH1 0x20 DUP3 ADD MSTORE POP JUMP JUMPDEST PUSH1 0x0 PUSH2 0x1673 PUSH1 0x2C DUP4 PUSH2 0xD61 JUMP JUMPDEST SWAP2 POP PUSH2 0x167E DUP3 PUSH2 0x1617 JUMP JUMPDEST PUSH1 0x40 DUP3 ADD SWAP1 POP SWAP2 SWAP1 POP JUMP JUMPDEST PUSH1 0x0 PUSH1 0x20 DUP3 ADD SWAP1 POP DUP2 DUP2 SUB PUSH1 0x0 DUP4 ADD MSTORE PUSH2 0x16A2 DUP2 PUSH2 0x1666 JUMP JUMPDEST SWAP1 POP SWAP2 SWAP1 POP JUMP JUMPDEST PUSH1 0x0 DUP2 SWAP1 POP DUP2 PUSH1 0x0 MSTORE PUSH1 0x20 PUSH1 0x0 KECCAK256 SWAP1 POP SWAP2 SWAP1 POP JUMP JUMPDEST PUSH1 0x0 PUSH1 0x20 PUSH1 0x1F DUP4 ADD DIV SWAP1 POP SWAP2 SWAP1 POP JUMP JUMPDEST PUSH1 0x0 DUP3 DUP3 SHL SWAP1 POP SWAP3 SWAP2 POP POP JUMP JUMPDEST PUSH1 0x0 PUSH1 0x8 DUP4 MUL PUSH2 0x170B PUSH32 0xFFFFFFFFFFFFFFFFFFFFFFFFFFFFFFFFFFFFFFFFFFFFFFFFFFFFFFFFFFFFFFFF DUP3 PUSH2 0x16CE JUMP JUMPDEST PUSH2 0x1715 DUP7 DUP4 PUSH2 0x16CE JUMP JUMPDEST SWAP6 POP DUP1 NOT DUP5 AND SWAP4 POP DUP1 DUP7 AND DUP5 OR SWAP3 POP POP POP SWAP4 SWAP3 POP POP POP JUMP JUMPDEST PUSH1 0x0 DUP2 SWAP1 POP SWAP2 SWAP1 POP JUMP JUMPDEST PUSH1 0x0 PUSH2 0x1752 PUSH2 0x174D PUSH2 0x1748 DUP5 PUSH2 0xC74 JUMP JUMPDEST PUSH2 0x172D JUMP JUMPDEST PUSH2 0xC74 JUMP JUMPDEST SWAP1 POP SWAP2 SWAP1 POP JUMP JUMPDEST PUSH1 0x0 DUP2 SWAP1 POP SWAP2 SWAP1 POP JUMP JUMPDEST PUSH2 0x176C DUP4 PUSH2 0x1737 JUMP JUMPDEST PUSH2 0x1780 PUSH2 0x1778 DUP3 PUSH2 0x1759 JUMP JUMPDEST DUP5 DUP5 SLOAD PUSH2 0x16DB JUMP JUMPDEST DUP3 SSTORE POP POP POP POP JUMP JUMPDEST PUSH1 0x0 SWAP1 JUMP JUMPDEST PUSH2 0x1795 PUSH2 0x1788 JUMP JUMPDEST PUSH2 0x17A0 DUP2 DUP5 DUP5 PUSH2 0x1763 JUMP JUMPDEST POP POP POP JUMP JUMPDEST JUMPDEST DUP2 DUP2 LT ISZERO PUSH2 0x17C4 JUMPI PUSH2 0x17B9 PUSH1 0x0 DUP3 PUSH2 0x178D JUMP JUMPDEST PUSH1 0x1 DUP2 ADD SWAP1 POP PUSH2 0x17A6 JUMP JUMPDEST POP POP JUMP JUMPDEST PUSH1 0x1F DUP3 GT ISZERO PUSH2 0x1809 JUMPI PUSH2 0x17DA DUP2 PUSH2 0x16A9 JUMP JUMPDEST PUSH2 0x17E3 DUP5 PUSH2 0x16BE JUMP JUMPDEST DUP2 ADD PUSH1 0x20 DUP6 LT ISZERO PUSH2 0x17F2 JUMPI DUP2 SWAP1 POP JUMPDEST PUSH2 0x1806 PUSH2 0x17FE DUP6 PUSH2 0x16BE JUMP JUMPDEST DUP4 ADD DUP3 PUSH2 0x17A5 JUMP JUMPDEST POP POP JUMPDEST POP POP POP JUMP JUMPDEST PUSH1 0x0 DUP3 DUP3 SHR SWAP1 POP SWAP3 SWAP2 POP POP JUMP JUMPDEST PUSH1 0x0 PUSH2 0x182C PUSH1 0x0 NOT DUP5 PUSH1 0x8 MUL PUSH2 0x180E JUMP JUMPDEST NOT DUP1 DUP4 AND SWAP2 POP POP SWAP3 SWAP2 POP POP JUMP JUMPDEST PUSH1 0x0 PUSH2 0x1845 DUP4 DUP4 PUSH2 0x181B JUMP JUMPDEST SWAP2 POP DUP3 PUSH1 0x2 MUL DUP3 OR SWAP1 POP SWAP3 SWAP2 POP POP JUMP JUMPDEST PUSH2 0x185E DUP3 PUSH2 0xD56 JUMP JUMPDEST PUSH8 0xFFFFFFFFFFFFFFFF DUP2 GT ISZERO PUSH2 0x1877 JUMPI PUSH2 0x1876 PUSH2 0x10CC JUMP JUMPDEST JUMPDEST PUSH2 0x1881 DUP3 SLOAD PUSH2 0x142B JUMP JUMPDEST PUSH2 0x188C DUP3 DUP3 DUP6 PUSH2 0x17C8 JUMP JUMPDEST PUSH1 0x0 PUSH1 0x20 SWAP1 POP PUSH1 0x1F DUP4 GT PUSH1 0x1 DUP2 EQ PUSH2 0x18BF JUMPI PUSH1 0x0 DUP5 ISZERO PUSH2 0x18AD JUMPI DUP3 DUP8 ADD MLOAD SWAP1 POP JUMPDEST PUSH2 0x18B7 DUP6 DUP3 PUSH2 0x1839 JUMP JUMPDEST DUP7 SSTORE POP PUSH2 0x191F JUMP JUMPDEST PUSH1 0x1F NOT DUP5 AND PUSH2 0x18CD DUP7 PUSH2 0x16A9 JUMP JUMPDEST PUSH1 0x0 JUMPDEST DUP3 DUP2 LT ISZERO PUSH2 0x18F5 JUMPI DUP5 DUP10 ADD MLOAD DUP3 SSTORE PUSH1 0x1 DUP3 ADD SWAP2 POP PUSH1 0x20 DUP6 ADD SWAP5 POP PUSH1 0x20 DUP2 ADD SWAP1 POP PUSH2 0x18D0 JUMP JUMPDEST DUP7 DUP4 LT ISZERO PUSH2 0x1912 JUMPI DUP5 DUP10 ADD MLOAD PUSH2 0x190E PUSH1 0x1F DUP10 AND DUP3 PUSH2 0x181B JUMP JUMPDEST DUP4 SSTORE POP JUMPDEST PUSH1 0x1 PUSH1 0x2 DUP9 MUL ADD DUP9 SSTORE POP POP POP JUMPDEST POP POP POP POP POP POP JUMP JUMPDEST PUSH1 0x0 PUSH2 0x1932 DUP3 PUSH2 0xC74 JUMP JUMPDEST SWAP2 POP PUSH32 0xFFFFFFFFFFFFFFFFFFFFFFFFFFFFFFFFFFFFFFFFFFFFFFFFFFFFFFFFFFFFFFFF DUP3 SUB PUSH2 0x1964 JUMPI PUSH2 0x1963 PUSH2 0x145C JUMP JUMPDEST JUMPDEST PUSH1 0x1 DUP3 ADD SWAP1 POP SWAP2 SWAP1 POP JUMP INVALID LOG2 PUSH5 0x6970667358 0x22 SLT KECCAK256 0xC 0xCA DUP16 KECCAK256 EQ DUP7 PUSH12 0x656BBD326B039276A41F42A1 SLT 0xBD BALANCE 0xD7 0x2D PUSH20 0x8FC65AF86CA86864736F6C634300081300330000 "
				},
				"gasEstimates": {
					"creation": {
						"codeDepositCost": "1313000",
						"executionCost": "6375",
						"totalCost": "1319375"
					},
					"external": {
						"Campaigns(uint256)": "infinite",
						"claimRefund(uint256)": "infinite",
						"createCampaign(address,string,string,uint256,uint256,string)": "infinite",
						"donateToCampaign(uint256)": "infinite",
						"getCampaign(uint256)": "infinite",
						"getNumberOfCampaigns()": "2503",
						"numberOfCampaigns()": "2430",
						"withdrawFunds(uint256)": "infinite"
					}
				},
				"methodIdentifiers": {
					"Campaigns(uint256)": "4013be10",
					"claimRefund(uint256)": "5b7baf64",
					"createCampaign(address,string,string,uint256,uint256,string)": "9943e3a1",
					"donateToCampaign(uint256)": "42a4fda8",
					"getCampaign(uint256)": "5598f8cc",
					"getNumberOfCampaigns()": "e4aafc2c",
					"numberOfCampaigns()": "07ca140d",
					"withdrawFunds(uint256)": "155dd5ee"
				}
			},
			"storageLayout": {
				"storage": [
					{
						"astId": 31,
						"contract": "contracts/Crowdfunding.sol:CrowdFunding",
						"label": "Campaigns",
						"offset": 0,
						"slot": "0",
						"type": "t_mapping(t_uint256,t_struct(Campaign)26_storage)"
					},
					{
						"astId": 34,
						"contract": "contracts/Crowdfunding.sol:CrowdFunding",
						"label": "numberOfCampaigns",
						"offset": 0,
						"slot": "1",
						"type": "t_uint256"
					}
				],
				"types": {
					"t_address": {
						"encoding": "inplace",
						"label": "address",
						"numberOfBytes": "20"
					},
					"t_array(t_address)dyn_storage": {
						"base": "t_address",
						"encoding": "dynamic_array",
						"label": "address[]",
						"numberOfBytes": "32"
					},
					"t_array(t_uint256)dyn_storage": {
						"base": "t_uint256",
						"encoding": "dynamic_array",
						"label": "uint256[]",
						"numberOfBytes": "32"
					},
					"t_mapping(t_address,t_uint256)": {
						"encoding": "mapping",
						"key": "t_address",
						"label": "mapping(address => uint256)",
						"numberOfBytes": "32",
						"value": "t_uint256"
					},
					"t_mapping(t_uint256,t_struct(Campaign)26_storage)": {
						"encoding": "mapping",
						"key": "t_uint256",
						"label": "mapping(uint256 => struct CrowdFunding.Campaign)",
						"numberOfBytes": "32",
						"value": "t_struct(Campaign)26_storage"
					},
					"t_string_storage": {
						"encoding": "bytes",
						"label": "string",
						"numberOfBytes": "32"
					},
					"t_struct(Campaign)26_storage": {
						"encoding": "inplace",
						"label": "struct CrowdFunding.Campaign",
						"members": [
							{
								"astId": 3,
								"contract": "contracts/Crowdfunding.sol:CrowdFunding",
								"label": "owner",
								"offset": 0,
								"slot": "0",
								"type": "t_address"
							},
							{
								"astId": 5,
								"contract": "contracts/Crowdfunding.sol:CrowdFunding",
								"label": "title",
								"offset": 0,
								"slot": "1",
								"type": "t_string_storage"
							},
							{
								"astId": 7,
								"contract": "contracts/Crowdfunding.sol:CrowdFunding",
								"label": "description",
								"offset": 0,
								"slot": "2",
								"type": "t_string_storage"
							},
							{
								"astId": 9,
								"contract": "contracts/Crowdfunding.sol:CrowdFunding",
								"label": "target",
								"offset": 0,
								"slot": "3",
								"type": "t_uint256"
							},
							{
								"astId": 11,
								"contract": "contracts/Crowdfunding.sol:CrowdFunding",
								"label": "deadline",
								"offset": 0,
								"slot": "4",
								"type": "t_uint256"
							},
							{
								"astId": 13,
								"contract": "contracts/Crowdfunding.sol:CrowdFunding",
								"label": "amountCollected",
								"offset": 0,
								"slot": "5",
								"type": "t_uint256"
							},
							{
								"astId": 15,
								"contract": "contracts/Crowdfunding.sol:CrowdFunding",
								"label": "image",
								"offset": 0,
								"slot": "6",
								"type": "t_string_storage"
							},
							{
								"astId": 18,
								"contract": "contracts/Crowdfunding.sol:CrowdFunding",
								"label": "donators",
								"offset": 0,
								"slot": "7",
								"type": "t_array(t_address)dyn_storage"
							},
							{
								"astId": 21,
								"contract": "contracts/Crowdfunding.sol:CrowdFunding",
								"label": "donations",
								"offset": 0,
								"slot": "8",
								"type": "t_array(t_uint256)dyn_storage"
							},
							{
								"astId": 25,
								"contract": "contracts/Crowdfunding.sol:CrowdFunding",
								"label": "donatedAmount",
								"offset": 0,
								"slot": "9",
								"type": "t_mapping(t_address,t_uint256)"
							}
						],
						"numberOfBytes": "320"
					},
					"t_uint256": {
						"encoding": "inplace",
						"label": "uint256",
						"numberOfBytes": "32"
					}
				}
			},
			"userdoc": {
				"kind": "user",
				"methods": {},
				"version": 1
			}
		}
	}
}